:100000000C94FB020C9423030C9423030C94230301
:100010000C9423030C9423030C9423030C942303C8
:100020000C9423030C9423030C9423030C942303B8
:100030000C9423030C9423030C9423030C942303A8
:100040000C9490060C9423030C9484050C945E0588
:100050000C9423030C9423030C9423030C94230388
:100060000C94DA060C9423036B2974297D298629C4
:100070008F299829A129AA29B329BC29C529CE29C4
:10008000D729E029E929F229FB29042A4E414E49C2
:100090004E495459494E46CDCCCC3D0AD7233C1746
:1000A000B7D13877CC2B329595E6241FB14F0A0093
:1000B0000020410000C84200401C4620BCBE4CCA83
:1000C0001B0E5AAEC59D7400407A10F35A00A07200
:1000D0004E18090010A5D4E80000E8764817000083
:1000E000E40B54020000CA9A3B000000E1F5050051
:1000F0000080969800000040420F000000A086019A
:10010000000000102700000000E803000000006469
:1001100000000000000A00000000000100000000D4
:10012000002C76D888DC674F0823DFC1DFAE59E1A9
:10013000B1B796E5E3E453C63AE651997696E8E618
:10014000C28426EB898C9B62ED407C6FFCEFBC9CEB
:100150009F40F2BAA56FA5F490055A2AF75C936BFD
:100160006CF9676DC11BFCE0E40D47FEF520E6B5B8
:1001700000D0ED902E0300943577050080841E0892
:100180000000204E0A000000C80C333333330F98B0
:100190006E12831141EF8D2114893BE65516CFFE77
:1001A000E6DB18D1844B381BF77C1D901DA4BBE403
:1001B00024203284725E228100C9F124ECA1E53D45
:1001C000276364696E6F70737578585B00566F664D
:1001D00066583A202000454550524F4D20566F66D4
:1001E00066583A2020003A20007A007900780045CD
:1001F0004550524F4D20566F004F7274686F204427
:10020000697361626C6564004F7274686F20456E3B
:1002100061626C6564004F652A567265662F563AB6
:1002200020006D562F562F4F653A2000537A3A2002
:10023000200053793A20200053783A202000454589
:1002400050524F4D206D562F562F4F65005244206F
:1002500000424433004D616E75616C2052656164EB
:1002600000436F6E74696E756F75732052656164BB
:10027000005D3A20200052465B0052542000504757
:10028000413A20004C696E3A20004F7274683A205F
:10029000002000200046696C74200020402041644A
:1002A00064726573733A2020005A3A20002040207F
:1002B000416464726573733A202000593A2000202B
:1002C0004020416464726573733A202000583A20DC
:1002D0000041444320426974733A20200052562062
:1002E00000425633004D616E75616C205265616449
:1002F00000436F6E74696E756F757320526561642B
:1003000020566F6C74616765004144432053616DF2
:10031000706C65733A2000536574204C696E65619A
:1003200072697A6174696F6E0052656D6F766520CF
:100330004C696E656172697A6174696F6E004865B7
:100340006C6C6F002C20002C200041353A202000DE
:100350002C20002C200041343A2020002C20002C9E
:10036000200041333A2020002C20002C2000413274
:100370003A2020002C20002C200041313A2020007F
:100380002C20002C200041303A20200044432045FE
:100390006E61626C656400524D5320456E61626C03
:1003A00065640042617564726174652052657365AD
:1003B0007474696E6720546F20496E6465782000FC
:1003C0005444203D20002A2A2A2A2A2A2A2A2A2A74
:1003D0002A2A2A2A2A2A2A2A2A2A2A2A2A2A00537E
:1003E0006F6674776172652056657273696F6E3AD5
:1003F0002020004E6F742056616C69640056616C59
:10040000696400454550524F4D204F7274686F200B
:10041000004E6F742056616C69640056616C6964AB
:10042000002C20004E6F742056616C696400566188
:100430006C6964002C20004E6F742056616C6964F6
:100440000056616C696400454550524F4D204C691F
:100450006E20004E6F742056616C69640056616CAA
:100460006964002C20004E6F742056616C69640032
:1004700056616C6964002C20004E6F742056616CCC
:1004800069640056616C696400454550524F4D20C7
:1004900043616C20002C20002C20002C20002C20FC
:1004A000002C20002C20004F7274686F676F6E6103
:1004B0006C697A6174696F6E002C20002C200041F9
:1004C000353A2020002C20002C200041343A2020F6
:1004D000002C20002C200041333A2020002C20004A
:1004E0002C200041323A2020002C20002C200041FA
:1004F000313A2020002C20002C200041303A2020CE
:10050000004C696E656172697A6174696F6E004151
:1005100044432053706565643A20200041444320E1
:1005200073616D706C65733A202000414443204232
:100530006974733A20200041444320567265663A3C
:100540002020002C20002C20004872656C3A2020CE
:10055000002C20002C20006D562F567265662F4F00
:10056000653A2020002C20002C20004F652A56726E
:1005700065662F563A2020002C20002C2000566F54
:1005800066663A2020002A43414C49425241544970
:100590004F4E2A2A2A2A2A2A2A2A2A2A2A2A0020A6
:1005A0000053656E736F722049443A2020000000AA
:1005B0000000250028002B000404040404040404A3
:1005C00002020202020203030303030301020408FE
:1005D00010204080010204081020010204081020AD
:1005E00000000008000201000003040700000000F2
:1005F00000000000C73211241FBECFEFD8E0DEBFDD
:10060000CDBF25E0A6E3B3E001C01D92A43CB20734
:10061000E1F713E0A0E0B1E0E6EFFAE702C00590F1
:100620000D92A633B107D9F712E0CBEFD2E004C0A8
:100630002197FE010E94323ACA3FD107C9F70E94B2
:10064000271A0C94793D0C940000CF92DF92EF9220
:10065000FF920F931F93CF93DF936C017A018B016D
:10066000C0E0D0E0CE15DF0589F0D8016D918D0195
:10067000D601ED91FC910190F081E02DC601099524
:10068000892B11F47E0102C02196ECCFC701DF91C6
:10069000CF911F910F91FF90EF90DF90CF90089531
:1006A000FC01538D448D252F30E0842F90E0821B78
:1006B000930B541710F0CF96089501970895FC01FD
:1006C000918D828D981761F0828DDF01A80FB11D89
:1006D0005D968C91928D9F5F9F73928F90E00895AD
:1006E0008FEF9FEF0895FC01918D828D981731F067
:1006F000828DE80FF11D858D90E008958FEF9FEFBB
:100700000895FC01918D228D892F90E0805C9F4F90
:10071000821B91098F739927089587E195E00E94C4
:10072000810321E0892B09F420E0822F0895FC0148
:10073000848DDF01A80FB11DA35ABF4F2C91848D6A
:1007400090E001968F739927848FA689B7892C939F
:10075000A089B1898C9180648C93938D848D98133A
:1007600006C00288F389E02D80818F7D8083089503
:10077000EF92FF920F931F93CF93DF93EC0181E0F1
:10078000888F9B8D8C8D981305C0E889F9898081AD
:1007900085FD24C0F62E0B8D10E00F5F1F4F0F73E9
:1007A0001127E02E8C8DE8120CC00FB607FCFACF93
:1007B000E889F989808185FFF5CFCE010E949703F2
:1007C000F1CF8B8DFE01E80FF11DE35AFF4FF08250
:1007D0000B8FEA89FB898081806207C0EE89FF89DF
:1007E0006083E889F98980818064808381E090E07A
:1007F000DF91CF911F910F91FF90EF900895CF93CC
:10080000DF93EC01888D8823C9F0EA89FB89808118
:1008100085FD05C0A889B9898C9186FD0FC00FB6EA
:1008200007FCF5CF808185FFF2CFA889B9898C912B
:1008300085FFEDCFCE010E949703E7CFDF91CF91E7
:10084000089580E090E0892B29F00E948D038111AA
:100850000C940000089585ED8093BC008091BC004D
:1008600084FDFCCF1092D204089540915004262FAD
:1008700030E0240F311D21323105DCF42091D20407
:100880002430C9F4FC0180E090E0861758F43091E0
:1008900050042191DC01A25DBB4FA30FB11D2C932D
:1008A0000196F3CF80915004680F6093500480E06C
:1008B000089581E0089582E008950895E0918B0401
:1008C00080918A04E81730F4F0E0E457FB4F808110
:1008D00090E008958FEF9FEF089590918B048091A1
:1008E0008A04981750F4E92FF0E0E457FB4F208179
:1008F00030E09F5F90938B0402C02FEF3FEFC90160
:10090000089580918A0490E020918B04821B9109C4
:100910000895CF92DF92EF92FF920F931F93CF93A0
:10092000DF937C01262F972F8A018091D30488239F
:1009300091F0C62FD72F6E01C40ED51ECC15DD0544
:1009400071F06991D701ED91FC910190F081E02D5A
:10095000C7010995F3CF642F822F0E943504C80187
:10096000DF91CF911F910F91FF90EF90DF90CF908B
:100970000895CF93DF931F92CDB7DEB7698320919F
:10098000D3042223D1F02091F604203240F021E05C
:1009900030E0FC013383228380E090E015C0809139
:1009A000D404E82FF0E0EB52FB4F998190838F5FE6
:1009B0008093D4048093F60405C061E0CE010196D3
:1009C0000E94350481E090E00F90DF91CF9108956F
:1009D000089580E090E00895CF92DF92EF92FF9229
:1009E0000F931F93CF93DF936B017C0120E030E0E6
:1009F000A9010E94AB39181624F0F7FAF094F7F821
:100A0000F09420E030E040E85FE3C701B6010E94C7
:100A1000083787FD2CC020E030E040E251E4C701F8
:100A2000B6010E94083787FD25C020E030E048EC81
:100A300052E4C701B6010E94083787FD1EC020E0BE
:100A400030E04AE754E4C701B6010E94083787FD49
:100A500017C001E010E020E030E44CE156E4C701AB
:100A6000B6010E94083787FF00E0E8010BC0C5E02F
:100A7000D0E008C0C4E0D0E005C0C3E0D0E002C0D0
:100A8000C2E0D0E080911A0190911B010E9754F4BE
:100A900020E030E048EC52E4C701B6010E9408377C
:100AA00087FD2297CE01DF91CF911F910F91FF908B
:100AB000EF90DF90CF9008950E94383A1F920F92E6
:100AC0000FB60F9211242F933F934F935F936F9321
:100AD0007F938F939F93AF93BF93EF93FF9387E1A0
:100AE00095E00E949703FF91EF91BF91AF919F9185
:100AF0008F917F916F915F914F913F912F910F90C7
:100B00000FBE0F901F9018951F920F920FB60F9265
:100B100011242F938F939F93EF93FF93E0912705D9
:100B2000F09128058081E0912D05F0912E0582FD40
:100B300012C09081809130058F5F8F7320913105B5
:100B4000821751F0E0913005F0E0E95EFA4F958FA1
:100B50008093300501C08081FF91EF919F918F912B
:100B60002F910F900FBE0F901F9018953FB7F894DC
:100B700080917A0490917B04A0917C04B0917D04D3
:100B800026B5A89B05C02F3F19F00196A11DB11DE8
:100B90003FBFBA2FA92F982F8827820F911DA11D23
:100BA000B11DBC01CD0142E0660F771F881F991F60
:100BB0004A95D1F708958F929F92AF92BF92CF92AC
:100BC000DF92EF92FF926B017C010E94B6054B0110
:100BD0005C01C114D104E104F104F1F00E94B605F6
:100BE000DC01CB0188199909AA09BB09883E934009
:100BF000A105B10570F321E0C21AD108E108F1089E
:100C000088EE880E83E0981EA11CB11CC114D1048B
:100C1000E104F10419F7DDCFFF90EF90DF90CF9062
:100C2000BF90AF909F908F9008954F925F926F9278
:100C30007F928F929F92AF92BF92CF92DF92EF926C
:100C4000FF920E94B6050E940D374B015C01409057
:100C50005E0350905F03609060037090610320E03A
:100C600030E040E85FE4C301B2010E946E379B01AF
:100C7000AC01C501B4010E9497386B017C01209141
:100C80005A0330915B0340915C0350915D030E94D5
:100C9000083787FF1EC020E030E040E85FE3C30173
:100CA000B2010E94973860935E0370935F03809354
:100CB00060039093610320E030E040E85FE40E942D
:100CC0006E379B01AC01C501B4010E9497386B01DE
:100CD0007C01C0925A03D0925B03E0925C03F092D5
:100CE0005D0320916203309163034091640350914E
:100CF0006503C701B6010E9496382DEB37E346E83D
:100D000055E30E946E37FF90EF90DF90CF90BF9039
:100D1000AF909F908F907F906F905F904F900895CD
:100D20001F920F920FB60F9211242F933F938F9320
:100D30009F93AF93BF938091760490917704A09195
:100D40007804B09179043091750423E0230F2D3796
:100D500020F40196A11DB11D05C026E8230F0296BF
:100D6000A11DB11D209375048093760490937704A0
:100D7000A0937804B093790480917A0490917B04D5
:100D8000A0917C04B0917D040196A11DB11D8093BA
:100D90007A0490937B04A0937C04B0937D04BF916C
:100DA000AF919F918F913F912F910F900FBE0F9018
:100DB0001F9018951F920F920FB60F9211242F9328
:100DC0003F934F935F936F937F938F939F93AF93D3
:100DD000BF93EF93FF938091B900887F803609F429
:100DE0009CC068F5883209F45BC090F4803109F446
:100DF00054C038F4882309F4F6C0883009F44DC093
:100E0000F6C0883109F44CC0803209F45DC0EFC0EF
:100E1000803409F468C048F4803309F455C088333D
:100E200009F0E5C08093D004D8C0803509F44FC0E4
:100E3000883509F45DC0883409F0D9C0D6C0883936
:100E400009F4C7C0A8F4883709F467C038F48836B5
:100E500009F463C0803709F460C0C9C0883809F458
:100E6000B8C0803909F45FC0803809F0C0C05BC0E9
:100E7000803B09F486C038F4803A09F466C0883AA9
:100E800009F47FC0B4C0803C09F4A7C0883C09F4D1
:100E9000A4C0883B09F48AC0AAC08091AD0410C0E8
:100EA0009091CF048091CE04981770F5E091CF0413
:100EB00081E08E0F8093CF04F0E0E255FB4F8081FC
:100EC0008093BB0085EC86C08093D0048EC0E091F7
:100ED000CF0481E08E0F8093CF048091BB00F0E0BF
:100EE000E255FB4F80839091CF048091CE046EC079
:100EF000E091CF0481E08E0F8093CF048091BB00FE
:100F0000F0E0E255FB4F80838091D10481116DC0E8
:100F100081E08093AC0484EA61C083E08093D204D2
:100F200010927404CFCF80917404803208F051C0C5
:100F3000E091740481E08E0F809374048091BB0073
:100F4000F0E0EC5AFB4F8083BDCF85EC8093BC0072
:100F50001092D20480917404803230F4E0917404D1
:100F6000F0E0EC5AFB4F10826091740470E0E09165
:100F70005204F091530484E594E0099510927404AE
:100F800036C084E08093D204109251041092500431
:100F9000E0914E04F0914F04099580915004811125
:100FA00005C081E08093500410922E04E09151041A
:100FB00081E08E0F80935104F0E0E25DFB4F808171
:100FC0008093BB009091510480915004981708F4CD
:100FD00079CF85E88093BC000AC085EC8093BC0083
:100FE0001092D20404C01092D0040E942B04FF91EE
:100FF000EF91BF91AF919F918F917F916F915F9191
:101000004F913F912F910F900FBE0F901F90189509
:10101000AF92BF92CF92DF92EF92FF920F931F9306
:10102000CF93DF931F92CDB7DEB75C017B018B01BD
:101030006C0184E0C80ED11CF80161918F01C501DB
:1010400069830E942F386981681719F0C5010E94D1
:101050003738FFEFAF1ABF0AAC14BD0469F7C701F8
:101060000F90DF91CF911F910F91FF90EF90DF9044
:10107000CF90BF90AF900895AF92BF92CF92DF9282
:10108000EF92FF920F931F93CF93DF931F92CDB7F1
:10109000DEB75C017B018B016C0184E0C80ED11CC2
:1010A000F80161918F01C50169830E942F38698120
:1010B000681719F0C5010E943738FFEFAF1ABF0A51
:1010C000AC14BD0469F7C7010F90DF91CF911F9158
:1010D0000F91FF90EF90DF90CF90BF90AF90089569
:1010E000CF92DF92EF92FF920F931F93CF93DF93F4
:1010F000EB017B0124E0E20EF11C8B016C01C61AAE
:10110000D70AC601800F911F0E942F38F8018193E2
:101110008F01EE15FF05A9F7CE01DF91CF911F9149
:101120000F91FF90EF90DF90CF9008952F923F9214
:101130004F925F926F927F928F929F92AF92BF92E7
:10114000CF92DF92EF92FF920F931F93CF93DF9393
:10115000CDB7DEB760970FB6F894DEBF0FBECDBF38
:101160001C01C982DA82EB82FC820D831E832F83ED
:10117000388749875A876B877C8749805A806B807C
:101180007C808D809E80AF80B884C984DA84EB84B3
:10119000FC84209108013091090140910A0150918D
:1011A0000B01C301B2010E946E376D877E878F8766
:1011B000988B20914A0330914B0340914C035091FE
:1011C0004D03C501B4010E946E379B01AC016D85D2
:1011D0007E858F8598890E9497386D877E878F8757
:1011E000988B2091460330914703409148035091DA
:1011F0004903C701B6010E946E379B01AC016D85A2
:101200007E858F8598890E949738F101608371836C
:10121000828393832091420330914303409144039E
:1012200050914503C301B2010E946E376D877E87DE
:101230008F87988B20910401309105014091060120
:1012400050910701C501B4010E946E379B01AC01AA
:101250006D857E858F8598890E9497386D877E87FA
:101260008F87988B20913E0330913F03409140033C
:1012700050914103C701B6010E946E379B01AC013A
:101280006D857E858F8598890E949738F1016483EA
:1012900075838683978320913A0330913B03409175
:1012A0003C0350913D03C301B2010E946E372B01F4
:1012B0003C0120913603309137034091380350911F
:1012C0003903C501B4010E946E379B01AC01C30113
:1012D000B2010E9497384B015C01209100013091CE
:1012E00001014091020150910301C701B6010E9422
:1012F0006E379B01AC01C501B4010E949738F10122
:101300006087718782879387C10160960FB6F894D2
:10131000DEBF0FBECDBFDF91CF911F910F91FF9028
:10132000EF90DF90CF90BF90AF909F908F907F9085
:101330006F905F904F903F902F900895E6ECF3E010
:1013400080E2819393E0E83FF907D9F7E7EFF4E013
:1013500080E2819395E0E731F907D9F70895CF93BB
:10136000DF9381EA95E00E94D514C8E2D0E0CE0177
:101370000E942F388F77219690EE980F9F3510F4AA
:101380000E94A713C834D10591F78FE995E00E9418
:101390004B15DF91CF910C949E09CF93DF9300D032
:1013A00000D0CDB7DEB786E895E00E944B158EE7FA
:1013B00095E00E94D5146091660370916703809157
:1013C00068039091690346E050E00E9459158BE74D
:1013D00095E00E94D51460916A0370916B0380912F
:1013E0006C0390916D0346E050E00E94591588E728
:1013F00095E00E94D51460916E0370916F03809107
:1014000070039091710346E050E00E94C7148BE690
:1014100095E00E94D51460917203709173038091DE
:1014200074039091750346E050E00E94591588E6D8
:1014300095E00E94D51460917603709177038091B6
:1014400078039091790346E050E00E94591585E6B3
:1014500095E00E94D51460917A0370917B0380918E
:101460007C0390917D0346E050E00E94C71487E51D
:1014700095E00E94D514209172033091730340913E
:1014800074035091750360E070E08AE794E40E9471
:10149000033946E050E00E94591584E595E00E942A
:1014A000D5142091760330917703409178035091C1
:1014B000790360E070E08AE794E40E94033946E033
:1014C00050E00E94591581E595E00E94D5142091C5
:1014D0007A0330917B0340917C0350917D0360E05F
:1014E00070E08AE794E40E94033946E050E00E94ED
:1014F000C71489E495E00E94D51460917E04709130
:101500007F04809180049091810446E050E00E9425
:10151000591586E495E00E94D5146091820470917B
:101520008304809184049091850446E050E00E94F9
:10153000591583E495E00E94D5146091860470915A
:101540008704809188049091890446E050E00E94CD
:10155000C71487E395E00E94D51446E050E060E0B0
:1015600070E080E890E40E94C7148BE295E00E944E
:10157000D5146AE070E080911A0190911B010E94DD
:1015800038158CE195E00E94D5146AE070E08091F6
:101590001801909119010E9438158FE095E00E9482
:1015A000D5146AE070E084E090E00E94381581E094
:1015B00095E00E944B158BEF94E00E94D51460914A
:1015C000AE037091AF038091B0039091B10346E0F8
:1015D00050E00E94591588EF94E00E94D514609164
:1015E000960370919703809198039091990346E038
:1015F00050E00E94591585EF94E00E94D514609147
:101600007E0370917F03809180039091810346E077
:1016100050E00E94C7148FEE94E00E94D5146091B0
:10162000B2037091B3038091B4039091B50346E087
:1016300050E00E9459158CEE94E00E94D514609100
:101640009A0370919B0380919C0390919D0346E0C7
:1016500050E00E94591589EE94E00E94D5146091E3
:10166000820370918303809184039091850346E007
:1016700050E00E94C71483EE94E00E94D51460915C
:10168000B6037091B7038091B8039091B90346E017
:1016900050E00E94591580EE94E00E94D5146091AC
:1016A0009E0370919F038091A0039091A10346E057
:1016B00050E00E9459158DED94E00E94D514609180
:1016C000860370918703809188039091890346E097
:1016D00050E00E94C71487ED94E00E94D5146091F9
:1016E000BA037091BB038091BC039091BD0346E0A7
:1016F00050E00E94591584ED94E00E94D514609149
:10170000A2037091A3038091A4039091A50346E0E6
:1017100050E00E94591581ED94E00E94D51460912B
:101720008A0370918B0380918C0390918D0346E026
:1017300050E00E94C7148BEC94E00E94D514609195
:10174000BE037091BF038091C0039091C10346E036
:1017500050E00E94591588EC94E00E94D5146091E5
:10176000A6037091A7038091A8039091A90346E076
:1017700050E00E94591585EC94E00E94D5146091C8
:101780008E0370918F03809190039091910346E0B6
:1017900050E00E94C7148FEB94E00E94D514609132
:1017A000C2037091C3038091C4039091C50346E0C6
:1017B00050E00E9459158CEB94E00E94D514609182
:1017C000AA037091AB038091AC039091AD0346E006
:1017D00050E00E94591589EB94E00E94D514609165
:1017E000920370919303809194039091950346E046
:1017F00050E00E94C71487EA94E00E944B15609164
:1018000008017091090180910A0190910B0146E055
:1018100050E00E94591584EA94E00E94D51460912A
:101820004A0370914B0380914C0390914D0346E025
:1018300050E00E94591581EA94E00E94D51460910D
:10184000460370914703809148039091490346E015
:1018500050E00E94C714609142037091430380914D
:1018600044039091450346E050E00E9459158EE9EB
:1018700094E00E94D514609104017091050180915B
:1018800006019091070146E050E00E9459158BE94E
:1018900094E00E94D51460913E0370913F038091C3
:1018A00040039091410346E050E00E94C7146091CC
:1018B0003A0370913B0380913C0390913D0346E0D5
:1018C00050E00E94591588E994E00E94D514609177
:1018D000360370913703809138039091390346E0C5
:1018E00050E00E94591585E994E00E94D51460915A
:1018F000000170910101809102019091030146E085
:1019000050E00E94C71489E894E00E94D514BE01FB
:101910006F5F7F4F80E090E00E94700820E030E031
:1019200040E85FE369817A818B819C810E9408375E
:10193000811103C083E894E002C089E794E00E942B
:10194000D51486E794E00E94D514BE016F5F7F4FE7
:1019500088E790E00E94700820E030E040E85FE314
:1019600069817A818B819C810E940837811103C033
:1019700080E794E002C086E694E00E94D51483E6F6
:1019800094E00E94D514BE016F5F7F4F80EA90E023
:101990000E94700820E030E040E85FE369817A81CE
:1019A0008B819C810E940837811103C08DE594E0F2
:1019B00002C083E594E00E944B1587E494E00E9406
:1019C000D514BE016F5F7F4F8CE090E00E947008DD
:1019D00020E030E040E85FE369817A818B819C817F
:1019E0000E940837811103C081E494E002C087E3BC
:1019F00094E00E94D51484E394E00E94D514BE01C3
:101A00006F5F7F4F84E890E00E94700820E030E034
:101A100040E85FE369817A818B819C810E9408376D
:101A2000811103C08EE294E002C084E294E00E943F
:101A3000D51481E294E00E94D514BE016F5F7F4F00
:101A40008CEA90E00E94700820E030E040E85FE31C
:101A500069817A818B819C810E940837811103C042
:101A60008BE194E002C081E194E00E944B1583E099
:101A700094E00E94D514BE016F5F7F4F88EC90E028
:101A80000E94700820E030E040E85FE369817A81DD
:101A90008B819C810E940837811103C08DEF93E0F8
:101AA00002C083EF93E00E944B150E94AF098FEDB7
:101AB00093E00E94D51488EE91E00E946F1386ECAB
:101AC00093E00E944B150E949E0968EE73E080E04F
:101AD00090E00E94DB050F900F900F900F90DF9128
:101AE000CF910895CF92DF92EF92FF920F931F93C1
:101AF000CF93DF93F82EE92EEA0141E050E0BE01DA
:101B00000E94B8158FE790E00197F1F781E080938C
:101B1000D304F092F5041092D4041092F60490913C
:101B20008A0480918B04981729F084EB95E00E9439
:101B30006D04F5CF62E070E08F2D9E2D0E943A1665
:101B40008FE090E00197F1F790918A0480918B04E7
:101B5000981759F084EB95E00E946D04182F84EBE0
:101B600095E00E946D04082FEFCF0E945B15B8012D
:101B7000110F880B990B0E940F376B017C01229784
:101B8000CF30D10558F4CC0FDD1FCC0FDD1FC65C64
:101B9000DE4F688179818A819B8104C06FE672E1A2
:101BA00083E099E3E3E2F0E03197F1F720E030E001
:101BB00040E85EE30E946E379B01AC01C701B601AD
:101BC0000E946E37DF91CF911F910F91FF90EF90A0
:101BD000DF90CF9008952F923F924F925F926F9235
:101BE0007F928F929F92AF92BF92CF92DF92EF92AD
:101BF000FF920F931F93CF93DF93CDB7DEB7669716
:101C00000FB6F894DEBF0FBECDBF9E878D870E94B2
:101C1000B605698B7A8B8B8B9C8B00E010E0C12C16
:101C2000D12C760160912C0170912D0180912E01B3
:101C300090912F010E947539AB016CE070E08D85A9
:101C40009E850E94720D20E034E244E759E40E9430
:101C50006E379B01AC01C701B6010E9497386B013A
:101C60007C010F5F1F4F0D371105E1F620E030E0DA
:101C70004AEF52E40E9403394B015C01412C512C84
:101C80003201C12CD12C7601312C212C1D8A1E8AC7
:101C90000E94B605DC01CB0129893A894B895C8910
:101CA000821B930BA40BB50B803F9944A240B10556
:101CB00008F0B8C048E8441643E1540661047104D2
:101CC00009F4B0C0A30192012F5F3F4F4F4F5F4F08
:101CD0002D833E834F835887C301B2010E940F3783
:101CE00069877A878B879C8760912C0170912D0181
:101CF00080912E0190912F010E947539AB016CE00B
:101D000070E08D859E850E94720D2B013C012DECAB
:101D10003CEC4CEC5DE3C501B4010E946E374B0115
:101D20005C0126E636E646E65FE3C301B2010E94A7
:101D30006E3720E034E244E759E40E946E37A50193
:101D400094010E9497384B015C016D817E818F81E7
:101D500098850E940F3769837A838B839C832985BA
:101D60003A854B855C85632D722D8D899E890E94F5
:101D70006E3729813A814B815C810E9403392B01A6
:101D80003C0129813A814B815C81C501B4010E94EB
:101D900003399B01AC01C301B2010E9497388B014A
:101DA0008F87988BA7019601C701B6010E946E37F5
:101DB00029853A854B855C850E946E376B017C01D5
:101DC00098014F855889C501B4010E9496382B01AE
:101DD0003C01232D322D4D895E89C501B4010E943D
:101DE00096389B01AC01C301B2010E946E379B0182
:101DF000AC01C701B6010E94973829813A814B8115
:101E00005C810E9403390E94B6396B017C014D80D0
:101E10005E806F807884302E212E3F853D8B4889EF
:101E20004E8B36CF20E030E0A901C701B6010E94F9
:101E3000083787FD09C020E034E244E759E4C701D0
:101E4000B6010E94033903C060E070E0CB016696E2
:101E50000FB6F894DEBF0FBECDBFDF91CF911F91BB
:101E60000F91FF90EF90DF90CF90BF90AF909F9039
:101E70008F907F906F905F904F903F902F9008953C
:101E80002F923F924F925F926F927F928F929F928A
:101E9000AF92BF92CF92DF92EF92FF920F931F9378
:101EA000CF93DF9300D0CDB7DEB78C017A836983FF
:101EB000CBA0DCA0EDA0FEA08FA098A4A9A4BAA4FA
:101EC0004BA45CA46DA47EA489E490E00E94EB0D79
:101ED000A70196010E946E3720E030E0A9010E9420
:101EE000AB3918164CF489E490E00E94EB0DA70181
:101EF00096010E946E3709C089E490E00E94EB0DC4
:101F0000A70196010E946E379058F8016083718393
:101F1000828393838BE490E00E94EB0DA5019401F2
:101F20000E946E3720E030E0A9010E94AB391816FC
:101F30004CF48BE490E00E94EB0DA50194010E940B
:101F40006E3709C08BE490E00E94EB0DA50194016F
:101F50000E946E379058F801648375838683978357
:101F600088E490E00E94EB0DA30192010E946E377D
:101F700020E030E0A9010E94AB3918164CF488E447
:101F800090E00E94EB0DA30192010E946E3709C000
:101F900088E490E00E94EB0DA30192010E946E374D
:101FA0009058F80160877187828793872224239451
:101FB000312C89819A81281639060CF091C089E468
:101FC00090E00E94EB0DA70196010E946E3720E081
:101FD00030E0A9010E94AB3918164CF489E490E076
:101FE0000E94EB0DA70196010E946E3709C089E49B
:101FF00090E00E94EB0DA70196010E946E37905869
:102000009B01AC01F80160817181828193810E9402
:102010009738F80160837183828393838BE490E027
:102020000E94EB0DA50194010E946E3720E030E084
:10203000A9010E94AB3918164CF48BE490E00E9481
:10204000EB0DA50194010E946E3709C08BE490E06E
:102050000E94EB0DA50194010E946E3790589B01E0
:10206000AC01F80164817581868197810E9497385F
:10207000F801648375838683978388E490E00E94E7
:10208000EB0DA30192010E946E3720E030E0A90120
:102090000E94AB3918164CF488E490E00E94EB0DD6
:1020A000A30192010E946E3709C088E490E00E946B
:1020B000EB0DA30192010E946E3790589B01AC0179
:1020C000F80160857185828593850E949738F801B3
:1020D0006087718782879387FFEF2F1A3F0A69CF46
:1020E000BC011816190614F061E070E0613071054A
:1020F00081F1072E000C880B990B0E940F376B01A2
:102100007C019B01AC01F801608171818281938126
:102110000E940339F8016083718382839383A7014E
:10212000960164817581868197810E940339F80147
:102130006483758386839783A70196016085718583
:10214000828593850E940339F801608771878287B1
:102150009387C8010F900F90DF91CF911F910F913E
:10216000FF90EF90DF90CF90BF90AF909F908F90B7
:102170007F906F905F904F903F902F9008954F9277
:102180005F926F927F928F929F92AF92BF92CF9207
:10219000DF92EF92FF92CF93DF93CDB7DEB76B0163
:1021A0007C012D893E894F89588D0E946E3729897F
:1021B0003A894B895C890E9497382B013C01A70121
:1021C0009601C701B6010E946E374B015C01298D53
:1021D0003A8D4B8D5C8D0E946E379B01AC01C30123
:1021E000B2010E9497382B013C01A7019601C5015D
:1021F000B4010E946E374B015C012D8D3E8D4F8DD9
:1022000058A10E946E379B01AC01C301B2010E942C
:1022100097382B013C01A7019601C501B4010E942A
:102220006E374B015C0129A13AA14BA15CA10E9430
:102230006E379B01AC01C301B2010E9497382B019C
:102240003C01A7019601C501B4010E946E372DA182
:102250003EA14FA158A50E946E379B01AC01C3015E
:10226000B2010E9497386B017C0120E030E040EA27
:102270005FE30E94AB3918168CF020E030E040EAB2
:102280005FEBC701B6010E94083787FF0DC0C12C64
:10229000D12C90EAE92E9FEBF92E06C0C12CD12C4F
:1022A00080EAE82E8FE3F82EC701B601DF91CF91C7
:1022B000FF90EF90DF90CF90BF90AF909F908F9066
:1022C0007F906F905F904F9008952F923F924F9222
:1022D0005F926F927F928F929F92AF92BF92CF92B6
:1022E000DF92EF92FF920F931F93CF93DF93CDB7BF
:1022F000DEB72C970FB6F894DEBF0FBECDBF1C0122
:10230000C982DA82EB82FC820D831E832F83388799
:1023100049875A876B877C87409010015090110144
:102320006090120170901301C0900C01D0900D01CB
:10233000E0900E01F0900F010EE413E029813A8144
:102340004B815C81C301B2010E946E374B015C017D
:10235000F8012081318142815381C701B6010E9479
:102360006E379B01AC01C501B4010E949738F8019A
:1023700060837183828393832D813E814F81588551
:10238000C301B2010E946E374B015C01F801248148
:10239000358146815781C701B6010E946E379B0186
:1023A000AC01C501B4010E949738F80164837583BC
:1023B0008683978329853A854B855C85C301B20165
:1023C0000E946E372B013C01F80120853185428542
:1023D0005385C701B6010E946E379B01AC01C30152
:1023E000B2010E949738F8016087718782879387CE
:1023F0008CE0D10101900D928A95E1F7C1012C96F4
:102400000FB6F894DEBF0FBECDBFDF91CF911F9105
:102410000F91FF90EF90DF90CF90BF90AF909F9083
:102420008F907F906F905F904F903F902F90089586
:102430004F925F926F927F92AF92BF92CF92DF9254
:10244000EF92FF920F931F93CF93DF93CDB7DEB739
:10245000EA970FB6F894DEBF0FBECDBF6BAB7CAB77
:102460008DAB9EAB29013A01EFAAF8AE09AF1AAFC6
:1024700019821AAACE0101967C01CA94CD28B1F521
:10248000AA94AB2861F40E9415066EA77FA788ABBB
:1024900099ABBE01625D7F4FC7010E94453A8BA98F
:1024A0009CA9ADA9BEA98EA79FA7A8ABB9ABBE0139
:1024B000625D7F4FC7010E94453A4EA65FA668AA9B
:1024C00079AABE01625D7F4FC7010E94453A8FA97C
:1024D00098ADA9ADBAAD8EA79FA7A8ABB9ABBE0109
:1024E000625D7F4FC7010E94453A5DC0AA94AB2848
:1024F00061F40E941506870123E040E00E9400334A
:1025000068E273E0C7010E94453AF701019000209C
:10251000E9F731978F010E191F096BA97CA98DA9C5
:102520009EA90E94EC040E0D1F1D282F40E06BA9F0
:102530007CA98DA99EA90E94003368E273E0C701BF
:102540000E94453AF70101900020E9F731978F0189
:102550000E191F09C301B2010E94EC040E0D1F1DCC
:10256000282F40E0C301B2010E94003368E273E00B
:10257000C7010E94453AF70101900020E9F7319721
:102580008F010E191F096FA978AD89AD9AAD0E9410
:10259000EC040E0D1F1D282F40E06FA978AD89AD0A
:1025A0009AAD0E940033C7010E946F13EA960FB6DE
:1025B000F894DEBF0FBECDBFDF91CF911F910F9179
:1025C000FF90EF90DF90CF90BF90AF907F906F9093
:1025D0005F904F900895CF92DF92EF92FF926B0140
:1025E0007C01E0912705F091280582E08083C114E9
:1025F00081EED806E104F104B1F060E079E08DE30A
:1026000090E0A70196010E94103ADA01C9010197F2
:10261000A109B109B695A795979587959C012115B4
:1026200080E13807B8F0E0912705F0912805108285
:1026300060E874E88EE190E0A70196010E94103AEC
:10264000DA01C9010197A109B109B695A795979536
:1026500087959C01E0912305F09124053083E0915A
:102660002505F0912605208310922F05E0912B057A
:10267000F0912C0586E08083E0912905F0912A05F0
:10268000808180618083E0912905F0912A05808115
:1026900088608083E0912905F0912A058081806817
:1026A0008083E0912905F0912A0580818F7D8083C8
:1026B000FF90EF90DF90CF900895009769F0FC01B4
:1026C00001900020E9F73197AF01481B590BBC017D
:1026D00087E195E00C94250380E090E00895CF9386
:1026E000DF930E945D13EC0182E093E00E945D1392
:1026F0008C0F9D1FDF91CF910895E7EFF4E08EE2FC
:1027000090819C3209F48083319695E0EB30F90793
:10271000B9F7089587E195E00E94FF03E7E1F5E04E
:10272000A289B3898C918F7E8C93A289B3898C9175
:10273000877F8C93A289B3898C918F778C93A289A0
:10274000B3898C918F7D8C93828D818F0895E091D8
:102750001705F09118050190F081E02D682F87E1B1
:1027600095E009948F929F92AF92BF920F931F931F
:10277000CF93DF93CDB7DEB7A1970FB6F894DEBF46
:102780000FBECDBF19A2423008F44AE08E010F5DA2
:102790001F4F842E912CA12CB12CA50194010E94D5
:1027A000103AE62FB901CA0101501109EA3014F4B8
:1027B000E05D01C0E95CD801EC93232B242B252B91
:1027C00061F7C8010E945D13A1960FB6F894DEBFB1
:1027D0000FBECDBFDF91CF911F910F91BF90AF90F2
:1027E0009F908F9008954F925F926F927F928F92F9
:1027F0009F92AF92BF92CF92DF92EF92FF926B01C6
:102800007C01B42E9B01AC010E94F639882319F09B
:102810008AE293E027C026013701E89477F82FEF8A
:102820003FEF4FE75FE7C301B2010E94F639811124
:102830000DC02FEF3FEF4FE75FE7C301B2010E94EA
:10284000083718161CF48EE293E00CC02FEF3FEF10
:102850004FE75FE4C701B6010E94AB39181684F454
:1028600082E393E0FF90EF90DF90CF90BF90AF9026
:102870009F908F907F906F905F904F900C945D131E
:102880002FEF3FEF4FE75FECC701B6010E9408371B
:1028900087FDE6CF20E030E0A901C701B6010E9424
:1028A000083787FF09C08DE20E94A7134C01F7FA91
:1028B000F094F7F8F09402C0812C912CA12C60E0E8
:1028C00070E080E09FE3AB1441F020E030E040E2B4
:1028D00051E40E940339A394F6CF9B01AC01C701D8
:1028E000B6010E9497382B013C010E947C396B0194
:1028F0007C010E940D379B01AC01C301B2010E9413
:1029000096382B013C014AE0C701B6010E94B21380
:102910007C01E80CF91CBB2029F08EE20E94A71371
:10292000E80EF91EDB2CDD2021F120E030E040E252
:1029300051E4C301B2010E946E372B013C010E9499
:102940007C394B01A12CB12C4AE0C501B4010E9495
:10295000B213E80EF91EC501B4010E940D379B01A8
:10296000AC01C301B2010E9496382B013C01DA94FC
:10297000DACFC701FF90EF90DF90CF90BF90AF907C
:102980009F908F907F906F905F904F900895CF931E
:10299000DF930E94F313EC0182E093E00E945D1349
:1029A0008C0F9D1FDF91CF9108950F931F93CF93AD
:1029B000DF938C01C0E0D0E0F801EC0FFD1F6491C3
:1029C000662371F0E0911705F09118050190F081F0
:1029D000E02D87E195E00995892B11F02196ECCF48
:1029E000CE01DF91CF911F910F910895CF92DF9289
:1029F000EF92FF92CF93DF936B017C01411551055C
:102A000081F4E0911705F09118050190F081E02D17
:102A100087E195E0DF91CF91FF90EF90DF90CF902D
:102A200009944A305105D1F497FF17C08DE20E94F6
:102A3000A713EC0166277727CB016C197D098E0956
:102A40009F094AE00E94B2138C0F9D1FDF91CF9126
:102A5000FF90EF90DF90CF9008954AE0C701B60154
:102A6000DF91CF91FF90EF90DF90CF900C94B21355
:102A7000CF93DF93AB01BC01990F880B990B0E9498
:102A8000F614EC0182E093E00E945D138C0F9D1F11
:102A9000DF91CF910895CF93DF930E94D514EC017D
:102AA00082E093E00E945D138C0F9D1FDF91CF9118
:102AB00008950C94F3132091F6049091F5042132BB
:102AC00008F04AC08091D2048111FCCF32E03093EB
:102AD000D20431E03093D1043FEF3093D004109210
:102AE000CF042093CE04A5EDB4E04EEA54E0FA0101
:102AF0003E2F341B321718F43D913193F9CF1092C9
:102B0000AD042091AD04990F922B9093AD04909158
:102B1000AC04913061F41092AC049091AD049093A8
:102B2000BB009091BC0093FDF8CF95EC01C095EEF1
:102B30009093BC009091D2049230E1F39091D00434
:102B40009F3F79F08091D004803241F08091D00491
:102B5000803331F084E005C081E003C082E001C031
:102B600083E01092D4041092F6041092D3040895D6
:102B7000CF93DF93625071096F30710528F4FB0128
:102B8000EB54FE4FC08101C0C2E04130510509F451
:102B9000C068D1E0D093D3048093F5041092D4049C
:102BA0001092F60461E084EB95E00E94B9046C2F6A
:102BB00084EB95E00E94B90463EE84EB95E00E94FB
:102BC000B9040E945B15D093D3041092D4041092E0
:102BD000F60460E084EB95E00E94B904DF91CF91A8
:102BE0000C945B1590E0FC01E052FA4F2491FC013B
:102BF000E453FA4F3491FC01E854FA4FE491EE2388
:102C0000B1F1222339F1233091F038F42130A9F0C9
:102C1000223001F584B58F7D12C0273091F0283025
:102C2000A1F02430B9F4809180008F7D03C08091A1
:102C300080008F77809380000DC084B58F7784BD2E
:102C400009C08091B0008F7703C08091B0008F7D64
:102C50008093B000F0E0EE0FFF1FE255FA4FA59110
:102C6000B4918FB7F894EC913E2B3C938FBF0895AD
:102C70000C945D139091D2049111FCCF613208F055
:102C800060E291E09093D2049093D1042FEF2093CF
:102C9000D0041092CF04260F2093CE049093AD045D
:102CA0009091AD04880F892B8093AD048091AC0482
:102CB000813061F41092AC048091AD048093BB002C
:102CC0008091BC0083FDF8CF85EC01C085EE809338
:102CD000BC008091D2048130E1F38091CF0486174B
:102CE00010F46091CF04AEEAB4E02CE834E0F901CE
:102CF0008E2F821B861718F48D918193F9CF109235
:102D00008B0460938A04862F08952F923F924F92EE
:102D10005F926F927F928F929F92AF92BF92CF926B
:102D2000DF92EF92FF920F931F93CF93DF93CDB774
:102D3000DEB7AA970FB6F894DEBF0FBECDBF9AA735
:102D400089A779A368A35B8B4A8B072E000C880B9D
:102D5000990B0E940F379B01AC0160E070E080E8A6
:102D60009FE30E9403396C8B7D8B8E8B9F8BA9A573
:102D7000BAA51D921D921D921C921397FD011482FB
:102D800015821682178218961D921D921D921C9212
:102D90001B97198E188EEA89FB893D97FBA3EAA33E
:102DA000CF01880F991F880F991F9C0123563E4F12
:102DB0003DA32CA3DC01AB57BE4FBFA3AEA3888DB0
:102DC000998DA8A1B9A18A179B070CF0BAC1EAA1F5
:102DD000FBA13697B8F4ACA1BDA18D919D910D904A
:102DE000BC91A02D8C8F9D8FAE8FBF8FAEA1BFA148
:102DF0008D919D910D90BC91A02D8E879F87A88B62
:102E0000B98B0CC080E090E0A0E8BFE38E879F877D
:102E1000A88BB98B8C8F9D8FAE8FBF8F1E821F8228
:102E2000188619861A861B861C861D861A821B82A6
:102E30001C821D821B8E1A8EEA8DFB8DBF01FF0F37
:102E4000880B990B0E940F372C8D3D8D4E8D5F8D19
:102E50000E94083787FF02C160912C0170912D01FB
:102E600080912E0190912F010E9475392B013C0118
:102E70000091C0051091C1059801215031092530FC
:102E80003105B0F4F901E058FE4F8081082E000CA6
:102E9000990BF901E558FE4FA0800A2C000CBB08E5
:102EA000F901EA58FE4F8080082C000C990808C0F0
:102EB00088E4882E912C9BE4A92EB12C89E490E023
:102EC000A2016A897B890E94720D6B01E82E292F6D
:102ED000A2016A897B89C50128A70E94720D1B0186
:102EE0005C01A2016A897B89C4010E94720D28A538
:102EF0000330110549F174F401301105C9F00230B5
:102F00001105B9F5662E79838C017C2C8D2C9E2CB5
:102F1000F22E16C00430110501F10530110549F5F6
:102F2000622C398285017C2C8D2C9E2CF22E1DC0AA
:102F30006C2CD9820E2D122F762E872E982EF92EDC
:102F40006101EA2CEB2D1DC06C2CD9820E2D122FA5
:102F5000722C832C9A2CFB2C08C0622C39828501A0
:102F6000762E872E982EF92E0BC06B01E82EE92FB6
:102F700008C0662E79838C01722C832C9A2CFB2C32
:102F8000E22F209128013091290140912A0150918E
:102F90002B01B6018E2D9E2F0E946E371B012C0136
:102FA0002091240130912501409126015091270163
:102FB000672D782D892D9F2D0E946E374B015C0166
:102FC0002091200130912101409122015091230153
:102FD000662D7981C8010E946E376B017C0180915A
:102FE000C0059091C1050196863091052CF490930F
:102FF000C1058093C00504C01092C1051092C005A0
:10300000A20191016A817B818C819D810E94973808
:103010003B018C01A50194016A857B858C859D858A
:103020000E9497385B014C01A70196016E817F8158
:10303000888599850E949738AA8DBB8D1196BB8F84
:10304000AA8F6A827B820C831D83AA86BB868C86AC
:103050009D866E837F8388879987EECE20E030E05F
:1030600040E85FE36C8D7D8D8E8D9F8D0E94AB3926
:10307000181654F52E853F85488959896A817B81C8
:103080008C819D810E946E376A837B838C839D83B4
:103090002E853F85488959896A857B858C859D85E4
:1030A0000E946E376A877B878C879D872E853F8538
:1030B000488959896E817F81888599850E946E37FC
:1030C0006E837F83888799872A813B814C815D81CC
:1030D000A9A5BAA56D917D918D919C910E9497387B
:1030E000E9A5FAA560837183828393832A853B8552
:1030F0004C855D8564817581868197810E949738B2
:10310000A9A5BAA514966D937D938D939C9317975B
:103110002E813F814885598518966D917D918D91BD
:103120009C911B970E949738E9A5FAA56087718743
:1031300082879387288D398D2F5F3F4F398F288F56
:103140003ECE2C893D894E895F89E9A5FAA560812B
:103150007181828193810E946E37A9A5BAA56D9372
:103160007D938D939C9313972C893D894E895F891C
:1031700014966D917D918D919C9117970E946E3759
:10318000E9A5FAA564837583868397832C893D8995
:103190004E895F8960857185828593850E946E372F
:1031A000A9A5BAA518966D937D938D939C931B97B3
:1031B000CD01AA960FB6F894DEBF0FBECDBFDF914A
:1031C000CF911F910F91FF90EF90DF90CF90BF9024
:1031D000AF909F908F907F906F905F904F903F90B7
:1031E0002F9008954F925F926F927F928F929F924D
:1031F000AF92BF92CF92DF92EF92FF920F931F9305
:10320000CF93DF93CDB7DEB764970FB6F894DEBFE8
:103210000FBECDBF8C01E396CCACDDACEEACFFAC09
:10322000E397E7964CAC5DAC6EAC7FACE797EB9662
:103230008CAD9DADAEADBFADEB978D879E87AF8753
:10324000B88BCE0101960E94851669817A818B81A7
:103250009C818D809E80AF80B88429853A854B857E
:103260005C85298B3A8B4B8B5C8B20911E013091B6
:103270001F012130310509F067C0A70196010E94A6
:1032800096384DB75EB7485151090FB6F8945EBFF6
:103290000FBE4DBFADB7BEB7119628E1FE01B79680
:1032A00001900D922A95E1F70E94BF100FB6F89495
:1032B000DEBF0FBECDBF6B017C01A3019201C50132
:1032C000B4010E949638EDB7FEB778970FB6F89420
:1032D000FEBF0FBEEDBFADB7BEB7119628E1FE0130
:1032E000FF9601900D922A95E1F70E94BF100FB64C
:1032F000F894DEBF0FBECDBF4B015C012D853E852E
:103300004F85588969897A898B899C890E9496386A
:103310004DB75EB7485151090FB6F8945EBF0FBE66
:103320004DBFADB7BEB7119628E1FE01E95AFF4F78
:1033300001900D922A95E1F70E94BF100FB6F89404
:10334000DEBF0FBECDBF18C0A70196010E94963800
:103350006B017C01A3019201C501B4010E94963862
:103360004B015C012D853E854F85588969897A8995
:103370008B899C890E9496382B013C01EF962CADDD
:103380003DAD4EAD5FADEF97C701B6010E946E3700
:1033900020917E0430917F044091800450918104FB
:1033A0000E949638F8016083718382839383C158A9
:1033B000DF4F288139814A815B81CF57D040C501D9
:1033C000B4010E946E3720918204309183044091B1
:1033D0008404509185040E949638D80114966D9308
:1033E0007D938D939C931797CD57DF4F288139811B
:1033F0004A815B81C358D040C301B2010E946E373D
:10340000209186043091870440918804509189046A
:103410000E949638F8016087718782879387C80178
:1034200064960FB6F894DEBF0FBECDBFDF91CF918B
:103430001F910F91FF90EF90DF90CF90BF90AF90D2
:103440009F908F907F906F905F904F900895CF9353
:10345000DF93CDB7DEB7CA55D1090FB6F894DEBFFA
:103460000FBECDBF789484B5826084BD84B5816081
:1034700084BD85B5826085BD85B5816085BD80913F
:103480006E00816080936E001092810080918100B7
:1034900082608093810080918100816080938100AF
:1034A000809180008160809380008091B100846071
:1034B0008093B1008091B00081608093B0008091D2
:1034C0007A00846080937A0080917A008260809391
:1034D0007A0080917A00816080937A0080917A00EE
:1034E000806880937A001092C10060E072EC81E005
:1034F00090E00E94EB1264E170E080E090E00E94B6
:10350000DB0588EE91E00E946F1310926603109223
:103510006703109268031092690310926A03109275
:103520006B0310926C0310926D0310926E03109255
:103530006F03109270031092710380E090E0A8EC8A
:10354000B2E48093720390937303A0937403B093D7
:1035500075038093760390937703A0937803B093D9
:10356000790380937A0390937B03A0937C03B093B9
:103570007D0380E092E00E94381643E050E060E076
:1035800070E080E890E40E94591587E092E00E9484
:103590006F13BE01635D7F4F80E090E00E94700872
:1035A00020E030E040E85FE36DA57EA58FA598A9F7
:1035B0000E94083781110FC066E673E084E090E056
:1035C0000E94700862E773E088E090E00E94700853
:1035D0008AE092E002C086E192E00E946F13BE0191
:1035E000635D7F4F88E790E00E94700820E030E044
:1035F00040E85FE36DA57EA58FA598A90E940837D6
:1036000081110CC06AE673E08CE790E00E947008BC
:1036100066E773E080E890E00E947008BE01635D99
:103620007F4F80EA90E00E94700820E030E040E8A0
:103630005FE36DA57EA58FA598A90E94083781112B
:103640000CC06EE673E084EA90E00E9470086AE7BE
:1036500073E088EA90E00E9470081092AE03109226
:10366000AF031092B0031092B10380E090E0A0E8A5
:10367000BFE38093B2039093B303A093B403B093DA
:10368000B5031092B6031092B7031092B8031092CC
:10369000B9031092BA031092BB031092BC031092AC
:1036A000BD031092BE031092BF031092C00310928C
:1036B000C1031092C2031092C3031092C40310926C
:1036C000C5031092960310929703109298031092DC
:1036D000990380939A0390939B03A0939C03B093C8
:1036E0009D0310929E0310929F031092A0031092CC
:1036F000A1031092A2031092A3031092A4031092AC
:10370000A5031092A6031092A7031092A80310928B
:10371000A9031092AA031092AB031092AC0310926B
:10372000AD0310927E0310927F03109280031092DB
:1037300081038093820390938303A0938403B093C7
:1037400085031092860310928703109288031092CB
:10375000890310928A0310928B0310928C031092AB
:103760008D0310928E0310928F031092900310928B
:10377000910310929203109293031092940310926B
:103780009503BE01635D7F4F8CE090E00E9470085E
:10379000CDA4DEA4EFA4F8A8C701B6010E94753934
:1037A0008B0120E030E040E85FE3C701B6010E94F2
:1037B0000837811127C06EEA73E080E190E00E9433
:1037C000700862EB73E084E190E00E94700866EBA1
:1037D00073E088E190E00E9470086AEB73E08CE18E
:1037E00090E00E9470086EEB73E080E290E00E942F
:1037F000700862EC73E084E290E00E94700883E25B
:1038000092E002C08FE292E00E946F13BE01635DFE
:103810007F4F84E890E00E94700820E030E040E8AC
:103820005FE36DA57EA58FA598A90E940837811139
:1038300025C066E973E088E890E00E9470086AE9B4
:1038400073E08CE890E00E9470086EE973E080E914
:1038500090E00E94700862EA73E084E990E00E94C0
:10386000700866EA73E088E990E00E9470086AEAEE
:1038700073E08CE990E00E9470080CC001301105E3
:1038800049F488E1EEEAF3E0A6E9B3E001900D9295
:103890008A95E1F7BE01635D7F4F8CEA90E00E945C
:1038A000700820E030E040E85FE36DA57EA58FA5BD
:1038B00098A90E940837811125C06EE773E080EB5C
:1038C00090E00E94700862E873E084EB90E00E9450
:1038D000700866E873E088EB90E00E9470086AE880
:1038E00073E08CEB90E00E9470086EE873E080EC6F
:1038F00090E00E94700862E973E084EC90E00E941E
:1039000070080CC00130110549F488E1EEEAF3E0DB
:10391000AEE7B3E001900D928A95E1F7BE01635DD9
:103920007F4F88EC90E00E94700820E030E040E893
:103930005FE36DA57EA58FA598A90E940837811128
:1039400041C081E090E0909309048093080468E00E
:1039500071E08CEC90E00E9470086AE473E080ED06
:1039600090E00E94700866E473E084ED90E00E94AD
:10397000700862E473E088ED90E00E94700864E0F3
:1039800071E08CED90E00E9470086EE373E080EED1
:1039900090E00E9470086AE373E084EE90E00E9479
:1039A000700866E373E088EE90E00E94700860E0C3
:1039B00071E08CEE90E00E9470088CE392E00E942F
:1039C0006F1308C08AE492E00E946F1310920904FA
:1039D00010920804BE016F5D7F4F80EF90E00E945F
:1039E0007008BE016B5E7F4F84EF90E00E9470080C
:1039F000BE016F5F7F4F88EF90E00E94700889A042
:103A00009AA0ABA0BCA0CD88DE88EF88F88C298175
:103A10003A814B815C8163962CAF3DAF4EAF5FAF77
:103A20006397A5019401C501B4010E946E372B0173
:103A30003C01A7019601C701B6010E946E379B01A8
:103A4000AC01C301B2010E9497382B013C0163967F
:103A50002CAD3DAD4EAD5FAD6397CA01B9010E947B
:103A60006E379B01AC01C301B2010E9497380E94DE
:103A70007539072E000C880B990B0E940F3720E038
:103A800030E040E450E40E940837811142C0809247
:103A9000280190922901A0922A01B0922B01C09294
:103AA0002401D0922501E0922601F092270163962D
:103AB0008CAD9DADAEADBFAD63978093200190936B
:103AC0002101A0932201B093230189E592E00E9495
:103AD000381669A17AA18BA19CA142E050E00E9416
:103AE00059158BE592E00E9438166D897E898F8981
:103AF000988D42E050E00E9459158BE592E00E94BB
:103B0000381669817A818B819C8142E050E00E9465
:103B1000C71410928B0410928A041092D40410924D
:103B2000F6041092D20481E08093D1041092AC0488
:103B300082E10E94F21583E10E94F2158091B900A2
:103B40008E7F8093B9008091B9008D7F8093B900FA
:103B500088E48093B80085E48093BC006AE070E05C
:103B600080E090E00E94DB058CE08093B8006AE082
:103B700070E080E090E00E94DB0560912C01709184
:103B80002D0180912E0190912F010E94753940E006
:103B900050E089E490E00E94B81560912C0170918A
:103BA0002D0180912E0190912F010E94753940E0E6
:103BB00050E08BE490E00E94B81560912C01709168
:103BC0002D0180912E0190912F010E94753940E0C6
:103BD00050E088E490E00E94B81566EC262E63E081
:103BE000362EDE01DD962D96BFAFAEAF2D97FE01CE
:103BF000F9962F96FFAFEEAF2F9787E195E00E94E1
:103C0000810390932D0480932C041816190614F048
:103C10000C94172E64E670E080E090E00E94DB05D3
:103C200087E195E00E9481037C0190932D048093AD
:103C30002C0406EC13E0C801865C93408E159F05AA
:103C400054F487E195E00E945F030E943D3AD80159
:103C50008D938D01F0CF8091C6038F3409F077C02A
:103C60008091C703813409F072C040911A015091CC
:103C70001B0164E670E0CE0101960E94851620E0EB
:103C800030E543EC57E469817A818B819C810E9405
:103C90006E370E947539072E000C880B990B0E9415
:103CA0000F372CEA35EC47E257E30E946E376093FA
:103CB000660370936703809368039093690320E021
:103CC00030E543EC57E46D817E818F8198850E94B9
:103CD0006E370E947539072E000C880B990B0E94D5
:103CE0000F372CEA35EC47E257E30E946E376093BA
:103CF0006A0370936B0380936C0390936D0320E0D1
:103D000030E543EC57E469857A858B859C850E9474
:103D10006E370E947539072E000C880B990B0E9494
:103D20000F372CEA35EC47E257E30E946E37609379
:103D30006E0370936F03809370039093710360ED33
:103D400077E080E090E00E94DB050E949E09809170
:103D5000C6038F3409F091C08091C7038D3409F0F8
:103D60008CC0E1E0F0E0EC0FFD1FFF93EF930DE559
:103D700012E01F930F933F922F920E94503A898135
:103D800088550F900F900F900F900F900F90A7EF06
:103D9000B4E0833008F043C0BF93AF9321E030E03C
:103DA0002C0F3D1F3F932F9383E692E09F938F93B9
:103DB0003F922F920E94503A0E947D130FB6F894C2
:103DC000DEBF0FBECDBF8981893579F08A35D1F04C
:103DD00087EF94E00E94203360936603709367033B
:103DE000809368039093690346C087EF94E00E9434
:103DF000203360936A0370936B0380936C039093FA
:103E00006D0339C087EF94E00E94203360936E0306
:103E100070936F0380937003909371032CC0BF93D2
:103E2000AF931F930F933F922F920E94503A0E949C
:103E30007D1387EF94E00E942033609366037093B4
:103E4000670380936803909369038DEC91E00E946F
:103E5000D514609166037091670380916803909117
:103E6000690346E050E00E94C7140F900F900F9036
:103E70000F900F900F900E949E098091C6038F347F
:103E800009F095C08091C703873509F090C021E003
:103E900030E02C0F3D1F3F932F930CE612E01F9351
:103EA0000F933F922F920E94503A898188550F902C
:103EB0000F900F900F900F900F90A7EFB4E083300A
:103EC00008F048C0BF93AF9321E030E02C0F3D1FB6
:103ED0003F932F9382E792E09F938F933F922F928D
:103EE0000E94503A0E947D130FB6F894DEBF0FBEB9
:103EF000CDBF8981893581F08A35F1F087EF94E073
:103F00000E94203369AF7AAF8BAF9CAFBE01675C74
:103F10007F4F84E090E00DC087EF94E00E94203353
:103F200069AF7AAF8BAF9CAFBE01675C7F4F8CE708
:103F300090E00E943C0839C087EF94E00E94203353
:103F400069AF7AAF8BAF9CAFBE01675C7F4F84EAED
:103F500090E0EFCFBF93AF931F930F933F922F92B9
:103F60000E94503A0E947D1387EF94E00E94203314
:103F700069AF7AAF8BAF9CAFBE01675C7F4F84E0C7
:103F800090E00E943C0886ED91E00E94D51487EFF6
:103F900094E00E94203346E050E00E94C7140F9046
:103FA0000F900F900F900F900F900E949E0980919C
:103FB000C6038F3409F04BC08091C703823509F0E6
:103FC00046C02F96FFAD2F97FF932E962FAD2E97BD
:103FD0002F938BE792E09F938F933F922F920E94B3
:103FE000503A8FEE91E00E94D5140F900F900F90F1
:103FF0000F900F900F9089AD893549F08A3571F097
:104000008DEE91E00E94D51484E090E00DC08BEE1F
:1040100091E00E94D5148CE790E006C089EE91E013
:104020000E94D51484EA90E0BE016F5F7F4F0E942A
:10403000700886EE91E00E94D51469817A818B81A7
:104040009C8146E050E00E94C7140E949E09809126
:10405000C6038F34A1F58091C703863581F541E011
:1040600050E04C0F5D1F5F934F9381E892E09F9368
:104070008F933F922F920E94503A0F900F900F9083
:104080000F900F900F9089819A818130910539F4BA
:10409000909309048093080488E092E006C010928F
:1040A00009041092080489EF91E00E944B1560ED1D
:1040B00077E080E090E00E94DB050E949E098091FD
:1040C000C603833509F0BDC08091C7038D3409F064
:1040D000B8C081E090E08C0F9D1F9F938F9307E8FD
:1040E00012E01F930F933F922F920E94503A8981C2
:1040F00088550F900F900F900F900F900F90A7EF93
:10410000B4E0833008F05BC0BF93AF9321E030E0B0
:104110002C0F3D1F3F932F938DE892E09F938F9339
:104120003F922F920E94503A0E947D130FB6F8944E
:10413000DEBF0FBECDBF89818935B9F08A3551F117
:1041400087EF94E00E9420339B01AC0160E070E0B7
:104150008AE794E40E9403396093720370937303B7
:1041600080937403909375036AC087EF94E00E9474
:1041700020339B01AC0160E070E08AE794E40E9488
:104180000339609376037093770380937803909359
:10419000790355C087EF94E00E9420339B01AC0166
:1041A00060E070E08AE794E40E94033960937A0348
:1041B00070937B0380937C0390937D0340C0BF93F7
:1041C000AF931F930F933F922F920E94503A0E94F9
:1041D0007D1387EF94E00E9420336B017C0182E223
:1041E00092E00E94D51446E050E0C701B6010E945B
:1041F000C714A701960160E070E08AE794E40E948A
:1042000003396093720370937303809374039093E4
:10421000750386E192E00E94D5146091720370915B
:104220007303809174039091750346E050E00E94FF
:10423000C7140F900F900F900F900F900F900E9447
:104240009E098091C603833549F58091C703833564
:1042500029F508E210E0D801AF55BC4FFE01F996F0
:104260008D9181932D962EAD3FAD2D97E217F307DB
:10427000B9F789AD89838AAD8A838BAD8B838CAD89
:104280008C83BE016F5F7F4FC8010E9408080C5FDE
:104290001F4F08341105F9F60E949E098091C6034C
:1042A000833509F06FC08091C703873509F06AC074
:1042B00041E050E04C0F5D1F5F934F9306E912E021
:1042C0001F930F933F922F920E94503A89818855F5
:1042D0000F900F900F900F900F900F90A7EFB4E0FA
:1042E000833030F5BF93AF9321E030E02C0F3D1FBA
:1042F0003F932F938CE992E09F938F933F922F925D
:104300000E94503A0E947D1387EF94E00E94203370
:104310000FB6F894DEBF0FBECDBF2981293529F035
:104320002A35D1F408EA10E019C000E810E016C000
:10433000BF93AF931F930F933F922F920E94503AD7
:104340000E947D1387EF94E00E9420330F900F901E
:104350000F900F900F900F9008E010E09B01AC01C0
:1043600060E070E08AE794E40E94033969AF7AAFB5
:104370008BAF9CAFBE01675C7F4FC8010E943C08B9
:104380000E949E098091C603833509F056C0809132
:10439000C703823509F051C08EE392E00E944B15AD
:1043A000BE016F5F7F4F88E090E00E94700888E355
:1043B00092E00E94D51429813A814B815C8160E0B2
:1043C00070E08AE794E40E94033942E050E00E94E2
:1043D000C714BE016F5F7F4F80E890E00E947008B5
:1043E00082E392E00E94D51429813A814B815C815D
:1043F00060E070E08AE794E40E94033942E050E014
:104400000E94C714BE016F5F7F4F88EA90E00E9450
:1044100070088CE292E00E94D51429813A814B8188
:104420005C8160E070E08AE794E40E94033942E036
:1044300050E00E94C7140E949E098091C6038235F5
:1044400009F070C08091C703833509F04FC02091F7
:104450000C0430910D0440910E0450910F046091B2
:104460007E0470917F0480918004909181040E9469
:10447000973860937E0470937F04809380049093B8
:104480008104209110043091110440911204509144
:10449000130460918204709183048091840490914C
:1044A00085040E94973860938204709383048093FC
:1044B0008404909385042091140430911504409154
:1044C00016045091170460918604709187048091BE
:1044D0008804909189040E949738609386047093B1
:1044E000870480938804909389041CC08F3411F052
:1044F0000C94E83110927E0410927F041092800494
:104500001092810410928204109283041092840409
:1045100010928504109286041092870410928804E9
:10452000109289048091C6038235C1F58091C7033A
:104530008334A1F580912A0490912B04019721F4F2
:1045400081E692E00E944B151092250410922404FB
:1045500010922B0410922A0410921D0110921C013B
:104560000E949E090E94B6050E940D376093620367
:1045700070936303809364039093650310925E03CA
:1045800010925F03109260031092610310925A031D
:1045900010925B0310925C0310925D038091C6033E
:1045A000823509F04DC08091C703853429F41092FB
:1045B0001D0110921C0144C0863409F041C01982CB
:1045C0001A821B821C822F969FAD2F979F932E9647
:1045D000AFAD2E97AF9385EA92E09F938F933F9272
:1045E0002F920E94503A89AD9AADBE016F5F7F4F06
:1045F000880F991F880F991F0E94700886E792E024
:104600000E94D51469AD7AAD072E000C880B990B6A
:104610004AE050E00E94F61481E792E00E94D5142F
:1046200069817A818B819C8146E050E00E94C714A9
:104630000E949E090F900F900F900F900F900F9077
:104640008091C6038235B1F48091C703843591F41B
:104650008AE792E00E94D5146091100170911101D7
:10466000809112019091130146E050E00E94C7141E
:104670000E949E098091C603803531F48091C70362
:10468000833411F40E94CD098091C603803509F06E
:10469000E7C08091C703833509F0E2C063E070E0B2
:1046A00089E490E00E943A1690918A0480918B04EC
:1046B000981711F184EB95E00E946D0484EB95E06E
:1046C0000E946D048DEC92E00E94D51484EB95E07D
:1046D0000E946D04BC01990F880B990B42E00E9467
:1046E000B2138FEB92E00E94D51462E070E089E48F
:1046F00090E00E943815D8CF63E070E08BE490E042
:104700000E943A1690918A0480918B04981711F1B7
:1047100084EB95E00E946D0484EB95E00E946D04AB
:104720008BEB92E00E94D51484EB95E00E946D041F
:10473000BC01990F880B990B42E00E94B2138DEADD
:1047400092E00E94D51462E070E08BE490E00E9459
:104750003815D8CF63E070E088E490E00E943A1604
:1047600090918A0480918B04981711F184EB95E065
:104770000E946D0484EB95E00E946D0489EA92E04A
:104780000E94D51484EB95E00E946D04BC01990F42
:10479000880B990B42E00E94B2138BE992E00E94D1
:1047A000D51462E070E088E490E00E943815D8CF1C
:1047B00085E992E00E94D51460911601709117016D
:1047C000072E000C880B990B4AE050E00E94F6146B
:1047D00083E992E00E94D51460911001709111015B
:1047E000809112019091130142E050E00E9459150E
:1047F00081E992E00E94D51460910C0170910D0145
:1048000080910E0190910F0142E050E00E94C71488
:104810008AE892E00E94D5146AE070E08091080472
:10482000909109040E94381584E892E00E94D51402
:104830006AE070E080911E0190911F010E9438157E
:104840008EE792E00E94D51460912C0170912D01A9
:1048500080912E0190912F0142E050E00E94C714F8
:104860008091C603803509F06FC08091C7038534FD
:1048700039F481E090E090931D0180931C0164C0A5
:10488000873409F061C0E1E0F0E0EC0FFD1FFF9319
:10489000EF938BEA92E09F938F933F922F920E9427
:1048A000503A0F900F900F900F900F900F908981BA
:1048B0009A818430910511F40C94AE3214F00C946A
:1048C000A3328130910511F00C949C3280E090E08D
:1048D000A0E8BFE380932C0190932D01A0932E01BB
:1048E000B0932F010E949E0960912C0170912D01BF
:1048F00080912E0190912F010E94753940E050E087
:1049000089E490E00E94B81560912C0170912D010E
:1049100080912E0190912F010E94753940E050E066
:104920008BE490E00E94B81560912C0170912D01EC
:1049300080912E0190912F010E94753940E050E046
:1049400088E490E00E94B8158091C6038434D1F5C4
:104950008091C7038234B1F58AE191E09F938F93F0
:10496000A7EFB4E0BF93AF9381EB92E09F938F9357
:104970003F922F920E94503A81ED92E00E94D5140E
:104980006AE070E080911A0190911B010E94381535
:1049900080911A0190911B010FB6F894DEBF0FBEF3
:1049A000CDBF8C30910534F0833191052CF082E13C
:1049B00090E002C08CE090E090931B0180931A017C
:1049C0000E949E098091C603843431F48091C7030C
:1049D000833511F40E949E098091C603863509F043
:1049E000C1C08091C7038D3409F0BCC080912A04F6
:1049F00090912B04892B21F485EE92E00E944B15B7
:104A000081E090E090932B0480932A0410921D0182
:104A100010921C0180910A0490910B04609118017E
:104A200070911901019709F140911A0150911B01F0
:104A3000CE0145960E9485164D885E886F88788CD9
:104A4000898D9A8DAB8DBC8D63968CAF9DAFAEAFCB
:104A5000BFAF63972D8D3E8D4F8D58A167962CAFBC
:104A60003DAF4EAF5FAF679758C04DB75EB7485187
:104A700051090FB6F8945EBF0FBE4DBFADB7BEB7BC
:104A8000119688E1E6E6F3E001900D928A95E1F750
:104A9000CE0145960E94400F6D897E898F89988D41
:104AA000898C9A8CAB8CBC8CCD8CDE8CEF8CF8A076
:104AB00020917203309173034091740350917503F8
:104AC0000E9403392B013C0120917603309177033A
:104AD0004091780350917903C501B4010E940339D4
:104AE00063966CAF7DAF8EAF9FAF639720917A03D3
:104AF00030917B0340917C0350917D03C701B60147
:104B00000E94033967966CAF7DAF8EAF9FAF6797FA
:104B10000FB6F894DEBF0FBECDBF80910404909114
:104B20000504019719F481EE92E002C08DED92E048
:104B30000E94D514C0900404D0900504A12CB12C7F
:104B40006796ECACFDAC0EAD1FAD679763962CADD0
:104B50003DAD4EAD5FAD6397C301B2010E94181227
:104B60000E949E098091C6038635D1F58091C703C6
:104B70008334B1F580912A0490912B04019721F49C
:104B800081EF92E00E944B1510922B0410922A04A0
:104B900010921D0110921C0181E090E09093250479
:104BA000809324040E949E090E94B6050E940D373E
:104BB000609362037093630380936403909365032F
:104BC00010925E0310925F031092600310926103D3
:104BD00010925A0310925B0310925C0310925D03D3
:104BE0008091C6038E3489F58091C703833569F5BA
:104BF00088E191E09F938F9387EB92E09F938F934F
:104C00003F922F920E94503A0F900F900F900F906A
:104C10000F900F90809118019091190118161906A4
:104C200034F081E090E0909319018093180189E0BD
:104C300093E00E94D5146AE070E080911801909191
:104C400019010E9438150E949E098091C60387347D
:104C500031F48091C703833511F40E94AF0980912C
:104C6000C6038C3471F48091C703833551F487E116
:104C700093E00E944B1581E090E090931F01809398
:104C80001E018091C6038C3461F48091C7038F3478
:104C900041F489E293E00E944B1510921F0110929B
:104CA0001E018091C6038C3409F047C08091C70370
:104CB000863509F042C0A7EFB4E0BF93AF938DEB08
:104CC00092E09F938F933F922F920E94503A87EFEA
:104CD00094E00E9420330F900F900F900F900F9050
:104CE0000F9020E030E040E85FE30E940837811138
:104CF00009C080E090E0A0E8BFE389839A83AB839A
:104D0000BC8304C019821A821B821C82BE016F5FA1
:104D10007F4F8CE090E00E940808BE016F5F7F4FDC
:104D200084E890E00E940808BE016F5F7F4F8CEA24
:104D300090E00E9408080E949E098091C6038C346E
:104D400009F088C08091C703803509F083C0A7EFC0
:104D5000B4E0BF93AF9383EC92E09F938F933F9225
:104D60002F920E94503A87EF94E00E9420330F90D8
:104D70000F900F900F900F900F9020E030E040E8E0
:104D80005FE30E940837882329F0109217011092E0
:104D900016015EC081E090E09093170180931601A8
:104DA00040911A0150911B016091180170911901F5
:104DB0002DB73EB7285131090FB6F8943EBF0FBE4C
:104DC0002DBFADB7BEB7119688E1E6E6F3E00190DE
:104DD0000D928A95E1F78DB79EB748970FB6F89474
:104DE0009EBF0FBE8DBFADB7BEB7119688E1EEE78F
:104DF000F3E001900D928A95E1F7ADB7BEB75897F1
:104E00000FB6F894BEBF0FBEADBF119688E1E6E9BC
:104E1000F3E001900D928A95E1F7EDB7FEB7789730
:104E20000FB6F894FEBF0FBEEDBFADB7BEB711967B
:104E300088E1EEEAF3E001900D928A95E1F78EE4C5
:104E400093E00E94F2180FB6F894DEBF0FBECDBFFC
:104E50000E949E098091C603883441F48091C70363
:104E6000893421F48EE393E00E944B158091C603B0
:104E7000813409F0FFC18091C703823509F0FAC17E
:104E80006EEA73E080E190E00E9470086AE070E0F2
:104E900080E090E00E94DB0562EB73E084E190E04B
:104EA0000E9470086AE070E080E090E00E94DB05FC
:104EB00066EB73E088E190E00E9470086AE070E0C1
:104EC00080E090E00E94DB056AEB73E08CE190E00B
:104ED0000E9470086AE070E080E090E00E94DB05CC
:104EE0006EEB73E080E290E00E9470086AE070E090
:104EF00080E090E00E94DB0562EC73E084E290E0E9
:104F00000E9470086AE070E080E090E00E94DB059B
:104F100066E973E088E890E00E9470086AE070E05B
:104F200080E090E00E94DB056AE973E08CE890E0A5
:104F30000E9470086AE070E080E090E00E94DB056B
:104F40006EE973E080E990E00E9470086AE070E02A
:104F500080E090E00E94DB0562EA73E084E990E083
:104F60000E9470086AE070E080E090E00E94DB053B
:104F700066EA73E088E990E00E9470086AE070E0F9
:104F800080E090E00E94DB056AEA73E08CE990E043
:104F90000E9470086AE070E080E090E00E94DB050B
:104FA0006EE773E080EB90E00E9470086AE070E0CA
:104FB00080E090E00E94DB0562E873E084EB90E023
:104FC0000E9470086AE070E080E090E00E94DB05DB
:104FD00066E873E088EB90E00E9470086AE070E099
:104FE00080E090E00E94DB056AE873E08CEB90E0E3
:104FF0000E9470086AE070E080E090E00E94DB05AB
:105000006EE873E080EC90E00E9470086AE070E067
:1050100080E090E00E94DB0562E973E084EC90E0C0
:105020000E9470086AE070E080E090E00E94DB057A
:1050300086E893E00E94D5146091AE037091AF03AF
:105040008091B0039091B10346E050E00E94591561
:1050500083E893E00E94D5146091960370919703C2
:10506000809198039091990346E050E00E94591571
:1050700080E893E00E94D51460917E0370917F03D5
:10508000809180039091810346E050E00E94C71414
:105090008AE793E00E94D5146091B2037091B30344
:1050A0008091B4039091B50346E050E00E945915F9
:1050B00087E793E00E94D51460919A0370919B0357
:1050C00080919C0390919D0346E050E00E94591509
:1050D00084E793E00E94D51460918203709183036A
:1050E000809184039091850346E050E00E94C714AC
:1050F0008EE693E00E94D5146091B6037091B703D9
:105100008091B8039091B90346E050E00E94591590
:105110008BE693E00E94D51460919E0370919F03EB
:105120008091A0039091A10346E050E00E945915A0
:1051300088E693E00E94D5146091860370918703FE
:10514000809188039091890346E050E00E94C71443
:1051500082E693E00E94D5146091BA037091BB037C
:105160008091BC039091BD0346E050E00E94591528
:105170008FE593E00E94D5146091A2037091A30380
:105180008091A4039091A50346E050E00E94591538
:105190008CE593E00E94D51460918A0370918B0393
:1051A00080918C0390918D0346E050E00E94C714DB
:1051B00086E593E00E94D5146091BE037091BF0311
:1051C0008091C0039091C10346E050E00E945915C0
:1051D00083E593E00E94D5146091A6037091A70324
:1051E0008091A8039091A90346E050E00E945915D0
:1051F00080E593E00E94D51460918E0370918F0337
:10520000809190039091910346E050E00E94C71472
:105210008AE493E00E94D5146091C2037091C303A5
:105220008091C4039091C50346E050E00E94591557
:1052300087E493E00E94D5146091AA037091AB03B8
:105240008091AC039091AD0346E050E00E94591567
:1052500084E493E00E94D5146091920370919303CB
:10526000809194039091950346E050E00E94C7140A
:105270000E949E098091C603813409F0CDC08091BF
:10528000C7038D3409F0C8C0A7EFB4E0BF93AF9354
:1052900021E030E02C0F3D1F3F932F9389EC92E0EB
:1052A0009F938F933F922F920E94503A0E947D13BA
:1052B00087EF94E00E9420330FB6F894DEBF0FBE54
:1052C000CDBFE981FA81E231F10508F0A5C0EC5CBF
:1052D000FF4F0C94323A6093AE037093AF03809308
:1052E000B0039093B10398C06093B2037093B3037B
:1052F0008093B4039093B5038FC06093B60370930B
:10530000B7038093B8039093B90386C06093BA0340
:105310007093BB038093BC039093BD037DC06093E7
:10532000BE037093BF038093C0039093C10374C006
:105330006093C2037093C3038093C4039093C50327
:105340006BC0609396037093970380939803909338
:10535000990362C060939A0370939B0380939C03AC
:1053600090939D0359C060939E0370939F03809315
:10537000A0039093A10350C06093A2037093A30372
:105380008093A4039093A50347C06093A6037093F2
:10539000A7038093A8039093A9033EC06093AA0338
:1053A0007093AB038093AC039093AD0335C06093CF
:1053B0007E0370937F0380938003909381032CC0BE
:1053C0006093820370938303809384039093850397
:1053D00023C0609386037093870380938803909320
:1053E00089031AC060938A0370938B0380938C03A4
:1053F00090938D0311C060938E0370938F038093FD
:1054000090039093910308C0609392037093930369
:1054100080939403909395038091C603813479F52A
:105420008091C703823459F5A7EFB4E0BF93AF93DF
:1054300082ED92E09F938F933F922F920E94503A79
:1054400087EF94E00E9420330F900F900F900F9001
:105450000F900F9020E030E040E85FE30E940837B3
:10546000882329F0109205041092040406C081E0FC
:1054700090E090930504809304040E949E0980911B
:10548000C6038134A1F58091C703833481F521E0FF
:1054900030E02C0F3D1F3F932F9388ED92E09F93B8
:1054A0008F933F922F920E94503A0F900F900F903F
:1054B0000F900F900F9089819A818130910539F476
:1054C00090930B0480930A0487E993E006C010923E
:1054D0000B0410920A048CE893E00E944B1560EDD7
:1054E00077E080E090E00E94DB050E949E098091B9
:1054F000C6038334C1F58091C7038635A1F5A7EFB4
:10550000B4E0BF93AF938EED92E09F938F933F9261
:105510002F920E94503A87EF94E00E9420330F9020
:105520000F900F900F900F900F9020E030E040E828
:105530005FE30E940837811109C080E090E0A0E895
:10554000BFE389839A83AB83BC8304C019821A8228
:105550001B821C82BE016F5F7F4F80E090E00E9443
:1055600008080E949E098091C603833409F063C035
:105570008091C703833509F05EC021E030E02C0F35
:105580003D1F3F932F9384EE92E09F938F933F9222
:105590002F920E94503A69817A81072E000C880B65
:1055A000990B0E940F370F900F900F900F900F9054
:1055B0000F9020E030E0A9010E94083787FF02C069
:1055C0001A82198283EA93E00E94D5146AE070E09F
:1055D00089819A810E9438150E948A1364E670E0DE
:1055E00080E090E00E94DB0509811A810E948A1305
:1055F00064E670E080E090E00E94DB050530110574
:1056000040F4000F111FF801E05DFE4F60817181D1
:1056100002C060E072EC072E000C880B990B0E9410
:10562000EB1287E195E00E94FF038AEE92E00E9470
:105630006F130E949E098091C603833409F088C0CD
:105640008091C703813409F083C0A7EFB4E0BF9312
:10565000AF9380EF92E09F938F933F922F920E949F
:10566000503A87EF94E00E9420330F900F900F90F4
:105670000F900F900F9020E030E040E85FE30E9431
:105680000837882329F010920704109206045EC0A0
:1056900081E090E0909307048093060440911A0102
:1056A00050911B0160911801709119012DB73EB7FF
:1056B000285131090FB6F8943EBF0FBE2DBFADB7CC
:1056C000BEB7119688E1E6E6F3E001900D928A9567
:1056D000E1F78DB79EB748970FB6F8949EBF0FBEFF
:1056E0008DBFADB7BEB7119688E1EEE7F3E001904C
:1056F0000D928A95E1F7ADB7BEB758970FB6F894FB
:10570000BEBF0FBEADBF119688E1E6E9F3E00190A0
:105710000D928A95E1F7EDB7FEB778970FB6F8943A
:10572000FEBF0FBEEDBFADB7BEB7119688E1EEEA82
:10573000F3E001900D928A95E1F788E194E00E94F0
:10574000F2180FB6F894DEBF0FBECDBF0E949E09BF
:105750008091C6038534B1F48091C703833591F4F9
:1057600062E773E088E090E00E94080866E773E073
:1057700080E890E00E9408086AE773E088EA90E019
:105780000E9408088091C6038534B1F48091C70354
:105790008F3491F466E673E084E090E00E9408089C
:1057A0006AE673E08CE790E00E9408086EE673E01A
:1057B00084EA90E00E9408088091C603853409F0CD
:1057C000DFC08091C703813409F0DAC06EEA73E06C
:1057D00080E190E00E9408086AE070E080E090E0DC
:1057E0000E94DB0562EB73E084E190E00E94080810
:1057F0006AE070E080E090E00E94DB0566EB73E019
:1058000088E190E00E9408086AE070E080E090E0A3
:105810000E94DB056AEB73E08CE190E00E940808CF
:105820006AE070E080E090E00E94DB056EEB73E0E0
:1058300080E290E00E9408086AE070E080E090E07A
:105840000E94DB0562EC73E084E290E00E940808AD
:105850006AE070E080E090E00E94DB0566E973E0BA
:1058600088E890E00E9408086AE070E080E090E03C
:105870000E94DB056AE973E08CE890E00E9408086A
:105880006AE070E080E090E00E94DB056EE973E082
:1058900080E990E00E9408086AE070E080E090E013
:1058A0000E94DB0562EA73E084E990E00E94080848
:1058B0006AE070E080E090E00E94DB0566EA73E059
:1058C00088E990E00E9408086AE070E080E090E0DB
:1058D0000E94DB056AEA73E08CE990E00E94080808
:1058E0006AE070E080E090E00E94DB056EE773E024
:1058F00080EB90E00E9408086AE070E080E090E0B1
:105900000E94DB0562E873E084EB90E00E940808E7
:105910006AE070E080E090E00E94DB0566E873E0FA
:1059200088EB90E00E9408086AE070E080E090E078
:105930000E94DB056AE873E08CEB90E00E940808A7
:105940006AE070E080E090E00E94DB056EE873E0C2
:1059500080EC90E00E9408086AE070E080E090E04F
:105960000E94DB0562E973E084EC90E00E94080885
:105970006AE070E080E090E00E94DB050E949E09F2
:105980008091C603843509F047C08091C7038335F1
:1059900009F042C041E050E04C0F5D1F5F934F9310
:1059A00086EF92E09F938F933F922F920E94503AFE
:1059B0000F900F900F900F900F900F9089819A8108
:1059C000009721F18130910509F59093150180939D
:1059D00014010E94B6050E940D3760936203709314
:1059E0006303809364039093650310925E031092A7
:1059F0005F03109260031092610310925A03109299
:105A00005B0310925C0310925D0304C010921501B9
:105A1000109214010E949E098091C603843509F0FA
:105A20004DC08091C703843409F048C0A7EFB4E0AB
:105A3000BF93AF938CEF92E09F938F933F922F92FF
:105A40000E94503A87EF94E00E9420330E947539FB
:105A50000F900F900F900F900F900F906B3071057B
:105A6000810591054CF06093260470932704809380
:105A700028049093290408C0109226041092270449
:105A8000109228041092290480EC93E00E94D5140F
:105A90006091260470912704809128049091290434
:105AA0004AE050E00E94F61482E093E00E945D1309
:105AB00060ED77E080E090E00E94DB058091C60316
:105AC000813539F48091C703813519F4E0E0F0E0C5
:105AD00009958091C603873509F054C08091C703AA
