:100000000C94A5020C94CD020C94CD020C94CD025C
:100010000C94CD020C94CD020C94CD020C94CD0224
:100020000C94CD020C94CD020C94CD020C94CD0214
:100030000C94CD020C94CD020C94CD020C94CD0204
:100040000C9416060C94CD020C94BE040C949804E7
:100050000C94CD020C94CD020C94CD020C94CD02E4
:100060000C9460060C94CD024E414E494E495459B1
:10007000494E46CDCCCC3D0AD7233C17B7D1387773
:10008000CC2B329595E6241FB14F0A000020410089
:1000900000C84200401C4620BCBE4CCA1B0E5AAED3
:1000A000C59D7400407A10F35A00A0724E180900E2
:1000B00010A5D4E80000E87648170000E40B5402CD
:1000C0000000CA9A3B000000E1F505000080969808
:1000D00000000040420F000000A086010000001058
:1000E0002700000000E8030000000064000000009A
:1000F000000A00000000000100000000002C76D87B
:1001000088DC674F0823DFC1DFAE59E1B1B796E560
:10011000E3E453C63AE651997696E8E6C28426EBC4
:10012000898C9B62ED407C6FFCEFBC9C9F40F2BAD7
:10013000A56FA5F490055A2AF75C936B6CF9676D6F
:10014000C11BFCE0E40D47FEF520E6B500D0ED90C4
:100150002E0300943577050080841E080000204E91
:100160000A000000C80C333333330F986E1283112A
:1001700041EF8D2114893BE65516CFFEE6DB18D101
:10018000844B381BF77C1D901DA4BBE424203284D3
:10019000725E228100C9F124ECA1E53D2763646908
:1001A0006E6F70737578585B004C696E656172692B
:1001B0007A6174696F6E2044697361626C65640072
:1001C0004C696E656172697A6174696F6E20456E03
:1001D00061626C656400556E63616C696272617422
:1001E00065640043616C6962726174696F6E204579
:1001F0006E61626C6564002056005663633A20208D
:10020000004F652A567265662F563A2000566F6673
:10021000663A20200052656C6174697665206F66CD
:10022000667365742073657420746F200052656C6A
:100230006174697665206F666673657420636C65AA
:1002400061726564002A2A2A2A2A2A2A2A2A2A2A44
:100250002A2A2A2A2A2A2A2A2A2A2A2A2A00536FBA
:100260006674776172652056657273696F6E3A20A5
:1002700020004E6F742056616C69640056616C6991
:100280006400454550524F4D204C696E20004E6F22
:10029000742056616C69640056616C696400454560
:1002A00050524F4D2043616C200041353A202000D0
:1002B00041343A20200041333A20200041323A2094
:1002C000200041313A20200041303A2020004C6982
:1002D0006E656172697A6174696F6E004144432092
:1002E00053706565643A2020004144432073616D7A
:1002F000706C65733A202000414443204269747356
:100300003A20200041444320567265663A2020007E
:100310004872656C3A2020006D562F567265662F24
:100320004F653A2020004F652A567265662F563A6F
:10033000202000566F66663A2020002A43414C492F
:1003400042524154494F4E2A2A2A2A2A2A2A2A2A24
:100350002A2A2A0041444320426974733A2020002B
:100360004144432053706565643A2020004248317F
:1003700000524420004D616E75616C2052656164CD
:100380000042563100525620004D616E75616C205E
:100390005265616400436F6E74696E756F7573208A
:1003A0005265616420566F6C7461676500436F6EBF
:1003B00074696E756F7573205265616400414443C2
:1003C0002053616D706C65733A2000536574204C46
:1003D000696E656172697A6174696F6E0052656DEC
:1003E0006F7665204C696E656172697A6174696FB8
:1003F0006E0048656C6C6F00454550524F4D207340
:10040000746F726564206F66667365742076616CC4
:1004100075653A20200052657472696576656420BE
:100420006F66667365742066726F6D204545505225
:100430004F4D3A20200020202D2D3E206D562F5666
:100440002F4F653A202000454550524F4D204F65B3
:100450002A567265662F563A2020005265747269DA
:10046000657665642041353A2020005265747269D2
:10047000657665642041343A2020005265747269C3
:10048000657665642041333A2020005265747269B4
:10049000657665642041323A2020005265747269A5
:1004A000657665642041313A202000526574726996
:1004B000657665642041303A2020005047413A205B
:1004C000004C696E3A20004850463A200020002037
:1004D0000046696C7420002040204164647265739A
:1004E000733A202000583A200042563100425632DA
:1004F0000052562000424831004248320052442007
:100500000000000000250028002B0004040404045F
:1005100004040402020202020203030303030301B0
:100520000204081020408001020408102001020487
:10053000081020000000080002010000030407006A
:1005400000000000000000004D1E11241FBECFEF70
:10055000D8E0DEBFCDBF24E0A4E8B2E001C01D9228
:10056000A43AB207E1F712E0A0E0B1E0ECE4F1E573
:1005700002C005900D92A438B107D9F712E0C5EA80
:10058000D2E004C02197FE010E945D25C43AD10744
:10059000C9F70E948C0D0C94A4280C940000CF92F3
:1005A000DF92EF92FF920F931F93CF93DF936C0133
:1005B0007A018B01C0E0D0E0CE15DF0589F0D801CB
:1005C0006D918D01D601ED91FC910190F081E02DAE
:1005D000C6010995892B11F47E0102C02196ECCF4A
:1005E000C701DF91CF911F910F91FF90EF90DF90A6
:1005F000CF900895FC01538D448D252F30E0842F3A
:1006000090E0821B930B541710F0CF96089501973A
:100610000895FC01918D828D981761F0828DDF0124
:10062000A80FB11D5D968C91928D9F5F9F73928FE5
:1006300090E008958FEF9FEF0895FC01918D828DDA
:10064000981731F0828DE80FF11D858D90E00895A7
:100650008FEF9FEF0895FC01918D228D892F90E0FF
:10066000805C9F4F821B91098F739927089588EFB3
:1006700093E00E942B0321E0892B09F420E0822FD4
:100680000895FC01848DDF01A80FB11DA35ABF4F4F
:100690002C91848D90E001968F739927848FA68981
:1006A000B7892C93A089B1898C9180648C93938DA8
:1006B000848D981306C00288F389E02D80818F7D98
:1006C00080830895EF92FF920F931F93CF93DF9350
:1006D000EC0181E0888F9B8D8C8D981305C0E88993
:1006E000F989808185FD24C0F62E0B8D10E00F5F07
:1006F0001F4F0F731127E02E8C8DE8120CC00FB620
:1007000007FCFACFE889F989808185FFF5CFCE0112
:100710000E944103F1CF8B8DFE01E80FF11DE35ADA
:10072000FF4FF0820B8FEA89FB898081806207C0CE
:10073000EE89FF896083E889F989808180648083FC
:1007400081E090E0DF91CF911F910F91FF90EF90AA
:100750000895CF93DF93EC01888D8823C9F0EA894F
:10076000FB89808185FD05C0A889B9898C9186FDAA
:100770000FC00FB607FCF5CF808185FFF2CFA889A7
:10078000B9898C9185FFEDCFCE010E944103E7CF5F
:10079000DF91CF91089580E090E0892B29F00E94AD
:1007A000370381110C940000089585ED8093BC00FF
:1007B0008091BC0084FDFCCF1092D203089540913B
:1007C0003C03262F30E0240F311D21323105DCF4AB
:1007D0002091D2032430C9F4FC0180E090E0861718
:1007E00058F430913C032191DC01A65EBC4FA30F6D
:1007F000B11D2C930196F3CF80913C03680F609359
:100800003C0380E0089581E0089582E00895089512
:10081000E0916B0380916A03E81730F4F0E0E4594B
:10082000FC4F808190E008958FEF9FEF08959091A5
:100830006B0380916A03981750F4E92FF0E0E459B4
:10084000FC4F208130E09F5F90936B0302C02FEF3D
:100850003FEFC901089580916A0390E020916B03F6
:10086000821B91090895CF92DF92EF92FF920F932E
:100870001F93CF93DF937C01262F972F8A018091BE
:10088000F503882391F0C62FD72F6E01C40ED51E15
:10089000CC15DD0571F06991D701ED91FC910190C6
:1008A000F081E02DC7010995F3CF642F822F0E94BC
:1008B000DF03C801DF91CF911F910F91FF90EF905F
:1008C000DF90CF900895CF93DF931F92CDB7DEB71F
:1008D00069832091F5032223D1F02091F303203284
:1008E00040F021E030E0FC013383228380E090E09F
:1008F00015C08091F403E82FF0E0ED52FC4F998190
:1009000090838F5F8093F4038093F30305C061E0CD
:10091000CE0101960E94DF0381E090E00F90DF910D
:10092000CF910895089580E090E008950E94632596
:100930001F920F920FB60F9211242F933F934F9354
:100940005F936F937F938F939F93AF93BF93EF9337
:10095000FF9388EF93E00E944103FF91EF91BF91D5
:10096000AF919F918F917F916F915F914F913F9147
:100970002F910F900FBE0F901F9018951F920F92FE
:100980000FB60F9211242F938F939F93EF93FF93A2
:10099000E0910804F09109048081E0910E04F09147
:1009A0000F0482FD12C09081809111048F5F8F73BC
:1009B00020911204821751F0E0911104F0E0E85008
:1009C000FC4F958F8093110401C08081FF91EF91BE
:1009D0009F918F912F910F900FBE0F901F901895A0
:1009E00090E0FC01ED5CFA4F3491FC01E15EFA4FBE
:1009F0002491FC01E55FFA4FE491EE2309F43BC03A
:100A0000332339F1333091F038F43130A9F03230FA
:100A100001F584B58F7D12C0373091F03830A1F0E8
:100A20003430B9F4809180008F7D03C080918000C4
:100A30008F77809380000DC084B58F7784BD09C007
:100A40008091B0008F7703C08091B0008F7D80933C
:100A5000B000F0E0EE0FFF1FEF5FFA4FA591B491E9
:100A60008FB7F894EC91611103C020952E2301C03B
:100A70002E2B2C938FBF08953FB7F8948091660377
:100A800090916703A0916803B091690326B5A89B74
:100A900005C02F3F19F00196A11DB11D3FBFBA2F10
:100AA000A92F982F8827820F911DA11DB11DBC0170
:100AB000CD0142E0660F771F881F991F4A95D1F735
:100AC00008958F929F92AF92BF92CF92DF92EF9252
:100AD000FF926B017C010E943C054B015C01C1143B
:100AE000D104E104F104F1F00E943C05DC01CB01EA
:100AF00088199909AA09BB09883E9340A105B10547
:100B000070F321E0C21AD108E108F10888EE880EDE
:100B100083E0981EA11CB11CC114D104E104F104AE
:100B200019F7DDCFFF90EF90DF90CF90BF90AF909F
:100B30009F908F9008954F925F926F927F928F92C5
:100B40009F92AF92BF92CF92DF92EF92FF920E945C
:100B50003C050E9493224B015C014090940250900E
:100B60009502609096027090970220E030E040E895
:100B70005FE4C301B2010E94F4229B01AC01C501F4
:100B8000B4010E941D246B017C01209190023091E0
:100B9000910240919202509193020E948E2287FF0F
:100BA0001EC020E030E040E85FE3C301B2010E94D4
:100BB0001D24609394027093950280939602909303
:100BC000970220E030E040E85FE40E94F4229B01BD
:100BD000AC01C501B4010E941D246B017C01C092CF
:100BE0009002D0929102E0929202F09293022091B0
:100BF00098023091990240919A0250919B02C7014C
:100C0000B6010E941C242DEB37E346E855E30E9411
:100C1000F422FF90EF90DF90CF90BF90AF909F9025
:100C20008F907F906F905F904F9008951F920F92DA
:100C30000FB60F9211242F933F938F939F93AF93EF
:100C4000BF938091620390916303A0916403B0917C
:100C500065033091610323E0230F2D3720F40196C3
:100C6000A11DB11D05C026E8230F0296A11DB11DCF
:100C7000209361038093620390936303A0936403C2
:100C8000B09365038091660390916703A091680318
:100C9000B09169030196A11DB11D809366039093E5
:100CA0006703A0936803B0936903BF91AF919F91CD
:100CB0008F913F912F910F900FBE0F901F9018951D
:100CC0001F920F920FB60F9211242F933F934F93C1
:100CD0005F936F937F938F939F93AF93BF93EF93A4
:100CE000FF938091B900887F803609F49CC068F535
:100CF000883209F45BC090F4803109F454C038F4B0
:100D0000882309F4F6C0883009F44DC0F6C0883154
:100D100009F44CC0803209F45DC0EFC0803409F49E
:100D200068C048F4803309F455C0883309F0E5C041
:100D30008093D003D8C0803509F44FC0883509F4BA
:100D40005DC0883409F0D9C0D6C0883909F4C7C05D
:100D5000A8F4883709F467C038F4883609F463C00A
:100D6000803709F460C0C9C0883809F4B8C0803938
:100D700009F45FC0803809F0C0C05BC0803B09F453
:100D800086C038F4803A09F466C0883A09F47FC016
:100D9000B4C0803C09F4A7C0883C09F4A4C0883BD7
:100DA00009F48AC0AAC08091AD0310C09091CF030E
:100DB0008091CE03981770F5E091CF0381E08E0FFC
:100DC0008093CF03F0E0E255FC4F80818093BB001D
:100DD00085EC86C08093D0038EC0E091CF0381E084
:100DE0008E0F8093CF038091BB00F0E0E255FC4F63
:100DF00080839091CF038091CE036EC0E091CF03AA
:100E000081E08E0F8093CF038091BB00F0E0E2552C
:100E1000FC4F80838091D10381116DC081E080936C
:100E2000AC0384EA61C083E08093D2031092600334
:100E3000CFCF80916003803208F051C0E091600311
:100E400081E08E0F809360038091BB00F0E0E05C56
:100E5000FC4F8083BDCF85EC8093BC001092D20301
:100E600080916003803230F4E0916003F0E0E05C58
:100E7000FC4F10826091600370E0E0913E03F091BE
:100E80003F0380E493E009951092600336C084E04C
:100E90008093D20310923D0310923C03E0913A03F9
:100EA000F0913B03099580913C03811105C081E0DD
:100EB00080933C0310921A03E0913D0381E08E0F72
:100EC00080933D03F0E0E65EFC4F80818093BB00A1
:100ED00090913D0380913C03981708F479CF85E801
:100EE0008093BC000AC085EC8093BC001092D203B2
:100EF00004C01092D0030E94D503FF91EF91BF91DF
:100F0000AF919F918F917F916F915F914F913F91A1
:100F10002F910F900FBE0F901F9018951092D20333
:100F200081E08093D1031092AC0361E082E10E94E2
:100F3000F00461E083E10E94F004E9EBF0E08081DD
:100F40008E7F808380818D7F808388E48093B8004A
:100F500085E48093BC000895AF92BF92CF92DF9258
:100F6000EF92FF920F931F93CF93DF931F92CDB712
:100F7000DEB75C017B018B016C0184E0C80ED11CE3
:100F8000F80161918F01C50169830E94B5236981D0
:100F9000681719F0C5010E94BD23FFEFAF1ABF0A01
:100FA000AC14BD0469F7C7010F90DF91CF911F9179
:100FB0000F91FF90EF90DF90CF90BF90AF9008958A
:100FC000CF92DF92EF92FF920F931F93CF93DF9315
:100FD000EB017B0124E0E20EF11C8B016C01C61ACF
:100FE000D70AC601800F911F0E94B523F801819393
:100FF0008F01EE15FF05A9F7CE01DF91CF911F916B
:101000000F91FF90EF90DF90CF9008954F925F92F5
:101010006F927F928F929F92AF92BF92CF92DF9208
:10102000EF92FF920F931F93CF93DF93CDB7DEB76D
:10103000AD970FB6F894DEBF0FBECDBF2B013C01BC
:10104000CE0101967C014130510501F52130310579
:1010500069F40E949B0569837A838B839C8344E0B7
:1010600050E0B70188EF93E00E94CF0249825A8294
:101070006B827C8244E050E0B70188EF93E00E94ED
:10108000CF028AEC91E00E94E40A77C019822130F5
:10109000310561F40E949B05870123E040E00E9436
:1010A000861E69E672E0C7010E947025F701019073
:1010B0000020E9F7CF0101976C0120E030E0A901A1
:1010C000C301B2010E94312553014201181624F0D8
:1010D000B7FAB094B7F8B09420E030E040E85FE3AE
:1010E000C501B4010E948E2287FD35C020E030E0AA
:1010F00040E251E4C501B4010E948E2287FD2DC05B
:1011000020E030E048EC52E4C501B4010E948E2298
:1011100087FD25C020E030E04AE754E4C501B40172
:101120000E948E2287FD1DC020E030E44CE156E491
:10113000C501B4010E948E2287FD15C011E020E098
:1011400030E543EC57E4C501B4010E948E2287FFCD
:1011500010E0212F09C026E007C025E005C024E0EB
:1011600003C023E001C022E0860140E0C301B201D8
:101170000E94861EC7010E94350DAD960FB6F894E9
:10118000DEBF0FBECDBFDF91CF911F910F91FF90BA
:10119000EF90DF90CF90BF90AF909F908F907F9017
:1011A0006F905F904F900895EEE9F2E080E28193B6
:1011B00092E0E03DF907D9F7ECE8F3E080E28193B3
:1011C00093E0EC3AF907D9F708950F931F93CF9363
:1011D000DF938BE692E00E94DE0C88E290E0909331
:1011E0009D0280939C0200E210E0C0919C02D0918D
:1011F0009D02CE010E94B5238F772196D0939D0248
:10120000C0939C0290EE980F9F3510F40E94810BC2
:101210000150110951F7DF91CF911F910F910C945B
:10122000D408AF92BF92CF92DF92EF92FF920F93CA
:101230001F93CF93DF938C01EC012C97C530D10520
:10124000A0F4FE01EE0FFF1FEE0FFF1FE65BFE4F47
:10125000C080D180E280F3800D9769F480E190E056
:1012600090931B0180931A0106C0C12CD12C4AEF28
:10127000E42E42E4F42E6091060170910701809102
:101280000801909109010E94FB24C8010E94F60AFE
:101290008091F6039091F7030E94430D90916A03A9
:1012A00080916B03981779F085E994E00E94170408
:1012B000B82E85E994E00E941704A82E85E994E0F1
:1012C0000E941704EBCF4B2D50E0542F44274A0DBA
:1012D000511DBA01550F880B990B0E949522209140
:1012E00006013091070140910801509109010E94C7
:1012F0008924C530D105A0F4CC0FDD1FCC0FDD1F34
:10130000C25ADE4F288139814A815B810D30110537
:1013100059F4E0E1F0E0F0931B01E0931A0104C0FE
:1013200020E030E040E058E30E94F422609388021D
:101330007093890280938A0290938B0210928402A8
:10134000109285021092860210928702C701B601A0
:101350000E940225DF91CF911F910F91FF90EF9096
:10136000DF90CF90BF90AF900C9461054F925F9249
:101370006F927F92AF92BF92CF92DF92EF92FF92E5
:101380000F931F93CF93DF93EC015B01412C512C02
:1013900032017301620100E010E00C171D0714F523
:1013A000C5010E9411092091880230918902409163
:1013B0008A0250918B02C701B6010E941D246B0165
:1013C0007C012091840230918502409186025091E7
:1013D0008702C301B2010E941D242B013C010F5F53
:1013E0001F4FDBCFA3019201C701B6010E941C244D
:1013F0006B017C01BE01DD0F880B990B0E949522C9
:101400009B01AC01C701B6010E948924DF91CF91F5
:101410001F910F91FF90EF90DF90CF90BF90AF9012
:101420007F906F905F904F9008954F925F926F9270
:101430007F928F929F92AF92BF92CF92DF92EF9264
:10144000FF92CF93DF93CDB7DEB7C9A4DAA4EBA4A4
:10145000FCA40E94B60920910A0130910B012130B1
:10146000310509F083C0A70196010E941C246B017D
:101470007C012D893E894F89588D0E94F42229894B
:101480003A894B895C890E941D242B013C01A701EC
:101490009601C701B6010E94F4224B015C01298D1F
:1014A0003A8D4B8D5C8D0E94F4229B01AC01C301EF
:1014B000B2010E941D242B013C01A7019601C50128
:1014C000B4010E94F4224B015C012D8D3E8D4F8DA5
:1014D00058A10E94F4229B01AC01C301B2010E94F9
:1014E0001D242B013C01A7019601C501B4010E94F6
:1014F000F4224B015C0129A13AA14BA15CA10E94FD
:10150000F4229B01AC01C301B2010E941D242B01F6
:101510003C01A7019601C501B4010E94F4222DA14E
:101520003EA14FA158A50E94F4229B01AC01C3012A
:10153000B2010E941D246B017C0120E030E040EAF2
:101540005FE30E9431251816C4F020E030E040EA45
:101550005FEBC701B6010E948E2287FF14C0C12C29
:10156000D12C90EAE92E9FEBF92E0DC0A701960130
:101570000E941C246B017C0106C0C12CD12C80EA86
:10158000E82E8FE3F82E2DA53EA54FA558A9C7013B
:10159000B6010E94F42220918C0230918D0240917C
:1015A0008E0250918F020E941C24DF91CF91FF90F8
:1015B000EF90DF90CF90BF90AF909F908F907F90F3
:1015C0006F905F904F900895009769F0FC01019033
:1015D0000020E9F73197AF01481B590BBC0188EF98
:1015E00093E00C94CF0280E090E00895CF930C97A5
:1015F0008530910530F4FC01EE58FE4F808190E07B
:1016000002C08CE090E06430710541F068307105F3
:1016100039F06230710529F4816003C0826001C035
:101620008360C091F60391E09093F503C093A10409
:101630001092F4031092F303682F85E994E00E945E
:1016400063048091F303813208F046C09091D20385
:101650009111FCCF92E09093D20391E09093D1034B
:101660009FEF9093D0031092CF038093CE03A3ED0E
:10167000B3E02EEA33E0F9019E2F921B981718F47D
:101680009D919193F9CF1092AD038091AD03CC0F52
:10169000C82BC093AD038091AC03813061F41092EC
:1016A000AC038091AD038093BB008091BC0083FDAF
:1016B000F8CF85EC01C085EE8093BC008091D20309
:1016C0008230E1F38091D0038F3F31F08091D003DD
:1016D000803211F08091D0031092F4031092F30342
:1016E0001092F503CF910895ECE8F3E08EE290813B
:1016F0009C3209F48083319693E0E03AF907B9F718
:101700000895E091F803F091F9030190F081E02D44
:10171000682F88EF93E009948F929F92AF92BF92C7
:101720000F931F93CF93DF93CDB7DEB7A1970FB67B
:10173000F894DEBF0FBECDBF19A2423008F44AE0D4
:101740008E010F5D1F4F842E912CA12CB12CA50171
:1017500094010E943B25E62FB901CA0101501109ED
:10176000EA3014F4E05D01C0E95CD801EC93232B6E
:10177000242B252B61F7C8010E94E40AA1960FB61D
:10178000F894DEBF0FBECDBFDF91CF911F910F91B7
:10179000BF90AF909F908F9008954F925F926F92FD
:1017A0007F928F929F92AF92BF92CF92DF92EF92F1
:1017B000FF926B017C01B42E9B01AC010E94362587
:1017C000882319F088E792E027C026013701E894C2
:1017D00077F82FEF3FEF4FE75FE7C301B2010E94B9
:1017E000362581110DC02FEF3FEF4FE75FE7C301B3
:1017F000B2010E948E2218161CF48CE792E00CC0F5
:101800002FEF3FEF4FE75FE4C701B6010E9431259C
:10181000181684F480E892E0FF90EF90DF90CF906C
:10182000BF90AF909F908F907F906F905F904F9000
:101830000C94E40A2FEF3FEF4FE75FECC701B601CE
:101840000E948E2287FDE6CF20E030E0A901C7018B
:10185000B6010E948E2287FF09C08DE20E94810B93
:101860004C01F7FAF094F7F8F09402C0812C912C17
:10187000A12C60E070E080E09FE3AB1441F020E039
:1018800030E040E251E40E948924A394F6CF9B010A
:10189000AC01C701B6010E941D242B013C010E942E
:1018A00002256B017C010E9493229B01AC01C301C4
:1018B000B2010E941C242B013C014AE0C701B60181
:1018C0000E948C0B7C01E80CF91CBB2029F08EE2F5
:1018D0000E94810BE80EF91EDB2CDD2021F120E0B7
:1018E00030E040E251E4C301B2010E94F4222B0136
:1018F0003C010E9402254B01A12CB12C4AE0C501FC
:10190000B4010E948C0BE80EF91EC501B4010E94BF
:1019100093229B01AC01C301B2010E941C242B0144
:101920003C01DA94DACFC701FF90EF90DF90CF90BF
:10193000BF90AF909F908F907F906F905F904F90EF
:101940000895CF93DF930E94CD0BEC018AEC91E0D8
:101950000E94E40A8C0F9D1FDF91CF9108950F9391
:101960001F93CF93DF938C01C0E0D0E0F801EC0F20
:10197000FD1F6491662371F0E091F803F091F90383
:101980000190F081E02D88EF93E00995892B11F00B
:101990002196ECCFCE01DF91CF911F910F91089549
:1019A000CF93DF930E94AF0CEC018AEC91E00E9490
:1019B000E40A8C0F9D1FDF91CF9108950C94E40AE7
:1019C000CF92DF92EF92FF92CF93DF936B017C0176
:1019D0004115510581F4E091F803F091F90301906C
:1019E000F081E02D88EF93E0DF91CF91FF90EF90B1
:1019F000DF90CF9009944A305105D1F497FF17C07A
:101A00008DE20E94810BEC0166277727CB016C19D0
:101A10007D098E099F094AE00E948C0B8C0F9D1F47
:101A2000DF91CF91FF90EF90DF90CF9008954AE043
:101A3000C701B601DF91CF91FF90EF90DF90CF907B
:101A40000C948C0BCF93DF93AB01BC01990F880BE7
:101A5000990B0E94E00CEC018AEC91E00E94E40AF0
:101A60008C0F9D1FDF91CF910895CF93DF930E943C
:101A7000E40AEC018AEC91E00E94E40A8C0F9D1FBD
:101A8000DF91CF9108959091D2039111FCCF91E015
:101A90009093D2039093D1032FEF2093D003109211
:101AA000CF0322E02093CE039093AD039091AD033A
:101AB000880F892B8093AD038091AC03813061F452
:101AC0001092AC038091AD038093BB008091BC0069
:101AD00083FDF8CF85EC01C085EE8093BC0080913A
:101AE000D2038130E1F38091CF03833018F48091E9
:101AF000CF0301C083E0AEEAB3E02CE633E0F901A6
:101B00009E2F921B981718F49D919193F9CF1092E4
:101B10006B0380936A030895CF93DF93CDB7DEB74D
:101B20002D970FB6F894DEBF0FBECDBF789484B565
:101B3000826084BD84B5816084BD85B5826085BDC9
:101B400085B5816085BD80916E00816080936E0057
:101B50001092810080918100826080938100809149
:101B600081008160809381008091800081608093FA
:101B700080008091B10084608093B1008091B000BA
:101B800081608093B00080917A00846080937A00B5
:101B900080917A00826080937A0080917A008160DF
:101BA00080937A0080917A00806880937A00109206
:101BB000C100E0910804F091090482E08083E09183
:101BC0000404F09105041082E0910604F0910704EA
:101BD00080E1808310921004E0910C04F0910D04D8
:101BE00086E08083E0910A04F0910B04808180619B
:101BF0008083E0910A04F0910B04808188608083E7
:101C0000E0910A04F0910B04808180688083E09168
:101C10000A04F0910B0480818F7D808364E170E081
:101C200080E090E00E9461058BE991E00E94350D13
:101C300088E0E2E4F1E0AAEEB2E001900D928A952C
:101C4000E1F780E090E0A0E8B0E480931C0190937D
:101C50001D01A0931E01B0931F018AEF91E00E9425
:101C6000AF0C60911C0170911D0180911E0190913B
:101C70001F0143E00E94CD0B87EF91E00E94D00C42
:101C800082EB91E00E94350D0AE311E0C12CD12CCA
:101C90007601D8018D918D0190E09093F7038093A8
:101CA000F60310926B0310926A031092F4031092E1
:101CB000F3030E948E076AE070E080E090E00E94EB
:101CC0006105609106017091070180910801909172
:101CD00009010E94FB248CE090E00E94F60A6AE071
:101CE00070E080E090E00E9461058091F6039091A1
:101CF000F7030E94430D85E994E00E94170485E9EB
:101D000094E00E94170485E994E00E941704B82E1D
:101D100081EC91E00E94DE0C4AE050E0C701B60180
:101D20000E94E00C85EC91E00E94DE0C6B2D70E0CF
:101D300080E090E042E00E948C0B8AEC91E00E94EF
:101D4000E40A9091BC009A7B9093BC0060E082E131
:101D50000E94F00460E083E10E94F0046AE070E019
:101D600080E090E00E94610596012F5F3F4FBFEF3A
:101D7000BB120EC0EFEFCE1ADE0AEE0AFE0AF8E042
:101D8000CF16D104E104F10409F083CF28E030E05C
:101D9000F901E75CFE4F808190E09093F703809318
:101DA000F6038DEC91E00E94DE0C62E070E0809121
:101DB000F6039091F7030E94220D10929D0210925B
:101DC0009C0266ED72E080E090E00E94E00720E077
:101DD00030E040E85FE36091D6027091D7028091D5
:101DE000D8029091D9020E948E22811137C084E0DE
:101DF00090E090939D0280939C0266ED72E00E94B9
:101E0000E0078091D6029091D702A091D802B091BC
:101E1000D9028093EA029093EB02A093EC02B09374
:101E2000ED0288E090E090939D0280939C0266ED25
:101E300072E00E94E0078091D6029091D702A091B3
:101E4000D802B091D9028093EE029093EF02A09352
:101E5000F002B093F10283EE91E002C086ED91E0D2
:101E60000E94D00C88E1E2E2F1E0A2EFB2E0019042
:101E70000D928A95E1F78CE090E090939D0280931B
:101E80009C0266ED72E00E94E00720E030E040E84E
:101E90005FE36091D6027091D7028091D802909151
:101EA000D9020E948E2281119FC080E190E0909320
:101EB0009D0280939C0266ED72E00E94E007809193
:101EC000D6029091D702A091D802B091D902809306
:101ED000F2029093F302A093F402B093F50284E12E
:101EE00090E090939D0280939C0266ED72E00E94C8
:101EF000E0078091D6029091D702A091D802B091CC
:101F0000D9028093F6029093F702A093F802B0935F
:101F1000F90288E190E090939D0280939C0266ED27
:101F200072E00E94E0078091D6029091D702A091C2
:101F3000D802B091D9028093FA029093FB02A09349
:101F4000FC02B093FD028CE190E090939D0280939F
:101F50009C0266ED72E00E94E0078091D6029091AB
:101F6000D702A091D802B091D9028093FE0290933B
:101F7000FF02A0930003B093010380E290E09093EE
:101F80009D0280939C0266ED72E00E94E0078091C2
:101F9000D6029091D702A091D802B091D902809335
:101FA000020390930303A0930403B093050384E218
:101FB00090E090939D0280939C0266ED72E00E94F7
:101FC000E0078091D6029091D702A091D802B091FB
:101FD000D9028093060390930703A0930803B0935C
:101FE000090380EC91E002C089EA91E00E94D00CE4
:101FF00010926B0310926A031092F4031092F30391
:102000000E948E076AE070E080E090E00E94610527
:10201000609106017091070180910801909109017A
:102020000E94FB248CE090E00E94F60A0EE912E088
:102030001E0125E0220E311CCE0101967C01DE013D
:102040001996BC87AB8788EF93E00E942B036C0145
:10205000909319038093180361E070E080E090E0B2
:102060000E9461051C141D0414F00C94E21C64E62B
:1020700070E080E090E00E94610588EF93E00E94AC
:102080002B035C019093190380931803109217039C
:1020900010921603C0901603D0901703CA14DB04E5
:1020A00094F488EF93E00E9409030E946825F601EA
:1020B000E256FD4F8083BFEFCB1ADB0AD0921703A5
:1020C000C0921603E7CF80919E028F3409F05FC063
:1020D00080919F02813409F05AC0412C512C320169
:1020E00053014201A0E1CA2ED12C80911A01909196
:1020F0001B010E94110920918802309189024091B0
:102100008A0250918B02C501B4010E941D244B012B
:102110005C012091840230918502409186025091A9
:102120008702C301B2010E941D242B013C01E1E0A2
:10213000CE1AD108D1F69B01AC01C501B4010E94B1
:102140001C2420E030E040E85DE30E94F42260932C
:10215000EA027093EB028093EC029093ED0285ED1E
:1021600091E00E94DE0C6091EA027091EB02809196
:10217000EC029091ED0246E050E00E94A10C60ED6F
:1021800077E080E090E00E9461050E94D408809191
:102190009E02833509F05DC080919F028D3409F065
:1021A00058C08CE893E09F938F9380EE91E09F93CB
:1021B0008F931F930F930E947B250E94740B8CE8D2
:1021C00093E00E94A61E6093D6027093D70280937C
:1021D000D8029093D90286EE91E00E94DE0C6091C5
:1021E000D6027091D7028091D8029091D90243E033
:1021F00050E00E94A10C2091D6023091D70240916C
:10220000D8025091D90260E070E08AE794E40E941D
:1022100089246093EE027093EF028093F002909312
:10222000F10281E092E00E94AF0C6091EE027091A9
:10223000EF028091F0029091F10243E050E00E94A1
:10224000A10C0E94D4080F900F900F900F900F9048
:102250000F9080919E028F34B1F580919F028D3452
:1022600091F58CE893E09F938F9380EF91E09F939B
:102270008F931F930F930E947B250E94740B8CE811
:1022800093E00E94A61E6093EA027093EB02809393
:10229000EC029093ED028DE092E00E94AF0C609111
:1022A000EA027091EB028091EC029091ED0246E01F
:1022B00050E00E94A10C0E94D4080F900F900F9044
:1022C0000F900F900F9080919E02823571F5809152
:1022D0009F02833551F520910E0330910F034091F9
:1022E00010035091110360918C0270918D028091C6
:1022F0008E0290918F020E941D2460938C02709335
:102300008D0280938E0290938F0285E192E00E946D
:10231000AF0C60918C0270918D0280918E02909131
:102320008F0246E050E00E94A10C80919E0282350F
:1023300081F480919F028F3461F410928C0210928C
:102340008D0210928E0210928F028DE292E00E9416
:10235000D00C80919E02803509F043C180919F028C
:10236000833409F03EC18BE393E00E94D00C83E3F9
:1023700093E00E94AF0C6091EA027091EB028091B1
:10238000EC029091ED0246E050E00E94A10C86E242
:1023900093E00E94AF0C6091EE027091EF02809189
:1023A000F0029091F10246E050E00E94A10C88E119
:1023B00093E00E94AF0C2091EE023091EF02409129
:1023C000F0025091F10260E070E08AE794E40E942C
:1023D000892446E050E00E94A10C80E193E00E9435
:1023E000AF0C60918C0270918D0280918E02909161
:1023F0008F0246E050E00E94A10C84E093E00E942E
:10240000AF0C60911C0170911D0180911E01909193
:102410001F0146E050E00E94A10C88EF92E00E946C
:10242000AF0C6AE070E080911A0190911B010E944C
:10243000220D89EE92E00E94AF0C6AE070E080917C
:102440001801909119010E94220D8CED92E00E94DA
:10245000AF0C6AE070E080910401909105010E9448
:10246000220D8EEC92E00E94D00C88EC92E00E944B
:10247000AF0C6091F2027091F3028091F40290919E
:10248000F50246E050E00E94A10C82EC92E00E942E
:10249000AF0C6091F6027091F7028091F802909172
:1024A000F90246E050E00E94A10C8CEB92E00E9401
:1024B000AF0C6091FA027091FB028091FC02909146
:1024C000FD0246E050E00E94A10C86EB92E00E94E3
:1024D000AF0C6091FE027091FF0280910003909119
:1024E000010346E050E00E94A10C80EB92E00E94C4
:1024F000AF0C6091020370910303809104039091EB
:10250000050346E050E00E94A10C8AEA92E00E9496
:10251000AF0C6091060370910703809108039091BE
:10252000090346E050E00E94A10C66ED72E080E0F5
:1025300090E00E94E0078EE992E00E94AF0C20E05C
:1025400030E040E85FE36091D6027091D70280915D
:10255000D8029091D9020E948E22811103C088E98D
:1025600092E002C08EE892E00E94D00C66ED72E02C
:102570008CE090E00E94E00782E892E00E94AF0CBD
:1025800020E030E040E85FE36091D6027091D7022E
:102590008091D8029091D9020E948E22811103C0AD
:1025A0008CE792E002C082E792E00E94D00C0E9489
:1025B000E5088AEC91E00E94E40A8EE592E00E9430
:1025C000AF0C8BE991E00E94350D85E492E00E940A
:1025D000D00C0E94D40868EE73E080E090E00E9486
:1025E000610580919E02843409F042C080919F026F
:1025F0008234F1F58AE191E09F938F938CE893E028
:102600009F938F9386EF91E09F938F931F930F93E8
:102610000E947B2584E593E00E94AF0C6AE070E0A5
:1026200080911A0190911B010E94220D80911A0144
:1026300090911B010FB6F894DEBF0FBECDBF8C305A
:1026400091053CF0813191053CF48D30910521F0EC
:1026500005C08CE090E002C080E190E090931B0107
:1026600080931A010E94D4081092D1021092D002D5
:1026700080919E02843409F07DC080919F02833551
:1026800009F078C084E091E09F938F938CEF91E004
:102690009F938F931F930F930E947B2580E693E077
:1026A0000E94AF0C6AE070E08091040190910501F6
:1026B0000E94220D809104019091050120917A00E1
:1026C000287F20937A000F900F900F900F900F901B
:1026D0000F9082309105B1F04CF481309105F1F406
:1026E00080917A00876080937A0036C083309105AC
:1026F00079F08430910591F480917A008460809320
:102700007A0025C080917A00866080937A0015C097
:1027100080917A00856080937A0014C020917A00BD
:10272000276020937A008230910539F0ACF0833035
:10273000910541F0049781F40AC08DEB9BEFA5E869
:10274000BFE30EC082ED9CEBA4E9BFE309C08FE8B4
:1027500090E8A4EBBFE304C080E090E0A0E8BFE312
:102760008093000190930101A0930201B0930301B3
:102770000E94D40880919E02823509F07BC080912E
:102780009F028D3409F076C0809114039091150357
:10279000892B21F485E793E00E94D00C81E090E042
:1027A000909315038093140310922101109220013D
:1027B00020911C0130911D0140911E0150911F017B
:1027C00060911A0170911B0180911801909119017B
:1027D000ADB7BEB718970FB6F894BEBF0FBEADBF6A
:1027E0001196E8E0DE2EEAEEF2E001900D92DA9426
:1027F000E1F7EDB7FEB778970FB6F894FEBF0FBEBE
:10280000EDBFADB7BEB71196F8E1DF2EE2EFF2E013
:1028100001900D92DA94E1F70E94150A6093E602A6
:102820007093E7028093E8029093E9020FB6F89460
:10283000DEBF0FBECDBF8091E2029091E302892BF3
:1028400019F481E793E002C08DE693E00E94AF0C9B
:102850004091E2025091E3026091E6027091E7023A
:102860008091E8029091E90220E030E00E940608A1
:102870000E94D40880919E02863509F046C080915E
:102880009F028D3409F041C080911403909115038B
:10289000892B21F489E893E00E94D00C81E090E03C
:1028A000909315038093140310922101109220013C
:1028B00020911C0130911D0140911E0150911F017A
:1028C00060911A0170911B0180911801909119017A
:1028D0000E94B6094B015C018091E2029091E302F3
:1028E000892B19F485E893E002C081E893E00E9407
:1028F000AF0C4091E2025091E30220E030E0C501CC
:10290000B4010E9406080E94D40880919E02863578
:10291000D1F580919F028334B1F580911403909199
:102920001503019721F485E993E00E94D00C1092E1
:10293000150310921403109221011092200181E0DE
:1029400090E090931303809312030E94D4080E9496
:102950003C050E94932260939802709399028093A1
:102960009A0290939B0210929402109295021092F8
:102970009602109297021092900210929102109279
:1029800092021092930280919E028235C1F580914D
:102990009F028334A1F58091140390911503019750
:1029A00021F48DEA93E00E94D00C10921303109250
:1029B0001203109215031092140310922101109229
:1029C00020010E94D4080E943C050E94932260933B
:1029D00098027093990280939A0290939B021092AE
:1029E0009402109295021092960210929702109201
:1029F0009002109291021092920210929302809192
:102A00009E028E3489F580919F02833569F588E1B5
:102A100091E09F938F9382E092E09F938F931F9317
:102A20000F930E947B250F900F900F900F900F90A7
:102A30000F9080911801909119011816190634F021
:102A400081E090E090931901809318018DEB93E061
:102A50000E94AF0C6AE070E080911801909119011A
:102A60000E94220D0E94D40880919E02833599F520
:102A700080919F02833579F5A8E2CA2ED12CD0929D
:102A80009D02C0929C02D601A758BD4FE2EDF2E034
:102A90008D91819332E0E63DF307D1F75091D20258
:102AA0004091D3023091D4022091D502852F942FEA
:102AB000A32FB22F89839A83AB83BC83B701C6014E
:102AC0000E94AC0784E0C80ED11C98E4C916D1045A
:102AD000B1F60E94D40880919E02873431F480912F
:102AE0009F02833511F40E94E50880919E028C3488
:102AF00071F480919F02833551F48BEC93E00E9436
:102B0000D00C81E090E090930B0180930A018091BA
:102B10009E028C3461F480919F028F3441F48DEDDC
:102B200093E00E94D00C10920B0110920A01809148
:102B30009E02803559F480919F028534E1F481E052
:102B400090E0909321018093200115C0823549F4D3
:102B500080919F02853479F4109221011092200116
:102B60000AC0883441F480919F02893421F482EFB5
:102B700093E00E94D00C80919E028F34E1F5809109
:102B80009F028735C1F58CE893E09F938F9388E08F
:102B900092E09F938F931F930F930E947B250E9437
:102BA000740B8CE893E00E94A61E6093D60270938B
:102BB000D7028093D8029093D90266ED72E084E048
:102BC00090E00E94AC0788EF93E00E94AF0C609108
:102BD000D6027091D7028091D8029091D90246E036
:102BE00050E00E94A10C0E94D4080F900F900F900B
:102BF0000F900F900F9080919E028F3401F580917D
:102C00009F028235E1F484E090E090939D028093EE
:102C10009C0266ED72E00E94E00786E194E00E946B
:102C2000AF0C6091D6027091D7028091D80290913A
:102C3000D90246E050E00E94A10C0E94D408809185
:102C40009E02833509F055C080919F02873509F0B7
:102C500050C088E090E090939D0280939C028CE8A5
:102C600093E09F938F938EE092E09F938F931F93B7
:102C70000F930E947B250E94740B8CE893E00E94C6
:102C8000A61E9B01AC016093D6027093D70280937D
:102C9000D8029093D90260E070E08AE794E40E9441
:102CA000892469837A838B839C83C0909C02D09013
:102CB0009D0257014601A4E08A0E911C0F900F90CF
:102CC0000F900F900F900F90F50161915F01C60179
:102CD0006D870E94B5236D85681719F0C6010E94A3
:102CE000BD23FFEFCF1ADF0AC814D90469F70E9489
:102CF000D40880919E028335A9F580919F02823588
:102D000089F588E090E090939D0280939C0266EDA7
:102D100072E00E94E00787E494E00E94AF0C6091AB
:102D2000D6027091D7028091D8029091D90246E0E4
:102D30000E94CD0B86E394E00E94AF0C2091D60256
:102D40003091D7024091D8025091D90260E070E0F2
:102D50008AE794E40E94892442E050E00E94A10C9A
:102D60000E94D40880919E02813409F027C180918D
:102D70009F02823509F022C180E190E090939D028C
:102D800080939C0266ED72E00E94E0078091D6027B
:102D90009091D702A091D802B091D9028093F2020B
:102DA0009093F302A093F402B093F5026AE070E00E
:102DB00080E090E00E94610584E190E090939D02A4
:102DC00080939C0266ED72E00E94E0078091D6023B
:102DD0009091D702A091D802B091D9028093F602C7
:102DE0009093F702A093F802B093F9026AE070E0C2
:102DF00080E090E00E94610588E190E090939D0260
:102E000080939C0266ED72E00E94E0078091D602FA
:102E10009091D702A091D802B091D9028093FA0282
:102E20009093FB02A093FC02B093FD026AE070E075
:102E300080E090E00E9461058CE190E090939D021B
:102E400080939C0266ED72E00E94E0078091D602BA
:102E50009091D702A091D802B091D9028093FE023E
:102E60009093FF02A0930003B09301036AE070E027
:102E700080E090E00E94610580E290E090939D02E6
:102E800080939C0266ED72E00E94E0078091D6027A
:102E90009091D702A091D802B091D90280930203F9
:102EA00090930303A0930403B09305036AE070E0DA
:102EB00080E090E00E94610584E290E090939D02A2
:102EC00080939C0266ED72E00E94E0078091D6023A
:102ED0009091D702A091D802B091D90280930603B5
:102EE00090930703A0930803B09309036AE070E08E
:102EF00080E090E00E9461058BEA94E00E94AF0CB4
:102F00006091F2027091F3028091F4029091F502C7
:102F100046E050E00E94A10C8BE994E00E94AF0CC7
:102F20006091F6027091F7028091F8029091F90297
:102F300046E050E00E94A10C8BE894E00E94AF0CA8
:102F40006091FA027091FB028091FC029091FD0267
:102F500046E050E00E94A10C8BE794E00E94AF0C89
:102F60006091FE027091FF02809100039091010335
:102F700046E050E00E94A10C8BE694E00E94AF0C6A
:102F80006091020370910303809104039091050303
:102F900046E050E00E94A10C8BE594E00E94AF0C4B
:102FA00060910603709107038091080390910903D3
:102FB00046E050E00E94A10C0E94D40880919E023D
:102FC000813409F06EC080919F028D3409F069C090
:102FD0008CE893E09F938F93FF92EF9284E192E0CD
:102FE0009F938F931F930F930E947B250E94740BD6
:102FF0008CE893E00E94A61E6093D6027093D702DD
:103000008093D8029093D9020FB6F894DEBF0FBE1A
:10301000CDBF29813A812230310549F17CF4211557
:103020003105E1F021303105E1F56093F60270934E
:10303000F7028093F8029093F90233C024303105EF
:1030400041F1F4F02530310561F56093060370938A
:103050000703809308039093090323C06093F2024F
:103060007093F3028093F4029093F5021AC0609378
:10307000FA027093FB028093FC029093FD0211C050
:103080006093FE027093FF0280930003909301030C
:1030900008C060930203709303038093040390932A
:1030A000050380919E02833409F03FC080919F0206
:1030B0008635D9F58CE893E09F938F938DE192E06C
:1030C0009F938F931F930F930E947B258CE893E02F
:1030D0000E94A61E0F900F900F900F900F900F90D0
:1030E00020E030E040E85FE30E948E2281110DC0B5
:1030F00080E090E0A0E8BFE38093D6029093D702EF
:10310000A093D802B093D90208C01092D6021092B0
:10311000D7021092D8021092D90266ED72E080E0D8
:1031200090E00E94AC070E94D40880919E028C34EB
:1031300009F048C080919F02863509F043C08CE0B9
:1031400090E090939D0280939C028CE893E09F9383
:103150008F9383E292E09F938F931F930F930E942C
:103160007B258CE893E00E94A61E0F900F900F9095
:103170000F900F900F9020E030E040E85FE30E9456
:103180008E2281110DC080E090E0A0E8BFE3809323
:10319000D6029093D702A093D802B093D90208C068
:1031A0001092D6021092D7021092D8021092D90231
:1031B00066ED72E080919C0290919D020E94AC07A6
:1031C0000E94D40880919E02853471F480919F0200
:1031D000833551F488E090E090939D0280939C02A7
:1031E0006EEE72E00E94AC0780919E02853471F40D
:1031F00080919F028F3451F484E090E090939D027F
:1032000080939C026AEE72E00E94AC0780919E025D
:10321000853409F067C080919F02813409F062C053
:1032200080E190E090939D0280939C0262EF72E0B7
:103230000E94AC076AE070E080E090E00E946105C7
:1032400084E190E090939D0280939C0266EF72E08F
:103250000E94AC076AE070E080E090E00E946105A7
:1032600088E190E090939D0280939C026AEF72E067
:103270000E94AC076AE070E080E090E00E94610587
:103280008CE190E090939D0280939C026EEF72E03F
:103290000E94AC076AE070E080E090E00E94610567
:1032A00080E290E090939D0280939C0262E073E044
:1032B0000E94AC076AE070E080E090E00E94610547
:1032C00084E290E090939D0280939C0266E073E01C
:1032D0000E94AC076AE070E080E090E00E94610527
:1032E0000E94D40880919E028134E9F580919F026A
:1032F0008234C9F58CE090E090939D0280939C020B
:103300008CE893E09F938F9389E292E09F938F9351
:103310001F930F930E947B258CE893E00E94A61ECA
:103320006093D6027093D7028093D8029093D9020B
:103330000F900F900F900F900F900F9020E030E0C3
:1033400040E85FE30E948E22882329F01092E30276
:103350001092E20206C081E090E09093E302809335
:10336000E2020E94D40880919E028C3409F081C050
:1033700080919F02803509F07CC08CE090E09093B2
:103380009D0280939C028CE893E09F938F938FE241
:1033900092E09F938F931F930F930E947B258CE85D
:1033A00093E00E94A61E6093D6027093D70280938A
:1033B000D8029093D9020F900F900F900F900F901A
:1033C0000F9020E030E040E85FE30E948E228823E7
:1033D00029F0109217011092160149C081E090E087
:1033E000909317018093160120911C0130911D01CB
:1033F00040911E0150911F0160911A0170911B01B3
:103400008091180190911901ADB7BEB718970FB60A
:10341000F894BEBF0FBEADBF1196E8E0DE2EEAEE17
:10342000F2E001900D92DA94E1F7EDB7FEB77897EC
:103430000FB6F894FEBF0FBEEDBFADB7BEB7119685
:10344000F8E1DF2EE2EFF2E001900D92DA94E1F77D
:103450000E94150A6093DE027093DF028093E002FF
:103460009093E1020FB6F894DEBF0FBECDBF0E946D
:10347000D40880919E02843509F042C080919F0259
:103480008335F1F5FF92EF9285E392E09F938F935E
:103490001F930F930E947B250F900F900F900F901A
:1034A0000F900F9089819A81009721F181309105C9
:1034B00009F590931501809314010E943C050E9428
:1034C0009322609398027093990280939A0290934A
:1034D0009B02109294021092950210929602109202
:1034E0009702109290021092910210929202109202
:1034F000930204C010921501109214010E94D40886
:1035000080919E028035E1F580919F028734C1F55C
:10351000FF92EF928BE392E09F938F931F930F9311
:103520000E947B250F900F900F900F900F900F909F
:1035300089819A818230910559F0A4F084309105F7
:1035400061F0089779F480E090E0A0E0B1E40EC06B
:1035500080E090E0A0E0B0E409C080E090E0A0E866
:10356000B0E404C080E090E0A0E8BFE380930601EF
:1035700090930701A0930801B09309010E94D40819
:1035800080919E02813539F480919F02813519F432
:10359000E0E0F0E0099580919E02873509F050C087
:1035A00080919F02863409F04BC01D821E821F82CB
:1035B000188619821A821B821C828CE893E09F93E2
:1035C0008F93FC85FF932B852F9381E492E09F934B
:1035D0008F931F930F930E947B250E94740B898504
:1035E0009A85880F991F880F991F90939D02809349
:1035F0009C028CE893E00E94A61E6D837E838F83DD
:103600009887C0909C02D0909D02B701C6010E948D
:10361000E0070FB6F894DEBF0FBECDBF2D813E810F
:103620004F81588569817A818B819C810E948E228D
:10363000882321F0B101C6010E94AC070E94D40882
:1036400080919E02823509F041C080919F028634AC
:10365000E9F519821A821B821C823F922F928AE41A
:1036600092E09F938F931F930F930E947B258D81F0
:103670009E81880F991F880F991F90939D028093B8
:103680009C02B7010E94E00780E592E00E94DE0CF8
:103690006D817E81072E000C880B990B4AE050E06B
:1036A0000E94E00C84E592E00E94DE0C69817A8140
:1036B0008B819C8146E050E00E94A10C0E94D408BE
:1036C0000F900F900F900F900F900F9080919E028F
:1036D0008235B1F480919F02843591F489E592E0BE
:1036E0000E94DE0C60911001709111018091120115
:1036F0009091130146E050E00E94A10C0E94D40872
:1037000080919E02873509F052C080919F028435D6
:1037100009F04DC08CE893E09F938F938DE592E084
:103720009F938F931F930F930E947B250E94740B8E
:103730008CE893E00E94A61E4B015C010F900F9055
:103740000F900F900F900F9020E030E0A9010E94A1
:103750008E2287FD0AC020E030E040E85FE3C5012B
:10376000B4010E943125181644F4ADEC8A2EACEC5D
:103770009A2EACE4AA2EAFE3BA2E8092100190925A
:103780001101A0921201B0921301A501940160E011
:1037900070E080E89FE30E941C2460930C0170930A
:1037A0000D0180930E0190930F010E94D408809127
:1037B0009E02803509F08CC080919F02833509F00C
:1037C00087C08091F6039091F7030E94430D90917A
:1037D0006A0380916B03981721F185E994E00E94B8
:1037E000170485E994E00E94170485EE94E00E9496
:1037F000AF0C85E994E00E941704BC01990F880B77
:10380000990B42E00E948C0B87ED94E00E94AF0C74
:1038100062E070E08091F6039091F7030E94220D20
:10382000D6CF81ED94E00E94AF0C609116017091AB
:103830001701072E000C880B990B4AE050E00E94FC
:10384000E00C8FEC94E00E94AF0C6091100170913D
:103850001101809112019091130142E00E94CD0B61
:103860008DEC94E00E94AF0C60910C0170910D0101
:1038700080910E0190910F0142E050E00E94A10C56
:1038800087EC94E00E94AF0C6AE070E08091E40263
:103890009091E5020E94220D81EC94E00E94AF0C11
:1038A0006AE070E080910A0190910B010E94220D64
:1038B0008BEB94E00E94AF0C6091060170910701C0
:1038C000809108019091090142E050E00E94A10C12
:1038D00080919E02833409F073C080919F028134ED
:1038E00009F06EC08CE893E09F938F9383E692E09B
:1038F0009F938F931F930F930E947B258CE893E0F7
:103900000E94A61E0F900F900F900F900F900F9097
:1039100020E030E040E85FE30E948E22882329F017
:103920001092E5021092E40249C081E090E0909389
:10393000E5028093E40220911C0130911D01409129
:103940001E0150911F0160911A0170911B0180911D
:10395000180190911901ADB7BEB718970FB6F8943A
:10396000BEBF0FBEADBF1196E8E0DE2EEAEEF2E07C
:1039700001900D92DA94E1F7EDB7FEB778970FB6A4
:10398000F894FEBF0FBEEDBFADB7BEB71196F8E11C
:10399000DF2EE2EFF2E001900D92DA94E1F70E945F
:1039A000150A60930A0370930B0380930C039093A2
:1039B0000D030FB6F894DEBF0FBECDBF0E94D40832
:1039C0000E94D4088091140390911503892B09F06B
:1039D00060C18091200190912101892B09F059C18A
:1039E000E0911203F091130320911C0130911D010D
:1039F00040911E0150911F0160911A0170911B01AD
:103A00008091180190911901319709F4CDC08090EF
:103A10000E0390900F03A0901003B09011038092BA
:103A20000A0390920B03A0920C03B0920D03ADB762
:103A3000BEB718970FB6F894BEBF0FBEADBF1196B4
:103A4000E8E0DE2EEAEEF2E001900D92DA94E1F782
:103A5000EDB7FEB778970FB6F894FEBF0FBEEDBF77
:103A6000ADB7BEB71196F8E1DF2EE2EFF2E00190BC
:103A70000D92DA94E1F70E94150A6093E6027093C2
:103A8000E7028093E8029093E90260930E0370933B
:103A90000F0380931003909311030FB6F894DEBFC9
:103AA0000FBECDBF20911601309117012130310595
:103AB000A1F5209110013091110140911201509116
:103AC00013010E94F4222B013C012091DE0230916F
:103AD000DF024091E0025091E10260910C0170918F
:103AE0000D0180910E0190910F010E94F4229B0123
:103AF000AC01C301B2010E941D246093DE027093E9
:103B0000DF028093E0029093E1026093E6027093FB
:103B1000E7028093E8029093E9028091E402909199
:103B2000E502019761F52091E6023091E7024091AC
:103B3000E8025091E9026091DA027091DB02809113
:103B4000DC029091DD020E941D24A50194010E94D7
:103B50001C2426E636E646E65FE30E94F4226093E4
:103B6000DA027093DB028093DC029093DD026093B3
:103B7000E6027093E7028093E8029093E902809155
:103B8000E2029091E302892B19F48DEF94E065C075
:103B90008091140190911501892B19F089EF94E01F
:103BA0005CC085EF94E059C00E94B6096093E602BC
:103BB0007093E7028093E8029093E9022091160146
:103BC0003091170121303105A1F52091100130917C
:103BD000110140911201509113010E94F4224B01F6
:103BE0005C012091DE023091DF024091E0025091B1
:103BF000E10260910C0170910D0180910E01909194
:103C00000F010E94F4229B01AC01C501B4010E9486
:103C10001D246093DE027093DF028093E002909394
:103C2000E1026093E6027093E7028093E8029093CA
:103C3000E9028091E2029091E302892B19F481EF6D
:103C400094E00BC08091140190911501892B19F01B
:103C50008DEE94E002C089EE94E00E94AF0C88EFF4
:103C600093E00E94A9032091140130911501409125
:103C7000E2025091E3026091E6027091E7028091C6
:103C8000E8029091E9020E94060888EF93E00E9402
:103C9000A9030E94CB030C942310E8EFF3E01382F6
:103CA000128288EE93E0A0E0B0E084839583A6833F
:103CB000B7832BE731E03183208325EC30E0358773
:103CC000248724EC30E03787268720EC30E0318BE6
:103CD000208B21EC30E0338B228B22EC30E0358BD3
:103CE000248B26EC30E0378B268B118E128E138EB0
:103CF000148EE5E9F4E01382128284839583A6830F
:103D0000B7838DE891E0918380830895EF920F93BC
:103D10001F93CF93DF93E80147FD02C034E001C059
:103D200034E1E42F440FFF0BF7FF03C0F195E19559
:103D3000F109E32E022F2E2FAE010E94AA1ECE0102
:103D4000DF91CF911F910F91EF900895662777270C
:103D50000C9438204F925F926F927F929F92AF9215
:103D6000BF92CF92DF92EF92FF920F931F93CF9368
:103D7000DF93CDB7DEB729970FB6F894DEBF0FBE3D
:103D8000CDBF6A01122FB02E2BE3201720F0FF24A5
:103D9000F394F00E02C0BCE3FB2E0F2D27E0AE0122
:103DA0004F5F5F4F0E949521AC018981982F9970D8
:103DB000913031F0E1FC06C0E0FE06C090E205C0A3
:103DC0009DE203C09BE201C090E0EE2DE07183FF15
:103DD0003CC0911102C083E001C084E0811718F457
:103DE000212F281B01C020E0E1110BC0F601822F1A
:103DF00030E2882319F031938150FBCFC20ED11CE1
:103E000020E0992329F0D6019C93F60131966F01A9
:103E1000C6010396E2FE0AC03EE4D6013C9341E4AB
:103E200011964C93119712963C9306C03EE6F6010C
:103E3000308341E641833283FC01322F40E2332359
:103E400009F442C041933150FACF82FF44C091112E
:103E500002C083E001C084E0811718F4212F281BE1
:103E600001C020E0E1110BC0F601822F30E288236F
:103E700019F031938150FBCFC20ED11C20E0992361
:103E800029F0D6019C93F60131966F01C601039685
:103E9000E2FE0BC039E4D6013C933EE411963C931C
:103EA000119736E412963C9307C039E6F601308349
:103EB0003EE6318336E63283FC01322F40E2332383
:103EC00019F041933150FBCFFC01E20FF11D10823C
:103ED0008EEF9FEFB7C0F1E0911101C0F0E06F2FBE
:103EE00070E01416150624F49A012F5F3F4F02C0AC
:103EF00021E030E0260F371FBB2029F06B2D70E04A
:103F00006F5F7F4F02C060E070E0260F371F612FA8
:103F100070E0261737071CF4121B212F01C020E088
:103F20003E2D387159F4D601322F60E2332319F057
:103F30006D933150FBCFC20ED11C20E0FF2331F036
:103F4000D6019C93B6016F5F7F4F6B01E1110BC0EF
:103F5000F601922F30E3992319F031939150FBCF62
:103F6000C20ED11C20E09F2D940F3A81782F7071E2
:103F7000A72E84FF03C0313309F49150191624F49D
:103F8000993018F098E001C091E0E42F852F57FF99
:103F900002C0E0E080E06E2F782FE0E0F0E0AEE2DB
:103FA0009A2E3A01691A71082A01461A570A0B2DEE
:103FB00010E01195019511096F3F8FEF780729F4F3
:103FC000D6019C92C60101966C014617570784F0F2
:103FD000661677066CF47F01E40CF51CA1E0B0E0F6
:103FE000AC0FBD1FEA0EFB1ED7011196BC9002C09C
:103FF00090E3B92E615071093196C60101967C019A
:104000006017710724F0D601BC926C01D5CF6417FC
:10401000750741F4363320F4353321F4A11002C082
:1040200081E3B82EF601B082F701822F90E2882357
:1040300019F091938150FBCFF701E20FF11D10822F
:1040400080E090E029960FB6F894DEBF0FBECDBF9A
:10405000DF91CF911F910F91FF90EF90DF90CF9064
:10406000BF90AF909F907F906F905F904F9008951A
:10407000A0E0B0E0EEE3F0E20C94DA23EC017B0187
:104080006115710519F0DB018D939C938E010F5F13
:104090001F4F7880872D90E00E946D22892B11F0B0
:1040A000E801F4CFBDE27B1205C00F5F1F4F79809E
:1040B000C1E008C0EBE27E1204C08E010E5F1F4F0C
:1040C0007980C0E06801F1E0CF1AD10843E050E008
:1040D00060E770E0C6010E947622892BF1F4680146
:1040E00022E0C20ED11C45E050E06BE670E0C60154
:1040F0000E947622892B21F4680187E0C80ED11C2A
:10410000E114F10419F0D701CD92DC92C111FFC086
:1041100060E070E080E89FE703C143E050E068E6BC
:1041200070E0C6010E947622892B51F4E114F1045B
:1041300009F4F2C00E5F1F4FF70111830083ECC03A
:10414000680160E070E0CB0100E010E0F601D0ED26
:10415000D70DDA3058F52C2F2260622E2C2F2870C4
:10416000C2FF05C0211128C00F5F1F4F25C02223A9
:1041700011F001501109A5E0B0E09B01AC010E94D3
:10418000CB234B015C01880C991CAA1CBB1CC501EC
:10419000B4016D0F711D811D911D6839A9E97A0760
:1041A0008A07A9E19A0740F0C66005C0DE3F51F4D6
:1041B000C3FD44C0C8606C2EBFEFCB1ADB0A708011
:1041C000C62DC4CF2D2F2F7D2531C1F540814D3215
:1041D00011F4C06106C04B3221F0319621E030E08D
:1041E00006C03296D60111964C9122E030E0A0ED47
:1041F000A40FAA3018F0E21BF30B20C040E050E0FF
:104200004038BCE05B075CF49A01220F331F220F99
:10421000331F420F531F440F551F4A0F511D319634
:10422000DF0111972C91A0EDA20FAA3048F3C4FF33
:1042300003C0519541955109040F151FC1FF07C0D7
:10424000E114F10421F03197D701ED93FC930E9422
:104250009322C370C33019F06B017C0106C06B015F
:104260007C01F7FAF094F7F8F09420E030E0A9012F
:10427000C701B6010E948E22882309F445C017FFAA
:1042800006C0119501951109C7E8D0E002C0CFE939
:10429000D0E05E01B8E1AB1AB1084601BE2DAF2DEA
:1042A00090E2E92EF12C0E151F0584F0FE012591F8
:1042B000359145915491B4018B2F9A2F0E94F4228D
:1042C0004B01B82FA92F0E191F09EDCF2497F59494
:1042D000E794CA15DB0539F76401EB2EFA2E8E2D13
:1042E000880F8F2D881F8F3F49F020E030E0A90113
:1042F000C701B6010E948E22811106C082E290E0C1
:104300009093A3048093A204C701B60109C060E0A2
:1043100070E080E89FEF04C060E070E080EC9FE711
:10432000CDB7DEB7EEE00C94F623283008F027E096
:104330003327DA01990F311D87FD916000966105E1
:10434000710539F432602E5F3D9330E32A95E1F731
:1043500008959F3F30F080387105610509F03C5F9A
:104360003C5F3D93913008F08068911DDF93CF93BF
:104370001F930F93FF92EF92192F987F9695E92F35
:1043800096959695E90FFF27E350FF4F992733271E
:10439000EE24FF24A701E70105900894079428F470
:1043A000360FE71EF81E491F511D660F771F881F25
:1043B000991F0694A1F70590079428F4E70EF81EBC
:1043C000491F561FC11D770F881F991F661F06942E
:1043D000A1F70590079428F4F80E491F561FC71F30
:1043E000D11D880F991F661F771F0694A1F70590AE
:1043F000079420F4490F561FC71FD81F990F661F37
:10440000771F881F0694A9F784911095177041F0C3
:10441000D695C79557954795F794E7941A95C1F7A0
:10442000E3EAF0E0689415901591359165919591C6
:1044300005907FE27395E118F10A430B560BC90B07
:10444000D009C0F7E10CF11E431F561FC91FD01D34
:104450007EF4703311F48A95E6CFE894015030F081
:10446000080F0AF40027021708F4202F2395022FC3
:104470007A3328F079E37D932A95E9F710C07D938C
:104480002A9589F606949795679537951795179409
:10449000E118F10A430B560BC90BD00998F023958C
:1044A0007E9173957A3308F070E37C932013B8F70C
:1044B0007E9170617D9330F0839571E37D9370E31D
:1044C0002A95E1F71124EF90FF900F911F91CF9162
:1044D000DF91992787FD9095089591110C946123A0
:1044E000803219F089508550C8F70895FB01DC012E
:1044F0004150504088F08D9181341CF08B350CF484
:10450000805E659161341CF06B350CF4605E861B37
:10451000611171F3990B0895881BFCCF0E94D02282
:1045200008F481E00895E89409C097FB3EF4909563
:104530008095709561957F4F8F4F9F4F9923A9F07C
:10454000F92F96E9BB279395F6958795779567950B
:10455000B795F111F8CFFAF4BB0F11F460FF1BC04F
:104560006F5F7F4F8F4F9F4F16C0882311F096E9E2
:1045700011C0772321F09EE8872F762F05C0662390
:1045800071F096E8862F70E060E02AF09A95660F49
:10459000771F881FDAF7880F9695879597F9089502
:1045A000990F0008550FAA0BE0E8FEEF1616170644
:1045B000E807F907C0F012161306E407F50798F0AC
:1045C000621B730B840B950B39F40A2661F0232BC5
:1045D000242B252B21F408950A2609F4A140A69541
:1045E0008FEF811D811D08950E9407230C947B236A
:1045F0000E946D2338F00E94742320F0952311F05F
:104600000C9464230C946A2311240C94AF230E940D
:104610008C2370F3959FC1F3950F50E0551F629F57
:10462000F001729FBB27F00DB11D639FAA27F00D0B
:10463000B11DAA1F649F6627B00DA11D661F829F32
:104640002227B00DA11D621F739FB00DA11D621F17
:10465000839FA00D611D221F749F3327A00D611D34
:10466000231F849F600D211D822F762F6A2F112416
:104670009F5750409AF0F1F088234AF0EE0FFF1F49
:10468000BB1F661F771F881F91505040A9F79E3FA0
:10469000510580F00C9464230C94AF235F3FE4F346
:1046A000983ED4F3869577956795B795F795E795F6
:1046B0009F5FC1F7FE2B880F911D9695879597F9FF
:1046C000089599278827089597F99F6780E870E0F3
:1046D00060E008959FEF80EC089500240A94161678
:1046E000170618060906089500240A9412161306E0
:1046F000140605060895092E0394000C11F488236E
:1047000052F0BB0F40F4BF2B11F460FF04C06F5F89
:104710007F4F8F4F9F4F089557FD9058440F551F5F
:1047200059F05F3F71F04795880F97FB991F61F033
:104730009F3F79F087950895121613061406551FAA
:10474000F2CF4695F1DF08C0161617061806991F16
:10475000F1CF86957105610508940895E894BB270B
:1047600066277727CB0197F90895F999FECF92BD77
:1047700081BDF89A992780B50895262FF999FECF23
:104780001FBA92BD81BD20BD0FB6F894FA9AF99A6E
:104790000FBE019608950E940D24A59F900DB49F11
:1047A000900DA49F800D911D112408952F923F928A
:1047B0004F925F926F927F928F929F92AF92BF9231
:1047C000CF92DF92EF92FF920F931F93CF93DF93DD
:1047D000CDB7DEB7CA1BDB0B0FB6F894DEBF0FBE3A
:1047E000CDBF09942A88398848885F846E847D8487
:1047F0008C849B84AA84B984C884DF80EE80FD8089
:104800000C811B81AA81B981CE0FD11D0FB6F894FE
:10481000DEBF0FBECDBFED010895A29FB001B39FD3
:10482000C001A39F700D811D1124911DB29F700DB9
:10483000811D1124911D08955058BB27AA270E945D
:1048400034240C947B230E946D2338F00E9474233F
:1048500020F039F49F3F19F426F40C946A230EF4E7
:10486000E095E7FB0C946423E92F0E948C2358F316
:10487000BA17620773078407950720F079F4A6F545
:104880000C94AE230EF4E0950B2EBA2FA02D0B0145
:10489000B90190010C01CA01A0011124FF27591B85
:1048A00099F0593F50F4503E68F11A16F040A22F8B
:1048B000232F342F4427585FF3CF469537952795FC
:1048C000A795F0405395C9F77EF41F16BA0B620BFB
:1048D000730B840BBAF09150A1F0FF0FBB1F661F42
:1048E000771F881FC2F70EC0BA0F621F731F841F85
:1048F00048F4879577956795B795F7959E3F08F0AB
:10490000B0CF9395880F08F09927EE0F979587956C
:1049100008950E949D240C947B230E94742358F0D8
:104920000E946D2340F029F45F3F29F00C9464232A
:1049300051110C94AF230C946A230E948C2368F3CA
:104940009923B1F3552391F3951B550BBB27AA2748
:1049500062177307840738F09F5F5F4F220F331F82
:10496000441FAA1FA9F335D00E2E3AF0E0E832D04A
:1049700091505040E695001CCAF72BD0FE2F29D04D
:10498000660F771F881FBB1F261737074807AB071F
:10499000B0E809F0BB0B802DBF01FF2793585F4F94
:1049A0003AF09E3F510578F00C9464230C94AF23A9
:1049B0005F3FE4F3983ED4F3869577956795B79576
:1049C000F7959F5FC9F7880F911D9695879597F981
:1049D0000895E1E0660F771F881FBB1F62177307FA
:1049E0008407BA0720F0621B730B840BBA0BEE1F0F
:1049F00088F7E09508950E9402256894B1110C94FF
:104A0000AF2308950E94942388F09F5798F0B92F00
:104A10009927B751B0F0E1F0660F771F881F991FF3
:104A20001AF0BA95C9F714C0B13091F00E94AE23C4
:104A3000B1E008950C94AE23672F782F8827B85FD4
:104A400039F0B93FCCF3869577956795B395D9F74B
:104A50003EF490958095709561957F4F8F4F9F4F55
:104A600008950E94D02208F48FEF08950E94D0226A
:104A7000880B990B0895A1E21A2EAA1BBB1BFD01FE
:104A80000DC0AA1FBB1FEE1FFF1FA217B307E4072D
:104A9000F50720F0A21BB30BE40BF50B661F771F85
:104AA000881F991F1A9469F7609570958095909565
:104AB0009B01AC01BD01CF010895EE0FFF1F0590D2
:104AC000F491E02D099481E090E0F8940C94A428EE
:104AD0009111089581568A5108F48052855808959D
:104AE000FB01DC010D900020E9F7119701900D9278
:104AF0000020E1F70895AEE0B0E0E1E8F5E20C94C3
:104B0000E62385E08C838B899C899A838983AE0117
:104B1000495E5F4F6D897E89CE0101960E94142700
:104B20002E96E2E00C94022420FD09C0FC0123FD36
:104B300005C022FF02C073836283518340830895BE
:104B400044FD10C046FD10C0DB01FC01AA0FBB1FD5
:104B5000EE1FFF1F1094D1F76A0F7B1F8E1F9F1F40
:104B600031E003C033E001C034E0660F771F881FD7
:104B7000991F3150D1F7620F711D811D911D08954C
:104B80000F931F93CF93DF938C01C8010E944D2890
:104B9000EC0197FD08C00E946D22892BB1F7B80186
:104BA000CE010E948B28CE01DF91CF911F910F91F2
:104BB0000895A1E0B0E0EFEDF5E20C94DC238C0168
:104BC000C62E7A0129830E944D28AC0155272981E0
:104BD0004B32510521F04D32510569F42068CA94D9
:104BE000C11002C080E076C0C80129830E944D2810
:104BF000298197FDF7CF322F3D7FD32E322F30738F
:104C000049F5803339F5BB24BA94BC0C09F44EC085
:104C1000C80129830E944D28298197FD47C0382F5C
:104C20003F7D383569F48D2D8264D82ECA94CA949C
:104C3000CC20E1F1C8010E944D2897FF0BC036C07F
:104C400026FF04C02D2D2260D22E03C03D2D3261DF
:104C5000D32ECB2C812C912C540120ED280F283001
:104C600080F0D4FE04C0B8010E948B281CC02A30FA
:104C700040F0D6FEF8CF2F7D3FEE320F363098F75A
:104C800027504D2DC501B4010E94A0254B015C01A8
:104C90008D2D8260D82ECA94CC2059F0C8010E9474
:104CA0004D2897FFDACFD1FC04C09CCF812C912CEA
:104CB0005401D7FE08C0B094A09490948094811CB5
:104CC000911CA11CB11C2D2DB501A401C7010E948E
:104CD000942581E02196ECE00C94F823A1E2B0E069
:104CE000E4E7F6E20C94DA235C017A01CE01019646
:104CF0006C0180E2F60111928A95E9F7F501838053
:104D000040E050E0912C712C70E0A1E0B0E0F9019E
:104D100083FC859183FE81918F01982F9F018111E2
:104D200003C080E090E07CC08E3519F44115510538
:104D300049F1E72FF0E0E417F5073CF48D3559F120
:104D40008D3219F4772001F103C0711001C0982E43
:104D5000892F8695869586958601080F111D892FC6
:104D600087703D0101C0660C8A95EAF7F8018081E1
:104D700086298083991559F0991510F49F5FE8CF23
:104D80009150E6CF71E004C07724739401C0712C78
:104D90004F5F5F4FBCCF772019F08E8180628E838A
:104DA000711103C09924939416C0F6019E012F5DE2
:104DB0003F4F808180958193E217F307D1F7F2CFBF
:104DC000E114F10429F0F7018083C70101967C0109
:104DD0006150912CF9F0C50169A30E944D2869A189
:104DE00097FD16C0282F269526952695F601E20FE9
:104DF000F11D208130E0AC014770552702C0359588
:104E000027954A95E2F720FDDBCFB5010E948B285C
:104E1000911087CFE114F10411F0F7011082C8015D
:104E2000A196EEE00C94F6234F925F927F928F92C0
:104E30009F92AF92BF92CF92DF92EF92FF920F9329
:104E40001F93CF93DF931F92CDB7DEB76C012B0179
:104E50005A01FC0117821682712CF601F380F201CF
:104E6000F3FC8591F3FE8191382F2F01882309F4FB
:104E7000F3C090E039830E946D223981892B21F0A3
:104E8000C6010E94C025E9CF353241F4F201F3FC9E
:104E90003591F3FE31912F01353269F4C601398322
:104EA0000E944D28398197FDD5C03817B1F2B6015F
:104EB0000E948B28D1C03A3239F4F3FC3591F3FECD
:104EC00031912F0151E001C050E0420110E020ED8E
:104ED000230F2A3090F45260612F70E080E090E060
:104EE00040E259830E94A025162FF401F3FC35916E
:104EF000F3FE31914F015981EACF052F232F240171
:104F000051FF03C0111102C0A7C01FEF383619F0BE
:104F10003C3659F011C0F401F3FC2591F3FE2191C8
:104F20002F01283649F4052F08600460F201F3FCD4
:104F30002591F3FE21912F01222309F48DC0622FC8
:104F400070E08DE991E029830E9442282981892B14
:104F500009F482C000FD07C0F501E080F180C501C1
:104F600002965C0102C0E12CF12C2E3651F4F601C0
:104F70004681578160E070E0202FC7010E94942590
:104F80006CCF233691F401FF11E0C6010E944D2839
:104F900097FD60C0E114F10429F0F7018083C70197
:104FA00001967C01115089F751C02B3559F49201BB
:104FB000A701612FC6010E946E262C01892B09F0E2
:104FC00045C03FC0C60129830E94C025298197FDA5
:104FD00041C02F3659F128F4243631F1293649F1F0
:104FE00027C0233769F02537F9F022C0E114F10416
:104FF00029F0F7018082C70101967C01115071F000
:10500000C6010E944D284C0197FD08C00E946D22E8
:10501000892B61F3B601C4010E948B28E114F104CD
:10502000A9F0F701108212C0006203C0006101C044
:105030000064202FA701612FC6010E94D92581118C
:1050400005C0F6018381807329F406C000FD05CFF9
:10505000739403CF772019F0872D90E002C08FEF73
:105060009FEF0F90DF91CF911F910F91FF90EF90E5
:10507000DF90CF90BF90AF909F908F907F905F9088
:105080004F900895FC010590061621F00020D9F7F5
:10509000C00108953197CF010895CF93DF93EC01BC
:1050A0002B8120FF33C026FF0AC02F7B2B838E81EC
:1050B0009F8101969F838E838A8190E029C022FF81
:1050C0000FC0E881F9818081082E000C990B0097B0
:1050D00019F420622B831AC03196F983E8830EC03D
:1050E000EA85FB85099597FF09C02B81019611F090
:1050F00080E201C080E1822B8B8308C02E813F813A
:105100002F5F3F4F3F832E83992702C08FEF9FEF82
:10511000DF91CF910895FB01238120FF12C026FD6E
:1051200010C08F3F3FEF930761F082832F7D206493
:10513000238326813781215031093783268399279C
:0C51400008958FEF9FEF0895F894FFCFC3
:10514C000000803F04000000803F0100CDCCCC3D2E
:10515C006666663F010001000100100000008040FF
:10516C000100000000000000803F00000000000073
:10517C00803F000000000000904148494A4B4C4DD4
:10518C004E4F000000005D7411420000E040000032
:10519C00FA420000F84100007C420000FA42000094
:1051AC00003A000000380000003900008038000090
:1051BC000038000C04080C000000006203CF02FA57
:1051CC0002A9032B0309031D030000000063043331
:1051DC0004930407042B04170408044D445455533A
:1051EC00424D41472E5637422E323032303031311B
:1051FC003000496E697469616C697A652041444379
:10520C000020202000202D2042000D0A00414444A3
:10521C00523A204200566F6666736574203D20003A
:10522C00534D202573006D562F562F4F653A200095
:10523C004F4D2025730025732025640044532025F1
:10524C0064004E53202564004F572025730053579C
:10525C0020257300414D20256420257300435620E2
:10526C002573004C56202573004142202573004CB9
:10527C00502025730054532025640050472025648A
:10528C0000574620256420257300524620256400D3
:10529C0052465B005D3A20200052542000575420A7
:1052AC002573004341202573002C0053656E736FEA
:1052BC00722049443A2020006E616E00696E6600CF
:0452CC006F76660093
:107E0000112484B714BE81FFF0D085E080938100F7
:107E100082E08093C00088E18093C10086E0809377
:107E2000C20080E18093C4008EE0C9D0259A86E02C
:107E300020E33CEF91E0309385002093840096BBD3
:107E4000B09BFECF1D9AA8958150A9F7CC24DD24C4
:107E500088248394B5E0AB2EA1E19A2EF3E0BF2EE7
:107E6000A2D0813461F49FD0082FAFD0023811F036
:107E7000013811F484E001C083E08DD089C08234E0
:107E800011F484E103C0853419F485E0A6D080C0E4
:107E9000853579F488D0E82EFF2485D0082F10E0AE
:107EA000102F00270E291F29000F111F8ED06801E7
:107EB0006FC0863521F484E090D080E0DECF843638
:107EC00009F040C070D06FD0082F6DD080E0C81688
:107ED00080E7D80618F4F601B7BEE895C0E0D1E017
:107EE00062D089930C17E1F7F0E0CF16F0E7DF06D8
:107EF00018F0F601B7BEE89568D007B600FCFDCFD4
:107F0000A601A0E0B1E02C9130E011968C91119780
:107F100090E0982F8827822B932B1296FA010C0160
:107F200087BEE89511244E5F5F4FF1E0A038BF0790
:107F300051F7F601A7BEE89507B600FCFDCF97BE46
:107F4000E89526C08437B1F42ED02DD0F82E2BD052
:107F50003CD0F601EF2C8F010F5F1F4F84911BD097
:107F6000EA94F801C1F70894C11CD11CFA94CF0C13
:107F7000D11C0EC0853739F428D08EE10CD085E9AC
:107F80000AD08FE07ACF813511F488E018D01DD067
:107F900080E101D065CF982F8091C00085FFFCCF94
:107FA0009093C60008958091C00087FFFCCF809118
:107FB000C00084FD01C0A8958091C6000895E0E648
:107FC000F0E098E1908380830895EDDF803219F02E
:107FD00088E0F5DFFFCF84E1DECF1F93182FE3DFCA
:107FE0001150E9F7F2DF1F91089580E0E8DFEE27F6
:047FF000FF270994CA
:027FFE00040479
:0400000300007E007B
:00000001FF
