:100000000C9485020C94AD020C94AD020C94AD02DC
:100010000C94AD020C94AD020C94AD020C94AD02A4
:100020000C94AD020C94AD020C94AD020C94AD0294
:100030000C94AD020C94AD020C94AD020C94AD0284
:100040000C94A90C0C94AD020C949D0B0C94770BA2
:100050000C94AD020C94AD020C94AD020C94AD0264
:100060000C94F30C0C94AD024E414E494E49545938
:10007000494E46CDCCCC3D0AD7233C17B7D1387773
:10008000CC2B329595E6241FB14F0A000020410089
:1000900000C84200401C4620BCBE4CCA1B0E5AAED3
:1000A000C59D7400407A10F35A00A0724E180900E2
:1000B00010A5D4E80000E87648170000E40B5402CD
:1000C0000000CA9A3B000000E1F505000080969808
:1000D00000000040420F000000A086010000001058
:1000E0002700000000E8030000000064000000009A
:1000F000000A00000000000100000000002C76D87B
:1001000088DC674F0823DFC1DFAE59E1B1B796E560
:10011000E3E453C63AE651997696E8E6C28426EBC4
:10012000898C9B62ED407C6FFCEFBC9C9F40F2BAD7
:10013000A56FA5F490055A2AF75C936B6CF9676D6F
:10014000C11BFCE0E40D47FEF520E6B500D0ED90C4
:100150002E0300943577050080841E080000204E91
:100160000A000000C80C333333330F986E1283112A
:1001700041EF8D2114893BE65516CFFEE6DB18D101
:10018000844B381BF77C1D901DA4BBE424203284D3
:10019000725E228100C9F124ECA1E53D2763646908
:1001A0006E6F70737578585B00566F666673657412
:1001B000203D2000566F6666583A202000566F6634
:1001C00066583A202000454550524F4D20566F66E4
:1001D00066583A202000454550524F4D20566F66D4
:1001E00066583A2020003A20007800454550524F8A
:1001F0004D20566F004F652A567265662F563A207D
:10020000006D562F562F4F653A2000536C6F706566
:10021000583A200053656E583A200053783A20200F
:1002200000454550524F4D206D562F562F4F6500BB
:1002300052656C6174697665206F666673657420BB
:1002400073657420746F200052656C617469766503
:10025000206F666673657420636C65617265640007
:1002600052442000424431004D616E75616C205251
:1002700065616400436F6E74696E756F75732052AB
:10028000656164005D3A20200052465B00525420B4
:10029000002A2A2A2A2A2A2A2A2A2A2A2A2A2A2AE8
:1002A0002A2A2A2A2A2A2A2A2A00536F6674776160
:1002B00072652056657273696F6E3A2020004E6F2A
:1002C000742056616C69640056616C696400454530
:1002D00050524F4D204C696E20004E6F7420566175
:1002E0006C69640056616C696400454550524F4D1D
:1002F0002043616C200041353A20200041343A20EF
:10030000200041333A20200041323A202000413180
:100310003A20200041303A2020004C696E6561721D
:10032000697A6174696F6E0041444320537065655A
:10033000643A2020004144432073616D706C657302
:100340003A20200041444320426974733A2020003F
:1003500041444320567265663A2020004872656C1D
:100360003A2020006D562F567265662F4F653A2051
:1003700020004F652A567265662F563A2020005697
:100380006F66663A2020002A43414C49425241544C
:10039000494F4E2A2A2A2A2A2A2A2A2A2A2A2A007F
:1003A00074643A2020005047413A20004C696E3A6C
:1003B00020004850463A2000200020004C50463A89
:1003C0002000204020416464726573733A2020004D
:1003D000583A200041444320426974733A20200077
:1003E0004144432053706565643A202000525620F2
:1003F00000425631004D616E75616C20526561643A
:1004000000436F6E74696E756F7573205265616419
:1004100020566F6C74616765004144432053616DE1
:10042000706C65733A2000536574204C696E656189
:1004300072697A6174696F6E0052656D6F766520BE
:100440004C696E656172697A6174696F6E004865A6
:100450006C6C6F0041353A20200041343A20200076
:1004600041333A20200041323A20200041313A20E5
:10047000200041303A202000444320456E61626CE8
:10048000656400524D5320456E61626C65640042A4
:100490006175647261746520526573657474696E08
:1004A0006720546F20496E64657820005444203DD5
:1004B000200000000000250028002B000404040494
:1004C00004040404020202020202030303030303FE
:1004D00001020408102040800102040810200102DB
:1004E00004081020000000080002010000030407B7
:1004F0000000000000000000200053656E736F7262
:100500002049443A20200000A52011241FBECFEF2F
:10051000D8E0DEBFCDBF24E0A4EFB2E001C01D9261
:10052000AE3FB207E1F712E0A0E0B1E0E2EBF6E5A2
:1005300002C005900D92A43FB107D9F712E0C5E8BB
:10054000D2E004C02197FE010E941028C438D107D0
:10055000C9F70E947D100C94572B0C940000209139
:10056000E1039091AB04213208F04AC08091BE03B0
:100570008111FCCF32E03093BE0331E03093BD03F4
:100580003FEF3093BC031092BB032093BA03A1EC5E
:10059000B3E04AE953E0FA013E2F341B321718F456
:1005A0003D913193F9CF1092990320919903990FBE
:1005B000922B9093990390919803913061F410924B
:1005C0009803909199039093BB009091BC0093FD88
:1005D000F8CF95EC01C095EE9093BC009091BE03CE
:1005E0009230E1F39091BC039F3F79F08091BC037E
:1005F000803241F08091BC03803331F084E005C04B
:1006000081E003C082E001C083E01092C003109239
:10061000E1031092BF030895CF92DF92EF92FF9211
:100620006B017C01E0911204F091130482E080835D
:10063000C11481EED806E104F104B1F060E079E084
:100640008DE390E0A70196010E94EE27DA01C9012F
:100650000197A109B109B695A795979587959C0132
:10066000211580E13807B8F0E0911204F0911304ED
:10067000108260E874E88EE190E0A70196010E9484
:10068000EE27DA01C9010197A109B109B695A7952D
:10069000979587959C01E0910E04F0910F043083AB
:1006A000E0911004F0911104208310921A04E0915B
:1006B0001604F091170486E08083E0911404F09111
:1006C0001504808180618083E0911404F091150409
:1006D000808188608083E0911404F091150480810A
:1006E00080688083E0911404F091150480818F7DEF
:1006F0008083FF90EF90DF90CF900895009769F08E
:10070000FC0101900020E9F73197AF01481B590B1C
:10071000BC0182E094E00C94AE0980E090E0089582
:10072000CF93DF930E947E03EC018FE592E00E945D
:100730007E038C0F9D1FDF91CF910895E2EEF3E0D1
:100740008EE290819C3209F48083319693E0E63FFB
:10075000F907B9F7089582E094E00E94880AE2E080
:10076000F4E0A289B3898C918F7E8C93A289B3899E
:100770008C91877F8C93A289B3898C918F778C938E
:10078000A289B3898C918F7D8C93828D818F0895FE
:10079000E0910204F09103040190F081E02D682FB4
:1007A00082E094E009948F929F92AF92BF920F9350
:1007B0001F93CF93DF93CDB7DEB7A1970FB6F89411
:1007C000DEBF0FBECDBF19A2423008F44AE08E0151
:1007D0000F5D1F4F842E912CA12CB12CA5019401EB
:1007E0000E94EE27E62FB901CA0101501109EA3033
:1007F00014F4E05D01C0E95CD801EC93232B242BB9
:10080000252B61F7C8010E947E03A1960FB6F894CC
:10081000DEBF0FBECDBFDF91CF911F910F91BF9073
:10082000AF909F908F9008954F925F926F927F92BA
:100830008F929F92AF92BF92CF92DF92EF92FF92F0
:100840006B017C01B42E9B01AC010E94D42788234C
:1008500019F086EE92E027C026013701E89477F878
:100860002FEF3FEF4FE75FE7C301B2010E94D427AC
:1008700081110DC02FEF3FEF4FE75FE7C301B201DA
:100880000E94E62418161CF48AEE92E00CC02FEFAA
:100890003FEF4FE75FE4C701B6010E9489271816B2
:1008A00084F48EEE92E0FF90EF90DF90CF90BF90B7
:1008B000AF909F908F907F906F905F904F900C942F
:1008C0007E032FEF3FEF4FE75FECC701B6010E94B9
:1008D000E62487FDE6CF20E030E0A901C701B6019C
:1008E0000E94E62487FF09C08DE20E94C8034C01E4
:1008F000F7FAF094F7F8F09402C0812C912CA12C17
:1009000060E070E080E09FE3AB1441F020E030E075
:1009100040E251E40E94E126A394F6CF9B01AC0192
:10092000C701B6010E9475262B013C010E945A277F
:100930006B017C010E94EB249B01AC01C301B2015D
:100940000E9474262B013C014AE0C701B6010E94B7
:10095000D3037C01E80CF91CBB2029F08EE20E9435
:10096000C803E80EF91EDB2CDD2021F120E030E089
:1009700040E251E4C301B2010E944C252B013C012D
:100980000E945A274B01A12CB12C4AE0C501B401A9
:100990000E94D303E80EF91EC501B4010E94EB24A6
:1009A0009B01AC01C301B2010E9474262B013C01E2
:1009B000DA94DACFC701FF90EF90DF90CF90BF902D
:1009C000AF909F908F907F906F905F904F90089521
:1009D000CF93DF930E941404EC018FE592E00E9414
:1009E0007E038C0F9D1FDF91CF9108950F931F936E
:1009F000CF93DF938C01C0E0D0E0F801EC0FFD1F36
:100A00006491662371F0E0910204F0910304019077
:100A1000F081E02D82E094E00995892B11F0219678
:100A2000ECCFCE01DF91CF911F910F910895CF931D
:100A3000DF930E94F604EC018FE592E00E947E03B2
:100A40008C0F9D1FDF91CF910895CF92DF92EF928F
:100A5000FF92CF93DF936B017C014115510581F427
:100A6000E0910204F09103040190F081E02D82E016
:100A700094E0DF91CF91FF90EF90DF90CF900994B9
:100A80004A305105D1F497FF17C08DE20E94C80388
:100A9000EC0166277727CB016C197D098E099F0928
:100AA0004AE00E94D3038C0F9D1FDF91CF91FF90EE
:100AB000EF90DF90CF9008954AE0C701B601DF9133
:100AC000CF91FF90EF90DF90CF900C94D303CF9312
:100AD000DF93AB01BC01990F880B990B0E94250590
:100AE000EC018FE592E00E947E038C0F9D1FDF9149
:100AF000CF910895CF93DF9302978F30910528F41B
:100B0000FC01E057FE4FC08101C0C2E061307105B9
:100B100009F4C068D1E0D093BF0389E48093AB04AB
:100B20001092C0031092E10361E08FE994E00E940B
:100B3000420B6C2F8FE994E00E94420B63EE8FE929
:100B400094E00E94420B0E94AF02D093BF03109228
:100B5000C0031092E10360E08FE994E00E94420B31
:100B6000DF91CF910C94AF0290E0FC01EC51FB4F70
:100B70002491FC01E053FB4F3491FC01E454FB4F02
:100B8000E491EE23B1F1222339F1233091F038F4CE
:100B90002130A9F0223001F584B58F7D12C02730B5
:100BA00091F02830A1F02430B9F4809180008F7D3D
:100BB00003C0809180008F77809380000DC084B542
:100BC0008F7784BD09C08091B0008F7703C080917A
:100BD000B0008F7D8093B000F0E0EE0FFF1FEE5469
:100BE000FB4FA591B4918FB7F894EC913E2B3C93B9
:100BF0008FBF08959091BE039111FCCF813208F010
:100C000080E291E09093BE039093BD032FEF209379
:100C1000BC031092BB03280F2093BA03909399034F
:100C200090919903926990939903909198039130D0
:100C300061F410929803909199039093BB00909166
:100C4000BC0093FDF8CF95EC01C095EE9093BC00ED
:100C50009091BE039130E1F39091BB03981710F48B
:100C60008091BB03AAE9B3E028E733E0F9019E2FA6
:100C7000921B981718F49D919193F9CF10927703D6
:100C8000809376030895CF92DF92EF92FF920F93B5
:100C90001F93CF93DF93EC0161E070E00E947A052F
:100CA00087E290E00197F1F781E08093BF0389E448
:100CB0008093AB041092C0031092E10390917603ED
:100CC00080917703981729F08FE994E00E94F60A43
:100CD000F5CF82E090E00E94FA058FE090E0019766
:100CE000F1F79091760380917703981759F08FE987
:100CF00094E00E94F60A182F8FE994E00E94F60A09
:100D0000082FEFCF0E94AF02B801110F880B990B8B
:100D10000E94ED246B017C012297CF30D10558F45D
:100D2000CC0FDD1FCC0FDD1FCC5ADE4F68817981DF
:100D30008A819B8104C06FE672E183E099E3EFE072
:100D4000F0E03197F1F720E030E040E85EE30E9408
:100D50004C259B01AC01C701B6010E944C25DF91D7
:100D6000CF911F910F91FF90EF90DF90CF9008955A
:100D70002F923F924F925F926F927F928F929F92AB
:100D8000AF92BF92CF92DF92EF92FF920F931F9399
:100D9000CF93DF93CDB7DEB760970FB6F894DEBF81
:100DA0000FBECDBF1C017B01BC01990F880B990BB5
:100DB0000E94ED249B01AC0160E070E080E89FE3BD
:100DC0000E94E1266F83788789879A87812C912CEE
:100DD000540100E010E097012D5031093E832D832E
:100DE000C901880F991F880F991FDC01A45CBE4FB1
:100DF000BC87AB87FC01EC5DFE4FFE87ED870215DB
:100E000013050CF06EC02D813E812630310590F423
:100E1000AB85BC854D905D906D907C90AD85BE8519
:100E20008D919D910D90BC91A02D89839A83AB8368
:100E3000BC830AC080E090E0A0E8BFE389839A8386
:100E4000AB83BC832C013D01C12CD12C7601188AC7
:100E50001F86EF85F889BF01FF0F880B990B0E9451
:100E6000ED24A30192010E94E62487FF1BC060913C
:100E700016017091170180911801909119010E943B
:100E80005327CB010E9443069B01AC01C701B60169
:100E90000E9475266B017C01AF85B8891196B88BCD
:100EA000AF87D7CF20E030E040E85FE3C301B20175
:100EB0000E948927181654F429813A814B815C815C
:100EC000C701B6010E944C256B017C01A701960168
:100ED000C501B4010E9475264B015C010F5F1F4FD5
:100EE0008ECF2F81388549855A85C501B4010E946E
:100EF0004C2560960FB6F894DEBF0FBECDBFDF91D4
:100F0000CF911F910F91FF90EF90DF90CF90BF9006
:100F1000AF909F908F907F906F905F904F903F9099
:100F20002F9008954F925F926F927F928F929F922F
:100F3000AF92BF92CF92DF92EF92FF92CF93DF9367
:100F400000D000D0CDB7DEB72DA53EA54FA558A93E
:100F500029833A834B835C830E94B806E091140195
:100F6000F091150129813A814B815C81319709F01B
:100F700081C00E9474266B017C01298D3A8D4B8DB6
:100F80005C8D0E944C252D893E894F89588D0E9489
:100F900075262B013C01A7019601C701B6010E94ED
:100FA0004C254B015C012D8D3E8D4F8D58A10E942B
:100FB0004C259B01AC01C301B2010E9475262B0197
:100FC0003C01A7019601C501B4010E944C254B01CB
:100FD0005C0129A13AA14BA15CA10E944C259B0177
:100FE000AC01C301B2010E9475262B013C01A7018F
:100FF0009601C501B4010E944C254B015C012DA155
:101000003EA14FA158A50E944C259B01AC01C301F4
:10101000B2010E9475262B013C01A7019601C50172
:10102000B4010E944C2529A53AA54BA55CA50E94B8
:101030004C259B01AC01C301B2010E9475266B01D6
:101040007C0120E030E040EA5FE30E948927181627
:10105000B4F020E030E040EA5FEBC701B6010E9447
:10106000E62487FF12C0C12CD12C90EAE92E9FEB19
:10107000F92E0BC00E9474266B017C0106C0C12CA6
:10108000D12C80EAE82E8FE3F82E29A93AA94BA9A2
:101090005CA9C701B6010E944C25209172033091D2
:1010A000730340917403509175030E9474260F904E
:1010B0000F900F900F90DF91CF91FF90EF90DF9006
:1010C000CF90BF90AF909F908F907F906F905F90E8
:1010D0004F9008952F923F924F925F926F927F921E
:1010E0008F929F92AF92BF92CF92DF92EF92FF9238
:1010F0000F931F93CF93DF93CDB7DEB766970FB6ED
:10110000F894DEBF0FBECDBF0E94CF0B6F87788BE8
:10111000898B9A8B00E010E0C12CD12C7601609174
:1011200016017091170180911801909119010E9488
:1011300053277C8B6B8BCB010E94430620E034E26B
:1011400044E759E40E944C259B01AC01C701B6015C
:101150000E9475266B017C010F5F1F4F0D37110533
:10116000F1F620E030E04AEF52E40E94E1264B0124
:101170005C01412C512C3201C12CD12C7601312C37
:10118000212C1D8A1E8A0E94CF0BDC01CB012F85EA
:10119000388949895A89821B930BA40BB50B803F70
:1011A0009944A240B10508F0ABC048E8441643E1B9
:1011B00054066104710409F4A3C0A30192012F5FD6
:1011C0003F4F4F4F5F4F2D833E834F835887C3015F
:1011D000B2010E94ED2469877A878B879C878B896F
:1011E0009C890E9443062B013C012DEC3CEC4CEC0D
:1011F0005DE3C501B4010E944C254B015C0126E66C
:1012000036E646E65FE3C301B2010E944C2520E0CA
:1012100034E244E759E40E944C25A50194010E9460
:1012200075264B015C016D817E818F8198850E94BE
:10123000ED2469837A838B839C8329853A854B854A
:101240005C85632D722D8D899E890E944C25298194
:101250003A814B815C810E94E1262B013C0129816E
:101260003A814B815C81C501B4010E94E1269B015A
:10127000AC01C301B2010E9475268B018D879E8748
:10128000A7019601C701B6010E944C2529853A8520
:101290004B855C850E944C256B017C0198014D8536
:1012A0005E85C501B4010E9474262B013C01232DEB
:1012B000322D4D895E89C501B4010E9474269B01BF
:1012C000AC01C301B2010E944C259B01AC01C701D6
:1012D000B6010E94752629813A814B815C810E946A
:1012E000E1260E9494276B017C014D805E806F8017
:1012F0007884302E212E3D853D8B4E854E8B43CFFD
:1013000020E030E0A901C701B6010E94E62487FD74
:1013100009C020E034E244E759E4C701B6010E9465
:10132000E12603C060E070E0CB0166960FB6F8944A
:10133000DEBF0FBECDBFDF91CF911F910F91FF9008
:10134000EF90DF90CF90BF90AF909F908F907F9065
:101350006F905F904F903F902F900895CF92DF92C3
:10136000EF92FF920F931F93CF93DF936C017A015B
:101370008B01C0E0D0E0CE15DF0589F0D8016D917A
:101380008D01D601ED91FC910190F081E02DC60117
:101390000995892B11F47E0102C02196ECCFC7017B
:1013A000DF91CF911F910F91FF90EF90DF90CF9041
:1013B0000895FC01538D448D252F30E0842F90E05B
:1013C000821B930B541710F0CF9608950197089540
:1013D000FC01918D828D981761F0828DDF01A80F3D
:1013E000B11D5D968C91928D9F5F9F73928F90E05F
:1013F00008958FEF9FEF0895FC01918D828D9817CE
:1014000031F0828DE80FF11D858D90E008958FEF0A
:101410009FEF0895FC01918D228D892F90E0805CD3
:101420009F4F821B91098F739927089582E094E062
:101430000E940A0A21E0892B09F420E0822F0895F6
:10144000FC01848DDF01A80FB11DA35ABF4F2C9161
:10145000848D90E001968F739927848FA689B78930
:101460002C93A089B1898C9180648C93938D848D09
:10147000981306C00288F389E02D80818F7D8083D8
:101480000895EF92FF920F931F93CF93DF93EC0198
:1014900081E0888F9B8D8C8D981305C0E889F98930
:1014A000808185FD24C0F62E0B8D10E00F5F1F4F4D
:1014B0000F731127E02E8C8DE8120CC00FB607FCBD
:1014C000FACFE889F989808185FFF5CFCE010E94A6
:1014D000200AF1CF8B8DFE01E80FF11DE35AFF4F7B
:1014E000F0820B8FEA89FB898081806207C0EE89D8
:1014F000FF896083E889F98980818064808381E045
:1015000090E0DF91CF911F910F91FF90EF900895A0
:10151000CF93DF93EC01888D8823C9F0EA89FB899A
:10152000808185FD05C0A889B9898C9186FD0FC091
:101530000FB607FCF5CF808185FFF2CFA889B98966
:101540008C9185FFEDCFCE010E94200AE7CFDF917D
:10155000CF91089580E090E0892B29F00E94160A2F
:1015600081110C940000089585ED8093BC0080915A
:10157000BC0084FDFCCF1092BE0308954091CE04C0
:10158000262F30E0240F311D21323105DCF420916B
:10159000BE032430C9F4FC0180E090E0861758F4C3
:1015A0003091CE042191DC01A455BB4FA30FB11D96
:1015B0002C930196F3CF8091CE04680F6093CE04F4
:1015C00080E0089581E0089582E008950895E09113
:1015D000770380917603E81730F4F0E0E858FC4F89
:1015E000808190E008958FEF9FEF089590917703A9
:1015F00080917603981750F4E92FF0E0E858FC4FFB
:10160000208130E09F5F9093770302C02FEF3FEF80
:10161000C90108958091760390E020917703821BA1
:1016200091090895CF92DF92EF92FF920F931F934B
:10163000CF93DF937C01262F972F8A018091BF03E0
:10164000882391F0C62FD72F6E01C40ED51ECC155E
:10165000DD0571F06991D701ED91FC910190F08168
:10166000E02DC7010995F3CF642F822F0E94BE0A97
:10167000C801DF91CF911F910F91FF90EF90DF9004
:10168000CF900895CF93DF931F92CDB7DEB76983D4
:101690002091BF032223D1F02091E103203240F0BA
:1016A00021E030E0FC013383228380E090E015C02C
:1016B0008091C003E82FF0E0EF53FC4F99819083B5
:1016C0008F5F8093C0038093E10305C061E0CE018A
:1016D00001960E94BE0A81E090E00F90DF91CF91C9
:1016E0000895089580E090E008950E9416281F92C2
:1016F0000F920FB60F9211242F933F934F935F9346
:101700006F937F938F939F93AF93BF93EF93FF93C9
:1017100082E094E00E94200AFF91EF91BF91AF9187
:101720009F918F917F916F915F914F913F912F91F9
:101730000F900FBE0F901F9018951F920F920FB62B
:101740000F9211242F938F939F93EF93FF93E09128
:101750001204F09113048081E0911804F0911904AF
:1017600082FD12C0908180911B048F5F8F73209146
:101770001C04821751F0E0911B04F0E0EE5FFB4F78
:10178000958F80931B0401C08081FF91EF919F9101
:101790008F912F910F900FBE0F901F9018953FB70C
:1017A000F8948091F8049091F904A091FA04B09112
:1017B000FB0426B5A89B05C02F3F19F00196A11D7B
:1017C000B11D3FBFBA2FA92F982F8827820F911DD7
:1017D000A11DB11DBC01CD0142E0660F771F881F1E
:1017E000991F4A95D1F708958F929F92AF92BF9219
:1017F000CF92DF92EF92FF926B017C010E94CF0BA0
:101800004B015C01C114D104E104F104F1F00E9428
:10181000CF0BDC01CB0188199909AA09BB09883EC5
:101820009340A105B10570F321E0C21AD108E10887
:10183000F10888EE880E83E0981EA11CB11CC1142B
:10184000D104E104F10419F7DDCFFF90EF90DF90B0
:10185000CF90BF90AF909F908F9008954F925F92DE
:101860006F927F928F929F92AF92BF92CF92DF92B0
:10187000EF92FF920E94CF0B0E94EB244B015C0180
:101880004090F8025090F9026090FA027090FB02CA
:1018900020E030E040E85FE4C301B2010E944C2543
:1018A0009B01AC01C501B4010E9475266B017C014E
:1018B0002091F4023091F5024091F6025091F70226
:1018C0000E94E62487FF1EC020E030E040E85FE38E
:1018D000C301B2010E9475266093F8027093F90269
:1018E0008093FA029093FB0220E030E040E85FE44E
:1018F0000E944C259B01AC01C501B4010E947526D4
:101900006B017C01C092F402D092F502E092F602E3
:10191000F092F7022091FC023091FD024091FE020C
:101920005091FF02C701B6010E9474262DEB37E3E8
:1019300046E855E30E944C25FF90EF90DF90CF9052
:10194000BF90AF909F908F907F906F905F904F90DF
:1019500008951F920F920FB60F9211242F933F9369
:101960008F939F93AF93BF938091F4049091F5046C
:10197000A091F604B091F7043091F30423E0230F13
:101980002D3720F40196A11DB11D05C026E8230FB7
:101990000296A11DB11D2093F3048093F40490934B
:1019A000F504A093F604B093F7048091F8049091A5
:1019B000F904A091FA04B091FB040196A11DB11D98
:1019C0008093F8049093F904A093FA04B093FB0475
:1019D000BF91AF919F918F913F912F910F900FBE2B
:1019E0000F901F9018951F920F920FB60F9211240F
:1019F0002F933F934F935F936F937F938F939F9317
:101A0000AF93BF93EF93FF938091B900887F8036A7
:101A100009F49CC068F5883209F45BC090F4803109
:101A200009F454C038F4882309F4F6C0883009F466
:101A30004DC0F6C0883109F44CC0803209F45DC055
:101A4000EFC0803409F468C048F4803309F455C00D
:101A5000883309F0E5C08093BC03D8C0803509F411
:101A60004FC0883509F45DC0883409F0D9C0D6C0AC
:101A7000883909F4C7C0A8F4883709F467C038F476
:101A8000883609F463C0803709F460C0C9C088385B
:101A900009F4B8C0803909F45FC0803809F0C0C0CB
:101AA0005BC0803B09F486C038F4803A09F466C014
:101AB000883A09F47FC0B4C0803C09F4A7C0883CD0
:101AC00009F4A4C0883B09F48AC0AAC08091990394
:101AD00010C09091BB038091BA03981770F5E09104
:101AE000BB0381E08E0F8093BB03F0E0E656FC4F12
:101AF00080818093BB0085EC86C08093BC038EC040
:101B0000E091BB0381E08E0F8093BB038091BB000B
:101B1000F0E0E656FC4F80839091BB038091BA03BE
:101B20006EC0E091BB0381E08E0F8093BB03809178
:101B3000BB00F0E0E656FC4F80838091BD0381112D
:101B40006DC081E08093980384EA61C083E0809354
:101B5000BE031092F204CFCF8091F204803208F0DD
:101B600051C0E091F20481E08E0F8093F2048091E5
:101B7000BB00F0E0EE52FB4F8083BDCF85EC80933D
:101B8000BC001092BE038091F204803230F4E091E8
:101B9000F204F0E0EE52FB4F10826091F20470E02C
:101BA000E091D004F091D10482ED94E00995109277
:101BB000F20436C084E08093BE031092CF041092EA
:101BC000CE04E091CC04F091CD0409958091CE042F
:101BD000811105C081E08093CE041092AC04E091A5
:101BE000CF0481E08E0F8093CF04F0E0E455FB4FEB
:101BF00080818093BB009091CF048091CE04981790
:101C000008F479CF85E88093BC000AC085EC809306
:101C1000BC001092BE0304C01092BC030E94B40A20
:101C2000FF91EF91BF91AF919F918F917F916F91B4
:101C30005F914F913F912F910F900FBE0F901F908A
:101C40001895AF92BF92CF92DF92EF92FF920F93CF
:101C50001F93CF93DF931F92CDB7DEB75C017B015B
:101C60008B016C0184E0C80ED11CF80161918F01D9
:101C7000C50169830E940D266981681719F0C501A5
:101C80000E941526FFEFAF1ABF0AAC14BD0469F716
:101C9000C7010F90DF91CF911F910F91FF90EF90AF
:101CA000DF90CF90BF90AF900895AF92BF92CF9248
:101CB000DF92EF92FF920F931F93CF93DF931F92C8
:101CC000CDB7DEB75C017B018B016C0184E0C80EEF
:101CD000D11CF80161918F01C50169830E940D2615
:101CE0006981681719F0C5010E941526FFEFAF1A28
:101CF000BF0AAC14BD0469F7C7010F90DF91CF9103
:101D00001F910F91FF90EF90DF90CF90BF90AF9019
:101D10000895CF92DF92EF92FF920F931F93CF938C
:101D2000DF93EB017B0124E0E20EF11C8B016C01DF
:101D3000C61AD70AC601800F911F0E940D26F8010E
:101D400081938F01EE15FF05A9F7CE01DF91CF91A9
:101D50001F910F91FF90EF90DF90CF9008954F92D9
:101D60005F926F927F92AF92BF92CF92DF92EF928B
:101D7000FF920F931F93CF93DF93CDB7DEB72897D2
:101D80000FB6F894DEBF0FBECDBF8C014D835E83CE
:101D90006F8378874D805E806F8078840E946A08A8
:101DA000A30192010E944C2520E030E0A9010E948D
:101DB0008927181664F40E946A08A30192010E9400
:101DC0004C256B017C01AA24A394B12C2BC00E944A
:101DD0006A08A30192010E944C256B017C01F7FA6D
:101DE000F094F7F8F094EFCF0E946A08A3019201F3
:101DF0000E944C2520E030E0A9010E948927181696
:101E0000ACF40E946A08A30192010E944C259B0138
:101E1000AC01C701B6010E9475266B017C018FEFF2
:101E2000A81AB80AA016B106FCF208C00E946A08F7
:101E3000A30192010E944C259058E9CF5C2D4D2DB5
:101E40003E2D2F2DB8011016110614F061E070E040
:101E50006130710581F0072E000C880B990B0E94F0
:101E6000ED249B01AC01C701B6010E94E126562F6B
:101E7000472F382F292F652F742F832F922F2896C5
:101E80000FB6F894DEBF0FBECDBFDF91CF911F918B
:101E90000F91FF90EF90DF90CF90BF90AF907F9029
:101EA0006F905F904F900895E2E0F3E080E28193BD
:101EB00093E0E433F907D9F7E2EEF3E080E28193AF
:101EC00094E0E230F907D9F70895CF93DF938AEFD2
:101ED00094E00E94F604C8E2D0E0CE010E940D26F4
:101EE0008F77219690EE980F9F3510F40E94C803CB
:101EF000C834D10591F788EF94E00E941705DF916F
:101F0000CF910C94540F2F923F924F925F926F9209
:101F10007F928F929F92AF92BF92CF92DF92EF9279
:101F2000FF920F931F93CF93DF93CDB7DEB7E19767
:101F30000FB6F894DEBF0FBECDBF2B013C01198256
:101F4000CE0101966C014130510571F5213031050A
:101F500099F40E942E0C9B01AB01BC014EA75FA718
:101F600068AB79AB29838FA58A8388A98B8389A9DC
:101F70008C8384E090E002C080E090E04EA65FA6F3
:101F800068AA79AAFE01BE96D601A80FB91F9E01C4
:101F90002E5C3F4F41914D93E217F307D9F7FE01B5
:101FA000E80FF91F15828DC02130310561F40E94C0
:101FB0002E0C860123E040E00E94DE2062EF72E0FA
:101FC000C6010E9423288091000390910103F6012D
:101FD00001900020E9F78F0101501109892B09F0C8
:101FE0006AC020E030E0A901C301B2010E94892744
:101FF00053014201181624F0B7FAB094B7F8B09420
:1020000020E030E040E85FE3C501B4010E94E6242F
:1020100087FD2DC020E030E040E251E4C501B4016D
:102020000E94E62487FD27C020E030E048EC52E41F
:10203000C501B4010E94E62487FD21C020E030E004
:102040004AE754E4C501B4010E94E62487FD1BC0A1
:1020500022242394312C20E030E44CE156E4C501E5
:10206000B4010E94E62487FF212C71010FC035E0E6
:10207000E32EF12C0BC024E0E22EF12C07C093E0FC
:10208000E92EF12C03C082E0E82EF12C80911001A2
:10209000909111010E976CF420E030E048EC52E48E
:1020A000C501B4010E94E62487FF03C092E0E91A4B
:1020B000F1082E2D01C025E040E0C301B2010E94CD
:1020C000DE20C6010E949003E1960FB6F894DEBFB1
:1020D0000FBECDBFDF91CF911F910F91FF90EF9079
:1020E000DF90CF90BF90AF909F908F907F906F9038
:1020F0005F904F903F902F900895CF93DF93CDB78F
:10210000DEB7A0970FB6F894DEBF0FBECDBF7894B0
:1021100084B5826084BD84B5816084BD85B58260EC
:1021200085BD85B5816085BD80916E00816080939D
:102130006E00109281008091810082608093810006
:102140008091810081608093810080918000816016
:10215000809380008091B10084608093B100809171
:10216000B00081608093B00080917A008460809399
:102170007A0080917A00826080937A0080917A0060
:10218000816080937A0080917A00806880937A00E1
:102190001092C10060E072EC81E090E00E940C03BC
:1021A00064E170E080E090E00E94F40B83EC91E049
:1021B0000E94900310924003109241031092420338
:1021C0001092430380E090E0A8ECB2E480934403D3
:1021D00090934503A0934603B09347038BED91E0A2
:1021E0000E947E0343E060E070E080E890E40E949B
:1021F000140482EE91E00E9490039E012F5F3F4FF6
:102200005901B90180E090E00E94890E20E030E0A1
:1022100040E85FE369817A818B819C810E94E6249A
:1022200081110FC060E473E084E090E00E94890EA9
:1022300064E473E088E090E00E94890E85EE91E00E
:1022400002C081EF91E00E94900310924803109227
:10225000490310924A0310924B0380E090E0A0E8FB
:10226000BFE380934C0390934D03A0934E03B09330
:102270004F03109250031092510310925203109288
:102280005303109254031092550310925603109268
:102290005703109258031092590310925A03109248
:1022A0005B0310925C0310925D0310925E03109228
:1022B0005F03B5018CE090E00E94890E20E030E0E1
:1022C00040E85FE369817A818B819C810E94E624EA
:1022D000811127C068E473E080E190E00E94890EDC
:1022E0006CE473E084E190E00E94890E60E573E0A5
:1022F00088E190E00E94890E64E573E08CE190E053
:102300000E94890E68E573E080E290E00E94890EE9
:102310006CE573E084E290E00E94890E8EEF91E01C
:1023200002C08AE092E00E9490031092770310921C
:1023300076031092C0031092E1031092BE0381E075
:102340008093BD031092980382E10E94B40583E15B
:102350000E94B4058091B9008E7F8093B90080916E
:10236000B9008D7F8093B90088E48093B80085E43C
:102370008093BC006AE070E080E090E00E94F40B83
:102380008CE08093B8006AE070E080E090E00E940A
:10239000F40B6091160170911701809118019091D2
:1023A00019010E945327DC01CB0160E070E00E941C
:1023B0007A0562E0E62E63E0F62E72EEC72E73E039
:1023C000D72EAE01475E5F4F5C8F4B8FBE016F5FB4
:1023D0007F4F1B014E0175E1870E911C82E094E056
:1023E0000E940A0A909371038093700318161906CD
:1023F00014F00C94D81E64E670E080E090E00E9437
:10240000F40B82E094E00E940A0A3C01909371036D
:102410008093700302E013E0C80182509340861558
:10242000970554F482E094E00E94E8090E941B287A
:10243000D8018D938D01F0CF809102038F3409F084
:1024400040C0809103038134E1F5609110017091E7
:10245000110184E690E00E94B80620E030E543ECEC
:1024600057E40E944C250E945327072E000C880B2E
:10247000990B0E94ED242CEA35EC47E257E30E94C9
:102480004C256093400370934103809342039093E3
:10249000430389EA91E00E94F60460914003709141
:1024A0004103809142039091430346E050E00E9433
:1024B000E80460ED77E080E090E00E94F40B0E9479
:1024C000540F809102038F3409F077C08091030389
:1024D0008D3409F072C0BF92AF9207E112E01F93F2
:1024E0000F93FF92EF920E942E28898188550F90BA
:1024F0000F900F900F900F900F90833080F5DF9228
:10250000CF92BF92AF928DE192E09F938F93FF9213
:10251000EF920E942E280E949E0382EE93E00E947A
:10252000FE20609340037093410380934203909395
:1025300043038DEB91E00E94F6046091400370919B
:102540004103809142039091430346E050E00E9492
:10255000E8040FB6F894DEBF0FBECDBF2CC0DF92EB
:10256000CF921F930F93FF92EF920E942E280E940A
:102570009E0382EE93E00E94FE20609340037093DE
:102580004103809342039093430384EB91E00E94C4
:10259000F604609140037091410380914203909151
:1025A000430346E050E00E94E8040F900F900F9024
:1025B0000F900F900F900E94540F809102038F3460
:1025C00009F071C080910303873509F06CC0BF9298
:1025D000AF9206E212E01F930F93FF92EF920E94D8
:1025E0002E28898188550F900F900F900F900F9093
:1025F0000F90833068F5DF92CF92BF92AF928CE25A
:1026000092E09F938F93FF92EF920E942E280E9458
:102610009E0382EE93E00E94FE206D8B7E8B8F8B5B
:10262000988FB40184E090E00E94550E86ED91E011
:102630000E94F60482EE93E00E94FE2046E050E005
:102640000E94E8040FB6F894DEBF0FBECDBF29C0CC
:10265000DF92CF921F930F93FF92EF920E942E284A
:102660000E949E0382EE93E00E94FE206D8B7E8B83
:102670008F8B988FB40184E090E00E94550E86EC19
:1026800091E00E94F60482EE93E00E94FE2046E074
:1026900050E00E94E8040F900F900F900F900F9061
:1026A0000F900E94540F809102038F3479F580912E
:1026B0000303823559F59F928F9285E392E09F93B1
:1026C0008F93FF92EF920E942E288BEE91E00E9452
:1026D000F60489EE91E00E94F604B50184E090E0F2
:1026E0000E94890E86EE91E00E94F60469817A814B
:1026F0008B819C8146E050E00E94E8040E94540FC8
:102700000F900F900F900F900F900F9080910203F9
:10271000833509F0AAC0809103038D3409F0A5C068
:10272000BF92AF920BE312E01F930F93FF92EF92D1
:102730000E942E28898188550F900F900F900F903E
:102740000F900F90833008F04EC0DF92CF92BF926F
:10275000AF9281E492E09F938F93FF92EF920E9459
:102760002E280E949E0382EE93E00E94FE209B0191
:10277000AC0160E070E08AE794E40E94E126609397
:10278000440370934503809346039093470384E189
:1027900092E00E94F6042091440330914503409159
:1027A00046035091470360E070E08AE794E40E949A
:1027B000E12646E050E00E94E8048BE092E00E94AF
:1027C000F604609144037091450380914603909113
:1027D000470346E050E00E94E8040FB6F894DEBFDD
:1027E0000FBECDBF40C0DF92CF921F930F93FF92D9
:1027F000EF920E942E280E949E0382EE93E00E9498
:10280000FE202B013C0181E092E00E94F60446E0AC
:1028100050E0C301B2010E94E804A301920160E00C
:1028200070E08AE794E40E94E12660934403709389
:102830004503809346039093470385EF91E00E9400
:10284000F604609144037091450380914603909192
:10285000470346E050E00E94E8040F900F900F906D
:102860000F900F900F900E94540F809102038335B8
:1028700041F580910303833521F508E210E0D8018A
:10288000A352BD4FF4018D9181936B8D7C8DE61722
:10289000F707C9F75D894E893F89288D852F942FC9
:1028A000A32FB22F89839A83AB83BC83B501C80160
:1028B0000E94210E0C5F1F4F0834110501F70E9482
:1028C000540F80910203833509F058C080910303AF
:1028D000873509F053C0BF92AF920AE412E01F930C
:1028E0000F93FF92EF920E942E28898188550F90B6
:1028F0000F900F900F900F900F908330C0F4DF92E5
:10290000CF92BF92AF9280E592E09F938F93FF9218
:10291000EF920E942E280E949E0382EE93E00E9476
:10292000FE200FB6F894DEBF0FBECDBF14C0DF92FD
:10293000CF921F930F93FF92EF920E942E280E9436
:102940009E0382EE93E00E94FE200F900F900F9066
:102950000F900F900F909B01AC0160E070E08AE750
:1029600094E40E94E1266D8B7E8B8F8B988FB4014F
:1029700088E090E00E94550E0E94540F809102035F
:10298000833509F5809103038235E9F481E292E011
:102990000E941705B50188E090E00E94890E8BE146
:1029A00092E00E94F60429813A814B815C8160E0CB
:1029B00070E08AE794E40E94E12642E050E00E9441
:1029C000E8040E94540F80910203823571F58091D2
:1029D0000303833551F520916403309165034091E1
:1029E0006603509167036091720370917303809145
:1029F0007403909175030E9475266093720370931F
:102A00007303809374039093750380E392E00E94B4
:102A1000F604609172037091730380917403909136
:102A2000750346E050E00E94E8048091020382357D
:102A300081F4809103038F3461F410927203109239
:102A40007303109274031092750388E492E00E945D
:102A5000170580910203823509F084C08091030339
:102A60008D3409F07FC080916E0390916F03892BA4
:102A700021F488E692E00E94170581E090E09093AF
:102A80006F0380936E031092130110921201209134
:102A900000033091010380910E0190910F012130CC
:102AA000310599F16091100170911101EDB7FEB7F8
:102AB00038970FB6F894FEBF0FBEEDBFADB7BEB7E7
:102AC000119628E0E0E4F3E001900D922A95E1F7F9
:102AD0002DB73EB7285131090FB6F8943EBF0FBE4F
:102AE0002DBFADB7BEB7119628E1E8E4F3E0019041
:102AF0000D922A95E1F70E9492072B013C010FB637
:102B0000F894DEBF0FBECDBF14C0009140031091FA
:102B1000410320914203309143034091440350917B
:102B2000450360914603709147030E94AF0E2B014D
:102B30003C0180913C0390913D03019719F484E698
:102B400092E002C080E692E00E94F60440913C03CD
:102B500050913D0320E030E0C301B2010E94830F99
:102B60000E94540F809102038235C1F580910303C6
:102B70008334A1F580916E0390916F03019721F446
:102B800084E792E00E94170510926903109268038F
:102B900010926F0310926E031092130110921201A3
:102BA0000E94540F0E94CF0B0E94EB246093FC0202
:102BB0007093FD028093FE029093FF021092F80240
:102BC0001092F9021092FA021092FB021092F40293
:102BD0001092F5021092F6021092F7028091020311
:102BE000823509F044C080910303853429F41092A2
:102BF0001301109212013BC08634C9F519821A8262
:102C00001B821C829F928F9289E592E09F938F9303
:102C1000FF92EF920E942E288D899E89B501880F20
:102C2000991F880F991F0E94890E89E892E00E94DF
:102C3000F6046D897E89072E000C880B990B4AE0FB
:102C400050E00E94250584E892E00E94F604698124
:102C50007A818B819C8146E050E00E94E8040E94CA
:102C6000540F0F900F900F900F900F900F90809136
:102C700002038235B1F480910303843591F48DE829
:102C800092E00E94F6046091060170910701809124
:102C900008019091090146E050E00E94E8040E947A
:102CA000540F80910203803509F031C180910303F4
:102CB000833409F02CC187E893E00E9417058FE761
:102CC00093E00E94F604609140037091410380916B
:102CD00042039091430346E050E00E94E80482E7FB
:102CE00093E00E94F6046091440370914503809143
:102CF00046039091470346E050E00E94E80484E6D2
:102D000093E00E94F60420914403309145034091E2
:102D100046035091470360E070E08AE794E40E9424
:102D2000E12646E050E00E94E8048CE593E00E9432
:102D3000F604609172037091730380917403909113
:102D4000750346E050E00E94E80480E593E00E94AD
:102D5000F60446E050E060E070E080E890E40E9415
:102D6000E80484E493E00E94F6046AE070E0809155
:102D70001001909111010E94670585E393E00E9484
:102D8000F6046AE070E080910E0190910F010E94BC
:102D9000670588E293E00E94F6046AE070E08091A3
:102DA0000001909101010E9467058AE193E00E9471
:102DB000170584E193E00E94F60460914803709146
:102DC000490380914A0390914B0346E050E00E94F2
:102DD000E8048EE093E00E94F60460914C03709149
:102DE0004D0380914E0390914F0346E050E00E94C6
:102DF000E80488E093E00E94F6046091500370912B
:102E00005103809152039091530346E050E00E9499
:102E1000E80482E093E00E94F6046091540370910C
:102E20005503809156039091570346E050E00E946D
:102E3000E8048CEF92E00E94F604609158037091D0
:102E4000590380915A0390915B0346E050E00E9441
:102E5000E80486EF92E00E94F60460915C037091B2
:102E60005D0380915E0390915F0346E050E00E9415
:102E7000E8048AEE92E00E94F604B50180E090E05A
:102E80000E94890E20E030E040E85FE369817A81AA
:102E90008B819C810E94E624811103C084EE92E024
:102EA00002C08AED92E00E9417058EEC92E00E942B
:102EB000F604B5018CE090E00E94890E20E030E03D
:102EC00040E85FE369817A818B819C810E94E624DE
:102ED000811103C088EC92E002C08EEB92E00E9468
:102EE00017050E94650F8AEA92E00E94F60483ECBF
:102EF00091E00E94900381E992E00E9417050E94F0
:102F0000540F68EE73E080E090E00E94F40B809133
:102F10000203803509F09CC080910303833509F0DA
:102F200097C083E090E00E94FA059091760380912B
:102F30007703981711F18FE994E00E94F60A8FE960
:102F400094E00E94F60A80ED93E00E94F6048FE977
:102F500094E00E94F60ABC01990F880B990B42E09D
:102F60000E94D30382EC93E00E94F60462E070E0DA
:102F700089E490E00E946705D8CF8CEB93E00E9433
:102F8000F60460910C0170910D01072E000C880B66
:102F9000990B4AE050E00E9425058AEB93E00E94DD
:102FA000F6046091060170910701809108019091EB
:102FB000090142E00E94140488EB93E00E94F604A9
:102FC00060910201709103018091040190910501CB
:102FD00042E050E00E94E80482EB93E00E94F60495
:102FE0006AE070E080913E0390913F030E94670584
:102FF0008CEA93E00E94F6046AE070E0809114018C
:10300000909115010E94670586EA93E00E94F604FC
:10301000609116017091170180911801909119012A
:1030200042E050E00E94E80480EA93E00E94F60447
:1030300060916A0370916B0380916C0390916D03B2
:103040004AE050E00E9425058FE592E00E947E0351
:1030500080910203803509F04AC0809103038534D2
:1030600039F481E090E090931301809312013FC006
:103070008734E9F5BF92AF9282E692E09F938F93F7
:10308000FF92EF920E942E280F900F900F900F90BA
:103090000F900F9089819A818430910511F40C94DE
:1030A000832014F00C9470208130910511F00C9461
:1030B000692080E090E0A0E8BFE380931601909340
:1030C0001701A0931801B09319010E94540F609149
:1030D00016017091170180911801909119010E94B9
:1030E0005327DC01CB0160E070E00E947A058091FB
:1030F00002038434C1F5809103038234A1F580E199
:1031000091E09F938F93DF92CF9288E692E09F9316
:103110008F93FF92EF920E942E2884ED93E00E94FD
:10312000F6046AE070E080911001909111010E9414
:10313000670580911001909111010FB6F894DEBFE0
:103140000FBECDBF8C30910534F0833191052CF04A
:1031500082E190E002C08CE090E0909311018093B6
:1031600010010E94540F80910203843421F5809154
:103170000303833501F580E091E09F938F938EE602
:1031800092E09F938F93FF92EF920E942E2880EE01
:1031900093E00E94F6046AE070E080910001909153
:1031A00001010E9467050E94540F0F900F900F902D
:1031B0000F900F900F9080910203863509F062C046
:1031C000809103038D3409F05DC080916E0390916E
:1031D0006F03892B21F485EF93E00E94170581E0AE
:1031E00090E090936F0380936E03109213011092FE
:1031F0001201209100033091010380910E01909102
:103200000F012130310539F06091100170911101E9
:103210000E94B8061CC00091400310914103209108
:103220004203309143034091440350914503609120
:103230004603709147030E94AF0E209144033091E2
:10324000450340914603509147030E94E1262B011C
:103250003C0180913C0390913D03019719F481EF6B
:1032600093E002C08DEE93E00E94F60440913C038F
:1032700050913D0320E030E0C301B2010E94830F72
:103280000E94540F809102038635D1F5809103038B
:103290008334B1F580916E0390916F03019721F40F
:1032A00081E094E00E94170510926F0310926E0364
:1032B000109213011092120181E090E09093690343
:1032C000809368030E94540F0E94CF0B0E94EB244E
:1032D0006093FC027093FD028093FE029093FF02C4
:1032E0001092F8021092F9021092FA021092FB0268
:1032F0001092F4021092F5021092F6021092F70268
:10330000809102038E3489F580910303833569F53A
:103310008EE091E09F938F9384E792E09F938F9349
:10332000FF92EF920E942E280F900F900F900F9017
:103330000F900F9080910E0190910F0118161906B1
:1033400034F081E090E090930F0180930E0189E1C9
:1033500094E00E94F6046AE070E080910E01909182
:103360000F010E9467050E94540F80910203873469
:1033700031F480910303833511F40E94650F80912D
:1033800002038C3471F480910303833551F487E296
:1033900094E00E94170581E090E0909315018093DE
:1033A0001401809102038C3461F4809103038F3403
:1033B00041F489E394E00E941705109215011092E0
:1033C0001401809102038C34A1F5809103038635AA
:1033D00081F5DF92CF928AE792E09F938F93FF92DD
:1033E000EF920E942E2882EE93E00E94FE200F9022
:1033F0000F900F900F900F900F9020E030E040E87A
:103400005FE30E94E624811109C080E090E0A0E81B
:10341000BFE389839A83AB83BC8304C019821A8279
:103420001B821C82B1018CE090E00E94210E0E9460
:10343000540F809102038C3409F06BC08091030318
:10344000803509F066C0DF92CF9280E892E09F93CA
:103450008F93FF92EF920E942E2882EE93E00E94BB
:10346000FE200F900F900F900F900F900F9020E084
:1034700030E040E85FE30E94E624882329F01092C0
:103480000D0110920C0143C081E090E090930D017A
:1034900080930C01609110017091110120910E0137
:1034A00030910F01EDB7FEB738970FB6F894FEBF15
:1034B0000FBEEDBFADB7BEB7119698E0E0E4F3E004
:1034C00001900D929A95E1F74DB75EB748515109B9
:1034D0000FB6F8945EBF0FBE4DBFADB7BEB7119625
:1034E00098E1E8E4F3E001900D929A95E1F7C901C3
:1034F0000E949207609338037093390380933A03D4
:1035000090933B030FB6F894DEBF0FBECDBF0E9471
:10351000540F80910203883441F48091030389346D
:1035200021F48EE494E00E94170580910203813417
:1035300009F0AFC080910303823509F0AAC068E4A6
:1035400073E080E190E00E94890E6AE070E080E024
:1035500090E00E94F40B6CE473E084E190E00E9440
:10356000890E6AE070E080E090E00E94F40B60E574
:1035700073E088E190E00E94890E6AE070E080E0EC
:1035800090E00E94F40B64E573E08CE190E00E940F
:10359000890E6AE070E080E090E00E94F40B68E53C
:1035A00073E080E290E00E94890E6AE070E080E0C3
:1035B00090E00E94F40B6CE573E084E290E00E94DE
:1035C000890E6AE070E080E090E00E94F40B82E7F0
:1035D00094E00E94F6046091480370914903809141
:1035E0004A0390914B0346E050E00E94E8048CE6C9
:1035F00094E00E94F60460914C0370914D03809119
:103600004E0390914F0346E050E00E94E80486E6A6
:1036100094E00E94F60460915003709151038091F0
:1036200052039091530346E050E00E94E80480E684
:1036300094E00E94F60460915403709155038091C8
:1036400056039091570346E050E00E94E8048AE553
:1036500094E00E94F60460915803709159038091A0
:103660005A0390915B0346E050E00E94E80484E531
:1036700094E00E94F60460915C0370915D03809178
:103680005E0390915F0346E050E00E94E8040E94D0
:10369000540F80910203813409F064C080910303C8
:1036A0008D3409F05FC0DF92CF923F922F9286E86F
:1036B00092E09F938F93FF92EF920E942E280E9498
:1036C0009E0382EE93E00E94FE200FB6F894DEBFC8
:1036D0000FBECDBF29813A812230310549F17CF4FA
:1036E00021153105E1F021303105E1F560934C03FE
:1036F00070934D0380934E0390934F0333C0243057
:10370000310541F1F4F02530310561F560935C033A
:1037100070935D0380935E0390935F0323C0609377
:1037200048037093490380934A0390934B031AC054
:10373000609350037093510380935203909353030B
:1037400011C0609354037093550380935603909374
:10375000570308C0609358037093590380935A032A
:1037600090935B0380910203813469F58091030398
:10377000823449F5DF92CF928FE892E09F938F9346
:10378000FF92EF920E942E2882EE93E00E94FE208C
:103790000F900F900F900F900F900F9020E030E05F
:1037A00040E85FE30E94E624882329F010923D035D
:1037B00010923C0306C081E090E090933D0380931B
:1037C0003C030E94540F80910203813481F5809163
:1037D0000303833461F53F922F9285E992E09F9332
:1037E0008F93FF92EF920E942E280F900F900F90D0
:1037F0000F900F900F9089819A818130910539F453
:10380000909301038093000383E894E006C0109234
:1038100001031092000388E794E00E94170560ED11
:1038200077E080E090E00E94F40B0E94540F8091BA
:1038300002038334A1F580910303863581F5DF927D
:10384000CF928BE992E09F938F93FF92EF920E9429
:103850002E2882EE93E00E94FE200F900F900F9092
:103860000F900F900F9020E030E040E85FE30E945F
:10387000E624811109C080E090E0A0E8BFE38983DD
:103880009A83AB83BC8304C019821A821B821C8278
:10389000B10180E090E00E94210E0E94540F8091BF
:1038A0000203833409F060C080910303833509F07B
:1038B0005BC03F922F9281EA92E09F938F93FF9299
:1038C000EF920E942E2869817A81072E000C880BC6
:1038D000990B0E94ED240F900F900F900F900F9076
:1038E0000F9020E030E0A9010E94E62487FF02C08B
:1038F0001A8219828FE894E00E94F6046AE070E070
:1039000089819A810E9467050E94AB0364E670E09A
:1039100080E090E00E94F40B69807A800E94AB0303
:1039200064E670E080E090E00E94F40BB5E06B1676
:10393000710440F4F301EE0FFF1FE65EFE4F60815D
:10394000718102C060E072EC072E000C880B990BAD
:103950000E940C0382E094E00E94880A87EA92E0C9
:103960000E9490030E94540F80910203833409F057
:103970006BC080910303813409F066C0DF92CF925F
:103980008DEA92E09F938F93FF92EF920E942E28F0
:1039900082EE93E00E94FE200F900F900F900F9008
:1039A0000F900F9020E030E040E85FE30E94E624B3
:1039B000882329F010923F0310923E0343C081E018
:1039C00090E090933F0380933E03609110017091CB
:1039D000110120910E0130910F01EDB7FEB738971C
:1039E0000FB6F894FEBF0FBEEDBFADB7BEB71196D0
:1039F00098E0E0E4F3E001900D929A95E1F74DB77D
:103A00005EB7485151090FB6F8945EBF0FBE4DBF67
:103A1000ADB7BEB7119698E1E8E4F3E001900D92DE
:103A20009A95E1F7C9010E94920760936003709331
:103A3000610380936203909363030FB6F894DEBF33
:103A40000FBECDBF0E94540F80910203853451F404
:103A500080910303833531F464E473E088E090E0FF
:103A60000E94210E80910203853451F4809103035A
:103A70008F3431F460E473E084E090E00E94210E22
:103A800080910203853409F04FC080910303813493
:103A900009F04AC068E473E080E190E00E94210EE2
:103AA0006AE070E080E090E00E94F40B6CE473E068
:103AB00084E190E00E94210E6AE070E080E090E0F6
:103AC0000E94F40B60E573E088E190E00E94210E13
:103AD0006AE070E080E090E00E94F40B64E573E03F
:103AE0008CE190E00E94210E6AE070E080E090E0BE
:103AF0000E94F40B68E573E080E290E00E94210EE2
:103B00006AE070E080E090E00E94F40B6CE573E006
:103B100084E290E00E94210E6AE070E080E090E094
:103B20000E94F40B0E94540F80910203843509F027
:103B300042C0809103038335F1F53F922F9283EBCE
:103B400092E09F938F93FF92EF920E942E280F9006
:103B50000F900F900F900F900F9089819A8100978E
:103B600021F18130910509F590930B0180930A01B1
:103B70000E94CF0B0E94EB246093FC027093FD0225
:103B80008093FE029093FF021092F8021092F902C5
:103B90001092FA021092FB021092F4021092F502B7
:103BA0001092F6021092F70204C010920B011092CC
:103BB0000A010E94540F80910203843509F04BC022
:103BC00080910303843409F046C0DF92CF9289EBE1
:103BD00092E09F938F93FF92EF920E942E2882EEA5
:103BE00093E00E94FE200E9453270F900F900F90A9
:103BF0000F900F900F9062307105810591054CF088
:103C000060936A0370936B0380936C0390936D03CE
:103C100008C010926A0310926B0310926C0310920A
:103C20006D038CEA94E00E94F60460916A0370913F
:103C30006B0380916C0390916D034AE050E00E9409
:103C400025058FE592E00E947E0360ED77E080E03D
:103C500090E00E94F40B80910203813539F4809149
:103C60000303813519F4E0E0F0E009958091020347
:103C7000873509F04AC080910303863409F045C0B6
:103C80001D8A1E8A1F8A188E19821A821B821C8224
:103C9000DF92CF92FC8DFF932B8D2F93AFEBB2E091
:103CA000BF93AF93FF92EF920E942E280E949E0333
:103CB00082EE93E00E94FE206D8B7E8B8F8B988F1F
:103CC000898D9A8DB101880F991F880F991F0E94C5
:103CD000890E0FB6F894DEBF0FBECDBF2D893E8989
:103CE0004F89588D69817A818B819C810E94E6245D
:103CF000882349F0898D9A8DB401880F991F880F08
:103D0000991F0E94210E0E94540F80910203873553
:103D100009F04EC080910303843509F049C0DF9259
:103D2000CF92A8ECB2E0BF93AF93FF92EF920E94C4
:103D30002E280E949E0382EE93E00E94FE202B011B
:103D40003C010F900F900F900F900F900F9020E07C
:103D500030E0A9010E94E62487FD0AC020E030E09F
:103D600040E85FE3C301B2010E948927181634F4CA
:103D700086E6482E542C642C8FE3782E4092060160
:103D8000509207016092080170920901A30192010B
:103D900060E070E080E89FE30E9474266093020177
:103DA0007093030180930401909305010E94540FC6
:103DB00080916E0390916F03892B09F086C18091E9
:103DC000120190911301892B09F07FC180916A0340
:103DD00090916B03A0916C03B0916D0383309105BA
:103DE000A105B10544F0BC01CD0162507109810902
:103DF00091090E94F40B409168035091690320914E
:103E000000033091010380910E0190910F01413028
:103E1000510509F4D6C04091640350916503609147
:103E20006603709167034D8F5E8F6F8F78A3409309
:103E300060035093610360936203709363032130C6
:103E4000310581F16091100170911101ADB7BEB7DC
:103E500018970FB6F894BEBF0FBEADBF119628E0FD
:103E6000E0E4F3E001900D922A95E1F7EDB7FEB79B
:103E700078970FB6F894FEBF0FBEEDBFADB7BEB7D3
:103E8000119628E1E8E4F3E001900D922A95E1F71C
:103E90000E9492072B013C010FB6F894DEBF0FBEC3
:103EA000CDBF14C000914003109141032091420303
:103EB0003091430340914403509145036091460380
:103EC000709147030E94AF0E2B013C0140926403A6
:103ED00050926503609266037092670380910C01B3
:103EE00090910D01019781F5209106013091070114
:103EF0004091080150910901C301B2010E944C2573
:103F00002B013C01209138033091390340913A0351
:103F100050913B0360910201709103018091040173
:103F2000909105010E944C259B01AC01C301B20197
:103F30000E9475262B013C0160933803709339036E
:103F400080933A0390933B0380913E0390913F030B
:103F5000019711F5209134033091350340913603D8
:103F600050913703C301B2010E9475262D8D3E8DFD
:103F70004F8D58A10E94742626E636E646E65FE39A
:103F80000E944C252B013C01609334037093350350
:103F9000809336039093370380913C0390913D03C7
:103FA000019761F480910A0190910B01892B19F01E
:103FB0008EEC92E078C082ED92E075C086ED92E0E2
:103FC00072C02130310539F06091100170911101FA
:103FD0000E94B8061CC0009140031091410320913B
:103FE0004203309143034091440350914503609153
:103FF0004603709147030E94AF0E20914403309115
:10400000450340914603509147030E94E1262B014E
:104010003C0180910C0190910D01019781F5209157
:104020000601309107014091080150910901C30137
:10403000B2010E944C252B013C01209138033091A4
:10404000390340913A0350913B0360910201709112
:10405000030180910401909105010E944C259B0170
:10406000AC01C301B2010E9475262B013C01609393
:1040700038037093390380933A0390933B03809104
:104080003C0390913D03019761F480910A01909166
:104090000B01892B19F08AED92E005C08EED92E0BC
:1040A00002C082EE92E00E947E0320910A013091CC
:1040B0000B0140913C0350913D03C301B2010E94AA
:1040C000830F82E094E00E94880A0E94AA0A0C945E
:1040D000EE11029761F560E070E080E090E42BC0A3
:1040E00088309105B1F0409711F540E050E060E86C
:1040F00071E4409316015093170160931801709377
:1041000019010C94651880E090E0A0E8B0E40C94EC
:104110005D1820E030E040E051E420931601309338
:10412000170140931801509319010C94651860E031
:1041300070E080E891E4609316017093170180931A
:104140001801909319010C946518E2E0F4E01382D1
:10415000128288EE93E0A0E0B0E084839583A6838A
:10416000B78323EA31E03183208325EC30E03587C3
:10417000248724EC30E03787268720EC30E0318B31
:10418000208B21EC30E0338B228B22EC30E0358B1E
:10419000248B26EC30E0378B268B118E128E138EFB
:1041A000148EEFE9F4E01382128284839583A68350
:1041B000B78385EB91E0918380830895EF920F930D
:1041C0001F93CF93DF93E80147FD02C034E001C0A5
:1041D00034E1E42F440FFF0BF7FF03C0F195E195A5
:1041E000F109E32E022F2E2FAE010E940221CE01F3
:1041F000DF91CF911F910F91EF9008956627772758
:104200000C9490224F925F926F927F929F92AF9206
:10421000BF92CF92DF92EF92FF920F931F93CF93B3
:10422000DF93CDB7DEB729970FB6F894DEBF0FBE88
:10423000CDBF6A01122FB02E2BE3201720F0FF24F0
:10424000F394F00E02C0BCE3FB2E0F2D27E0AE016D
:104250004F5F5F4F0E94ED23AC018981982F9970C9
:10426000913031F0E1FC06C0E0FE06C090E205C0EE
:104270009DE203C09BE201C090E0EE2DE07183FF60
:104280003CC0911102C083E001C084E0811718F4A2
:10429000212F281B01C020E0E1110BC0F601822F65
:1042A00030E2882319F031938150FBCFC20ED11C2C
:1042B00020E0992329F0D6019C93F60131966F01F5
:1042C000C6010396E2FE0AC03EE4D6013C9341E4F7
:1042D00011964C93119712963C9306C03EE6F60158
:1042E000308341E641833283FC01322F40E23323A5
:1042F00009F442C041933150FACF82FF44C091117A
:1043000002C083E001C084E0811718F4212F281B2C
:1043100001C020E0E1110BC0F601822F30E28823BA
:1043200019F031938150FBCFC20ED11C20E09923AC
:1043300029F0D6019C93F60131966F01C6010396D0
:10434000E2FE0BC039E4D6013C933EE411963C9367
:10435000119736E412963C9307C039E6F601308394
:104360003EE6318336E63283FC01322F40E23323CE
:1043700019F041933150FBCFFC01E20FF11D108287
:104380008EEF9FEFB7C0F1E0911101C0F0E06F2F09
:1043900070E01416150624F49A012F5F3F4F02C0F7
:1043A00021E030E0260F371FBB2029F06B2D70E095
:1043B0006F5F7F4F02C060E070E0260F371F612FF4
:1043C00070E0261737071CF4121B212F01C020E0D4
:1043D0003E2D387159F4D601322F60E2332319F0A3
:1043E0006D933150FBCFC20ED11C20E0FF2331F082
:1043F000D6019C93B6016F5F7F4F6B01E1110BC03B
:10440000F601922F30E3992319F031939150FBCFAD
:10441000C20ED11C20E09F2D940F3A81782F70712D
:10442000A72E84FF03C0313309F49150191624F4E8
:10443000993018F098E001C091E0E42F852F57FFE4
:1044400002C0E0E080E06E2F782FE0E0F0E0AEE226
:104450009A2E3A01691A71082A01461A570A0B2D39
:1044600010E01195019511096F3F8FEF780729F43E
:10447000D6019C92C60101966C014617570784F03D
:10448000661677066CF47F01E40CF51CA1E0B0E041
:10449000AC0FBD1FEA0EFB1ED7011196BC9002C0E7
:1044A00090E3B92E615071093196C60101967C01E5
:1044B0006017710724F0D601BC926C01D5CF641748
:1044C000750741F4363320F4353321F4A11002C0CE
:1044D00081E3B82EF601B082F701822F90E28823A3
:1044E00019F091938150FBCFF701E20FF11D10827B
:1044F00080E090E029960FB6F894DEBF0FBECDBFE6
:10450000DF91CF911F910F91FF90EF90DF90CF90AF
:10451000BF90AF909F907F906F905F904F90089565
:10452000A0E0B0E0E6E9F2E20C943226EC017B0177
:104530006115710519F0DB018D939C938E010F5F5E
:104540001F4F7880872D90E00E94C524892B11F0A1
:10455000E801F4CFBDE27B1205C00F5F1F4F7980E9
:10456000C1E008C0EBE27E1204C08E010E5F1F4F57
:104570007980C0E06801F1E0CF1AD10843E050E053
:1045800060E770E0C6010E94CE24892BF1F4680137
:1045900022E0C20ED11C45E050E06BE670E0C6019F
:1045A0000E94CE24892B21F4680187E0C80ED11C1B
:1045B000E114F10419F0D701CD92DC92C111FFC0D2
:1045C00060E070E080E89FE703C143E050E068E608
:1045D00070E0C6010E94CE24892B51F4E114F1044D
:1045E00009F4F2C00E5F1F4FF70111830083ECC086
:1045F000680160E070E0CB0100E010E0F601D0ED72
:10460000D70DDA3058F52C2F2260622E2C2F28700F
:10461000C2FF05C0211128C00F5F1F4F25C02223F4
:1046200011F001501109A5E0B0E09B01AC010E941E
:1046300023264B015C01880C991CAA1CBB1CC501DC
:10464000B4016D0F711D811D911D6839A9E97A07AB
:104650008A07A9E19A0740F0C66005C0DE3F51F421
:10466000C3FD44C0C8606C2EBFEFCB1ADB0A70805C
:10467000C62DC4CF2D2F2F7D2531C1F540814D3260
:1046800011F4C06106C04B3221F0319621E030E0D8
:1046900006C03296D60111964C9122E030E0A0ED92
:1046A000A40FAA3018F0E21BF30B20C040E050E04A
:1046B0004038BCE05B075CF49A01220F331F220FE5
:1046C000331F420F531F440F551F4A0F511D319680
:1046D000DF0111972C91A0EDA20FAA3048F3C4FF7F
:1046E00003C0519541955109040F151FC1FF07C023
:1046F000E114F10421F03197D701ED93FC930E946E
:10470000EB24C370C33019F06B017C0106C06B0150
:104710007C01F7FAF094F7F8F09420E030E0A9017A
:10472000C701B6010E94E624882309F445C017FF9B
:1047300006C0119501951109C7E8D0E002C0CFE984
:10474000D0E05E01B8E1AB1AB1084601BE2DAF2D35
:1047500090E2E92EF12C0E151F0584F0FE01259143
:10476000359145915491B4018B2F9A2F0E944C257D
:104770004B01B82FA92F0E191F09EDCF2497F594DF
:10478000E794CA15DB0539F76401EB2EFA2E8E2D5E
:10479000880F8F2D881F8F3F49F020E030E0A9015E
:1047A000C701B6010E94E624811106C082E290E0B2
:1047B0009093FD048093FC04C701B60109C060E03A
:1047C00070E080E89FEF04C060E070E080EC9FE75D
:1047D000CDB7DEB7EEE00C944E26283008F027E087
:1047E0003327DA01990F311D87FD9160009661052D
:1047F000710539F432602E5F3D9330E32A95E1F77D
:1048000008959F3F30F080387105610509F03C5FE5
:104810003C5F3D93913008F08068911DDF93CF930A
:104820001F930F93FF92EF92192F987F9695E92F80
:1048300096959695E90FFF27E350FF4F9927332769
:10484000EE24FF24A701E70105900894079428F4BB
:10485000360FE71EF81E491F511D660F771F881F70
:10486000991F0694A1F70590079428F4E70EF81E07
:10487000491F561FC11D770F881F991F661F069479
:10488000A1F70590079428F4F80E491F561FC71F7B
:10489000D11D880F991F661F771F0694A1F70590F9
:1048A000079420F4490F561FC71FD81F990F661F82
:1048B000771F881F0694A9F784911095177041F00F
:1048C000D695C79557954795F794E7941A95C1F7EC
:1048D000E3EAF0E068941590159135916591959112
:1048E00005907FE27395E118F10A430B560BC90B53
:1048F000D009C0F7E10CF11E431F561FC91FD01D80
:104900007EF4703311F48A95E6CFE894015030F0CC
:10491000080F0AF40027021708F4202F2395022F0E
:104920007A3328F079E37D932A95E9F710C07D93D7
:104930002A9589F606949795679537951795179454
:10494000E118F10A430B560BC90BD00998F02395D7
:104950007E9173957A3308F070E37C932013B8F757
:104960007E9170617D9330F0839571E37D9370E368
:104970002A95E1F71124EF90FF900F911F91CF91AD
:10498000DF91992787FD9095089591110C94B92591
:10499000803219F089508550C8F70895FB01DC0179
:1049A0004150504088F08D9181341CF08B350CF4CF
:1049B000805E659161341CF06B350CF4605E861B83
:1049C000611171F3990B0895881BFCCF0E94282573
:1049D00008F481E00895E89409C097FB3EF49095AF
:1049E0008095709561957F4F8F4F9F4F9923A9F0C8
:1049F000F92F96E9BB279395F69587957795679557
:104A0000B795F111F8CFFAF4BB0F11F460FF1BC09A
:104A10006F5F7F4F8F4F9F4F16C0882311F096E92D
:104A200011C0772321F09EE8872F762F05C06623DB
:104A300071F096E8862F70E060E02AF09A95660F94
:104A4000771F881FDAF7880F9695879597F908954D
:104A5000990F0008550FAA0BE0E8FEEF161617068F
:104A6000E807F907C0F012161306E407F50798F0F7
:104A7000621B730B840B950B39F40A2661F0232B10
:104A8000242B252B21F408950A2609F4A140A6958C
:104A90008FEF811D811D08950E945F250C94D32501
:104AA0000E94C52538F00E94CC2520F0952311F0F6
:104AB0000C94BC250C94C22511240C9407260E944A
:104AC000E42570F3959FC1F3950F50E0551F629F49
:104AD000F001729FBB27F00DB11D639FAA27F00D57
:104AE000B11DAA1F649F6627B00DA11D661F829F7E
:104AF0002227B00DA11D621F739FB00DA11D621F63
:104B0000839FA00D611D221F749F3327A00D611D7F
:104B1000231F849F600D211D822F762F6A2F112461
:104B20009F5750409AF0F1F088234AF0EE0FFF1F94
:104B3000BB1F661F771F881F91505040A9F79E3FEB
:104B4000510580F00C94BC250C9407265F3FE4F3DC
:104B5000983ED4F3869577956795B795F795E79541
:104B60009F5FC1F7FE2B880F911D9695879597F94A
:104B7000089599278827089597F99F6780E870E03E
:104B800060E008959FEF80EC089500240A941616C3
:104B9000170618060906089500240A94121613062B
:104BA000140605060895092E0394000C11F48823B9
:104BB00052F0BB0F40F4BF2B11F460FF04C06F5FD5
:104BC0007F4F8F4F9F4F089557FD9058440F551FAB
:104BD00059F05F3F71F04795880F97FB991F61F07F
:104BE0009F3F79F087950895121613061406551FF6
:104BF000F2CF4695F1DF08C0161617061806991F62
:104C0000F1CF86957105610508940895E894BB2756
:104C100066277727CB0197F90895F999FECF92BDC2
:104C200081BDF89A992780B50895262FF999FECF6E
:104C30001FBA92BD81BD20BD0FB6F894FA9AF99AB9
:104C40000FBE019608950E946526A59F900DB49F02
:104C5000900DA49F800D911D112408952F923F92D5
:104C60004F925F926F927F928F929F92AF92BF927C
:104C7000CF92DF92EF92FF920F931F93CF93DF9328
:104C8000CDB7DEB7CA1BDB0B0FB6F894DEBF0FBE85
:104C9000CDBF09942A88398848885F846E847D84D2
:104CA0008C849B84AA84B984C884DF80EE80FD80D4
:104CB0000C811B81AA81B981CE0FD11D0FB6F8944A
:104CC000DEBF0FBECDBFED010895A29FB001B39F1F
:104CD000C001A39F700D811D1124911DB29F700D05
:104CE000811D1124911D08955058BB27AA270E94A9
:104CF0008C260C94D3250E94C52538F00E94CC2523
:104D000020F039F49F3F19F426F40C94C2250EF4D8
:104D1000E095E7FB0C94BC25E92F0E94E42558F3AD
:104D2000BA17620773078407950720F079F4A6F590
:104D30000C9406260EF4E0950B2EBA2FA02D0B0135
:104D4000B90190010C01CA01A0011124FF27591BD0
:104D500099F0593F50F4503E68F11A16F040A22FD6
:104D6000232F342F4427585FF3CF46953795279547
:104D7000A795F0405395C9F77EF41F16BA0B620B46
:104D8000730B840BBAF09150A1F0FF0FBB1F661F8D
:104D9000771F881FC2F70EC0BA0F621F731F841FD0
:104DA00048F4879577956795B795F7959E3F08F0F6
:104DB000B0CF9395880F08F09927EE0F97958795B8
:104DC00008950E94F5260C94D3250E94CC2558F016
:104DD0000E94C52540F029F45F3F29F00C94BC25C2
:104DE00051110C9407260C94C2250E94E42568F307
:104DF0009923B1F3552391F3951B550BBB27AA2794
:104E000062177307840738F09F5F5F4F220F331FCD
:104E1000441FAA1FA9F335D00E2E3AF0E0E832D095
:104E200091505040E695001CCAF72BD0FE2F29D098
:104E3000660F771F881FBB1F261737074807AB076A
:104E4000B0E809F0BB0B802DBF01FF2793585F4FDF
:104E50003AF09E3F510578F00C94BC250C9407263F
:104E60005F3FE4F3983ED4F3869577956795B795C1
:104E7000F7959F5FC9F7880F911D9695879597F9CC
:104E80000895E1E0660F771F881FBB1F6217730745
:104E90008407BA0720F0621B730B840BBA0BEE1F5A
:104EA00088F7E09508950E945A276894B1110C94F0
:104EB000072608950E94EC2588F09F5798F0B92F97
:104EC0009927B751B0F0E1F0660F771F881F991F3F
:104ED0001AF0BA95C9F714C0B13091F00E940626B5
:104EE000B1E008950C940626672F782F8827B85FC5
:104EF00039F0B93FCCF3869577956795B395D9F797
:104F00003EF490958095709561957F4F8F4F9F4FA0
:104F100008950E94282508F48FEF089519F416F4D7
:104F20000C94C2250C94D9270E94EC25B8F3992340
:104F3000C9F3B6F39F57550B87FF0E94E72700245C
:104F4000A0E640EA900180585695979528F4805C39
:104F5000660F771F881F20F026173707480730F4A1
:104F6000621B730B840B202931294A2BA6951794B9
:104F70000794202531254A2758F7660F771F881F89
:104F800020F026173707480730F4620B730B840BA9
:104F9000200D311D411DA09581F7B901842F915835
:104FA000880F9695879508950E942825880B990B60
:104FB00008959F3F31F0915020F48795779567953C
:104FC000B795880F911D9695879597F908959150FB
:104FD0005040660F771F881FD2F70895A1E21A2E5E
:104FE000AA1BBB1BFD010DC0AA1FBB1FEE1FFF1F8D
:104FF000A217B307E407F50720F0A21BB30BE40BDD
:10500000F50B661F771F881F991F1A9469F7609523
:105010007095809590959B01AC01BD01CF010895DD
:10502000EE0FFF1F0590F491E02D099481E090E0D0
:10503000F8940C94572B9111089581568A5108F4D5
:10504000805285580895FB01DC010D900020E9F79E
:10505000119701900D920020E1F70895AEE0B0E0C5
:10506000E4E3F8E20C943E2685E08C838B899C89EE
:105070009A838983AE01495E5F4F6D897E89CE0137
:1050800001960E94C7292E96E2E00C945A2620FD34
:1050900009C0FC0123FD05C022FF02C073836283A7
:1050A00051834083089544FD10C046FD10C0DB01CC
:1050B000FC01AA0FBB1FEE1FFF1F1094D1F76A0F50
:1050C0007B1F8E1F9F1F31E003C033E001C034E01F
:1050D000660F771F881F991F3150D1F7620F711D1E
:1050E000811D911D08950F931F93CF93DF938C0122
:1050F000C8010E94002BEC0197FD08C00E94C52446
:10510000892BB1F7B801CE010E943E2BCE01DF9171
:10511000CF911F910F910895A1E0B0E0E2E9F8E28C
:105120000C9434268C01C62E7A0129830E94002B10
:10513000AC01552729814B32510521F04D325105E3
:1051400069F42068CA94C11002C080E076C0C8012A
:1051500029830E94002B298197FDF7CF322F3D7FB5
:10516000D32E322F307349F5803339F5BB24BA94EE
:10517000BC0C09F44EC0C80129830E94002B298170
:1051800097FD47C0382F3F7D383569F48D2D8264F7
:10519000D82ECA94CA94CC20E1F1C8010E94002BF9
:1051A00097FF0BC036C026FF04C02D2D2260D22EE3
:1051B00003C03D2D3261D32ECB2C812C912C540178
:1051C00020ED280F283080F0D4FE04C0B8010E94E2
:1051D0003E2B1CC02A3040F0D6FEF8CF2F7D3FEE8C
:1051E000320F363098F727504D2DC501B4010E947B
:1051F00053284B015C018D2D8260D82ECA94CC209F
:1052000059F0C8010E94002B97FFDACFD1FC04C0EF
:105210009CCF812C912C5401D7FE08C0B094A0944F
:1052200090948094811C911CA11CB11C2D2DB50162
:10523000A401C7010E94472881E02196ECE00C946C
:105240005026A1E2B0E0E7E2F9E20C9432265C01DC
:105250007A01CE0101966C0180E2F60111928A95E5
:10526000E9F7F501838040E050E0912C712C70E06B
:10527000A1E0B0E0F90183FC859183FE81918F016B
:10528000982F9F01811103C080E090E07CC08E3593
:1052900019F44115510549F1E72FF0E0E417F5073E
:1052A0003CF48D3559F18D3219F4772001F103C0AA
:1052B000711001C0982E892F869586958695860156
:1052C000080F111D892F87703D0101C0660C8A955A
:1052D000EAF7F801808186298083991559F099159C
:1052E00010F49F5FE8CF9150E6CF71E004C07724BF
:1052F000739401C0712C4F5F5F4FBCCF772019F0C2
:105300008E8180628E83711103C09924939416C09C
:10531000F6019E012F5D3F4F808180958193E217BA
:10532000F307D1F7F2CFE114F10429F0F7018083FC
:10533000C70101967C016150912CF9F0C50169A368
:105340000E94002B69A197FD16C0282F269526954F
:105350002695F601E20FF11D208130E0AC01477087
:10536000552702C0359527954A95E2F720FDDBCFFA
:10537000B5010E943E2B911087CFE114F10411F08A
:10538000F7011082C801A196EEE00C944E264F92D0
:105390005F927F928F929F92AF92BF92CF92DF9255
:1053A000EF92FF920F931F93CF93DF931F92CDB78E
:1053B000DEB76C012B015A01FC0117821682712C99
:1053C000F601F380F201F3FC8591F3FE8191382F11
:1053D0002F01882309F4F3C090E039830E94C5248B
:1053E0003981892B21F0C6010E947328E9CF35321B
:1053F00041F4F201F3FC3591F3FE31912F01353286
:1054000069F4C60139830E94002B398197FDD5C00C
:105410003817B1F2B6010E943E2BD1C03A3239F4AE
:10542000F3FC3591F3FE31912F0151E001C050E0C2
:10543000420110E020ED230F2A3090F45260612FDA
:1054400070E080E090E040E259830E945328162FDC
:10545000F401F3FC3591F3FE31914F015981EACF0C
:10546000052F232F240151FF03C0111102C0A7C033
:105470001FEF383619F03C3659F011C0F401F3FC37
:105480002591F3FE21912F01283649F4052F08605C
:105490000460F201F3FC2591F3FE21912F012223F8
:1054A00009F48DC0622F70E08DE991E029830E949C
:1054B000F52A2981892B09F482C000FD07C0F50176
:1054C000E080F180C50102965C0102C0E12CF12C64
:1054D0002E3651F4F6014681578160E070E0202FAE
:1054E000C7010E9447286CCF233691F401FF11E0D9
:1054F000C6010E94002B97FD60C0E114F10429F061
:10550000F7018083C70101967C01115089F751C0D2
:105510002B3559F49201A701612FC6010E94212960
:105520002C01892B09F045C03FC0C60129830E9488
:105530007328298197FD41C02F3659F128F424366C
:1055400031F1293649F127C0233769F02537F9F0C1
:1055500022C0E114F10429F0F7018082C70101960D
:105560007C01115071F0C6010E94002B4C0197FD87
:1055700008C00E94C524892B61F3B601C4010E94B2
:105580003E2BE114F104A9F0F701108212C0006271
:1055900003C0006101C00064202FA701612FC60174
:1055A0000E948C28811105C0F6018381807329F443
:1055B00006C000FD05CF739403CF772019F0872D27
:1055C00090E002C08FEF9FEF0F90DF91CF911F917E
:1055D0000F91FF90EF90DF90CF90BF90AF909F9092
:1055E0008F907F905F904F900895FC010590061674
:1055F00021F00020D9F7C00108953197CF01089517
:10560000CF93DF93EC012B8120FF33C026FF0AC02C
:105610002F7B2B838E819F8101969F838E838A812E
:1056200090E029C022FF0FC0E881F9818081082E17
:10563000000C990B009719F420622B831AC0319645
:10564000F983E8830EC0EA85FB85099597FF09C0B9
:105650002B81019611F080E201C080E1822B8B83C7
:1056600008C02E813F812F5F3F4F3F832E839927B4
:1056700002C08FEF9FEFDF91CF910895FB0123814F
:1056800020FF12C026FD10C08F3F3FEF930761F04F
:1056900082832F7D20642383268137812150310925
:1056A00037832683992708958FEF9FEF0895F89405
:0256B000FFCF2A
:1056B2000400CDCCCC3D6666663F010001000100CE
:1056C200100001000100000000418025403800E187
:1056D20000C200840000003F0000803E0000003E47
:1056E2000000803D0000003D0000803C00000040C2
:1056F20000008040000000410000804100000042A4
:10570200000080426F1283386F1203396F12033820
:105712006F1203396F1203396F1203396F12833715
:105722006F1203396F1203396F1203396F12033983
:105732006F1203396F1203396F1203396F12033775
:1057420004020602020208020202020202020A0025
:10575200000000410AAE09D909880A0A0AE809FCD0
:105762000900000000420B120B720BE60A0A0BF64C
:105772000AE70A4D44545553424D414731442E568F
:10578200392E3230313930363231005663633A20A5
:10579200200020560043616C20456E61626C656496
:1057A20000556E63616C69627261746564004C6974
:1057B2006E20456E61626C6564004C696E204469BE
:1057C2007361626C6564004F4D202573004F4D205C
:1057D2002573202573004F57202573004F5720252E
:1057E20073202573004F5220257300534D202573DB
:1057F20000534D2025732025730053572025730035
:105802005357202573202573005246202564000D2E
:105812000A00504720256400257320256400445364
:10582200202564004E53202564004C562025730029
:105832004C5020257300414D2025642025730041E2
:1058420042202573004143202564004356202573DE
:1058520000435320256400646F6E6521004341209C
:1058620025730054532025640054442025730057A7
:105872004620256420257300575420257300424892
:105882003200424831005244200042563200425611
:105892003100525620006E616E00696E66006F76AE
:0458A20066002C0070
:00000001FF
