:100000000C948A020C94B2020C94B2020C94B202C8
:100010000C94B2020C94B2020C94B2020C94B20290
:100020000C94B2020C94B2020C94B2020C94B20280
:100030000C94B2020C94B2020C94B2020C94B20270
:100040000C94C00C0C94B2020C94B40B0C948E0B58
:100050000C94B2020C94B2020C94B2020C94B20250
:100060000C940A0D0C94B2024E414E494E4954591B
:10007000494E46CDCCCC3D0AD7233C17B7D1387773
:10008000CC2B329595E6241FB14F0A000020410089
:1000900000C84200401C4620BCBE4CCA1B0E5AAED3
:1000A000C59D7400407A10F35A00A0724E180900E2
:1000B00010A5D4E80000E87648170000E40B5402CD
:1000C0000000CA9A3B000000E1F505000080969808
:1000D00000000040420F000000A086010000001058
:1000E0002700000000E8030000000064000000009A
:1000F000000A00000000000100000000002C76D87B
:1001000088DC674F0823DFC1DFAE59E1B1B796E560
:10011000E3E453C63AE651997696E8E6C28426EBC4
:10012000898C9B62ED407C6FFCEFBC9C9F40F2BAD7
:10013000A56FA5F490055A2AF75C936B6CF9676D6F
:10014000C11BFCE0E40D47FEF520E6B500D0ED90C4
:100150002E0300943577050080841E080000204E91
:100160000A000000C80C333333330F986E1283112A
:1001700041EF8D2114893BE65516CFFEE6DB18D101
:10018000844B381BF77C1D901DA4BBE424203284D3
:10019000725E228100C9F124ECA1E53D2763646908
:1001A0006E6F70737578585B00566F666673657412
:1001B000203D2000566F6666583A202000566F6634
:1001C00066583A202000454550524F4D20566F66E4
:1001D000663A202000454550524F4D20566F6666C6
:1001E000583A2020003A20007800454550524F4DA3
:1001F00020566F004F652A567265662F563A2000CA
:100200006D562F562F4F653A2000736C6F70653A0C
:10021000200053656E583A200053783A202000455C
:100220004550524F4D206D562F562F4F6500526549
:100230006C6174697665206F66667365742073659A
:100240007420746F200052656C6174697665206F4C
:10025000666673657420636C656172656400524400
:100260002000424431004D616E75616C2052656121
:100270006400436F6E74696E756F757320526561AB
:1002800064005D3A20200052465B00525420002A50
:100290002A2A2A2A2A2A2A2A2A2A2A2A2A2A2A2ABE
:1002A0002A2A2A2A2A2A2A00536F667477617265DD
:1002B0002056657273696F6E3A2020004E6F74206D
:1002C00056616C69640056616C6964004545505222
:1002D0004F4D204C696E20004E6F742056616C6942
:1002E000640056616C696400454550524F4D20438F
:1002F000616C200041353A20200041343A20200032
:1003000041333A20200041323A20200041313A2046
:10031000200041303A2020004C696E656172697A94
:100320006174696F6E004144432053706565643A9F
:100330002020004144432073616D706C65733A2046
:10034000200041444320426974733A202000414414
:100350004320567265663A2020004872656C3A2048
:1003600020006D562F567265662F4F653A2020008B
:100370004F652A567265662F563A202000566F66E2
:10038000663A2020002A43414C4942524154494F89
:100390004E2A2A2A2A2A2A2A2A2A2A2A2A0074643F
:1003A0003A2020005047413A20004C696E3A200024
:1003B0004850463A2000200020004C50463A200089
:1003C000204020416464726573733A202000583ADB
:1003D000200041444320426974733A202000414484
:1003E000432053706565643A202000525620004235
:1003F0005631004D616E75616C2052656164004339
:100400006F6E74696E756F757320526561642056E6
:100410006F6C74616765004144432053616D706C7B
:1004200065733A2000536574204C696E656172698A
:100430007A6174696F6E0052656D6F7665204C69E4
:100440006E656172697A6174696F6E0048656C6C83
:100450006F0041353A20200041343A2020004133DA
:100460003A20200041323A20200041313A20200039
:1004700041303A202000444320456E61626C65643F
:1004800000524D5320456E61626C65640042617597
:10049000647261746520526573657474696E672057
:1004A000546F20496E64657820005444203D20003C
:1004B000424831004248320052442000000000000F
:1004C000250028002B000404040404040404020290
:1004D00002020202030303030303010204081020C3
:1004E00040800102040810200102040810200000CE
:1004F00000080002010000030407000000000000E3
:100500000000200053656E736F722049443A20202A
:100510000000382111241FBECFEFD8E0DEBFCDBFD1
:1005200024E0AAEEB2E001C01D92A83FB207E1F7B5
:1005300012E0A0E0B1E0E8EDF7E502C005900D9211
:10054000AA3EB107D9F712E0CAE8D2E004C0219769
:10055000FE010E94A328C938D107C9F70E94AC1038
:100560000C94EA2B0C9400002091DB039091A504DD
:10057000213208F04AC08091B8038111FCCF32E0EB
:100580003093B80331E03093B7033FEF3093B603B5
:100590001092B5032093B403ABEBB3E044E953E00E
:1005A000FA013E2F341B321718F43D913193F9CFE5
:1005B0001092930320919303990F922B909393039E
:1005C00090919203913061F4109292039091930371
:1005D0009093BB009091BC0093FDF8CF95EC01C0C7
:1005E00095EE9093BC009091B8039230E1F3909116
:1005F000B6039F3F79F08091B603803241F080913D
:10060000B603803331F084E005C081E003C082E0AE
:1006100001C083E01092BA031092DB031092B90379
:100620000895CF92DF92EF92FF926B017C01E091EF
:100630000C04F0910D0482E08083C11481EED80691
:10064000E104F104B1F060E079E08DE390E0A7010E
:1006500096010E948128DA01C9010197A109B10917
:10066000B695A795979587959C01211580E1380748
:10067000B8F0E0910C04F0910D04108260E874E889
:100680008EE190E0A70196010E948128DA01C9015C
:100690000197A109B109B695A795979587959C01F2
:1006A000E0910804F09109043083E0910A04F0918C
:1006B0000B04208310921404E0911004F0911104B3
:1006C00086E08083E0910E04F0910F0480818061C8
:1006D0008083E0910E04F0910F0480818860808314
:1006E000E0910E04F0910F04808180688083E09196
:1006F0000E04F0910F0480818F7D8083FF90EF9036
:10070000DF90CF900895ECEDF3E08EE290819C3283
:1007100009F48083319693E0E03FF907B9F7089533
:100720008CEF93E00E947B0AECEFF3E0A289B3899F
:100730008C918F7E8C93A289B3898C91877F8C93C7
:10074000A289B3898C918F778C93A289B3898C917C
:100750008F7D8C93828D818F0895009769F0FC01C5
:1007600001900020E9F73197AF01481B590BBC01FC
:100770008CEF93E00C94A10980E090E00895E09163
:10078000FC03F091FD030190F081E02D682F8CEFC8
:1007900093E009948F929F92AF92BF920F931F9311
:1007A000CF93DF93CDB7DEB7A1970FB6F894DEBF36
:1007B0000FBECDBF19A2423008F44AE08E010F5D92
:1007C0001F4F842E912CA12CB12CA50194010E94C5
:1007D0008128E62FB901CA0101501109EA3014F449
:1007E000E05D01C0E95CD801EC93232B242B252B81
:1007F00061F7C8010E94AD03A1960FB6F894DEBF61
:100800000FBECDBFDF91CF911F910F91BF90AF90E1
:100810009F908F9008954F925F926F927F928F92E8
:100820009F92AF92BF92CF92DF92EF92FF926B01B5
:100830007C01B42E9B01AC010E946728882319F02B
:100840008CED92E027C026013701E89477F82FEF6E
:100850003FEF4FE75FE7C301B2010E9467288111B4
:100860000DC02FEF3FEF4FE75FE7C301B2010E94DA
:10087000792518161CF480EE92E00CC02FEF3FEFA4
:100880004FE75FE4C701B6010E941C28181684F4E4
:1008900084EE92E0FF90EF90DF90CF90BF90AF900A
:1008A0009F908F907F906F905F904F900C94AD03CE
:1008B0002FEF3FEF4FE75FECC701B6010E947925AC
:1008C00087FDE6CF20E030E0A901C701B6010E9414
:1008D000792587FF09C08DE20E94BF034C01F7FA1A
:1008E000F094F7F8F09402C0812C912CA12C60E0D8
:1008F00070E080E09FE3AB1441F020E030E040E2A4
:1009000051E40E947427A394F6CF9B01AC01C70168
:10091000B6010E9408272B013C010E94ED276B01C4
:100920007C010E947E259B01AC01C301B2010E94A3
:1009300007272B013C014AE0C701B6010E94CA0308
:100940007C01E80CF91CBB2029F08EE20E94BF0359
:10095000E80EF91EDB2CDD2021F120E030E040E242
:1009600051E4C301B2010E94DF252B013C010E942A
:10097000ED274B01A12CB12C4AE0C501B4010E9426
:10098000CA03E80EF91EC501B4010E947E259B0131
:10099000AC01C301B2010E9407272B013C01DA948C
:1009A000DACFC701FF90EF90DF90CF90BF90AF906C
:1009B0009F908F907F906F905F904F900895CF930E
:1009C000DF930E940B04EC0181E692E00E94AD03EC
:1009D0008C0F9D1FDF91CF9108950F931F93CF939D
:1009E000DF938C01C0E0D0E0F801EC0FFD1F6491B3
:1009F000662371F0E091FC03F091FD030190F0811A
:100A0000E02D8CEF93E00995892B11F02196ECCF26
:100A1000CE01DF91CF911F910F910895CF93DF9376
:100A20000E94ED04EC0181E692E00E94AD038C0F80
:100A30009D1FDF91CF910895CF92DF92EF92FF92A9
:100A4000CF93DF936B017C014115510581F4E09157
:100A5000FC03F091FD030190F081E02D8CEF93E019
:100A6000DF91CF91FF90EF90DF90CF9009944A30C3
:100A70005105D1F497FF17C08DE20E94BF03EC012E
:100A800066277727CB016C197D098E099F094AE0FB
:100A90000E94CA038C0F9D1FDF91CF91FF90EF90B2
:100AA000DF90CF9008954AE0C701B601DF91CF9162
:100AB000FF90EF90DF90CF900C94CA03CF93DF9319
:100AC000AB01BC01990F880B990B0E941C05EC012E
:100AD00081E692E00E94AD038C0F9D1FDF91CF91C4
:100AE0000895CF93DF930E94AD03EC0181E692E07D
:100AF0000E94AD038C0F9D1FDF91CF910895CF937E
:100B0000DF9302978F30910528F4FC01E057FE4FE8
:100B1000D08101C0D2E0C1E0C093B90389E48093E1
:100B2000A5041092BA031092DB0361E089E994E016
:100B30000E94350B6D2F89E994E00E94350B63EE1E
:100B400089E994E00E94350B0E94B402C093B90376
:100B50001092BA031092DB0360E089E994E00E94EE
:100B6000350BDF91CF910C94B40290E0FC01E2517F
:100B7000FB4F2491FC01E652FB4F3491FC01EA53F8
:100B8000FB4FE491EE23B1F1222339F1233091F0B0
:100B900038F42130A9F0223001F584B58F7D12C0E0
:100BA000273091F02830A1F02430B9F480918000F2
:100BB0008F7D03C0809180008F77809380000DC06F
:100BC00084B58F7784BD09C08091B0008F7703C052
:100BD0008091B0008F7D8093B000F0E0EE0FFF1F9A
:100BE000E454FB4FA591B4918FB7F894EC913E2B50
:100BF0003C938FBF08959091B8039111FCCF81323F
:100C000008F080E291E09093B8039093B7032FEF40
:100C10002093B6031092B503280F2093B40390934A
:100C2000930390919303926990939303909192030D
:100C3000913061F410929203909193039093BB00D2
:100C40009091BC0093FDF8CF95EC01C095EE909388
:100C5000BC009091B8039130E1F39091B5039817DF
:100C600010F48091B503A4E9B3E022E733E0F90181
:100C70009E2F921B981718F49D919193F9CF109283
:100C80007103809370030895CF92DF92EF92FF92E9
:100C90000F931F93CF93DF93EC010E947F0581E0B8
:100CA0008093B90389E48093A5041092BA0310924B
:100CB000DB039091700380917103981729F089E903
:100CC00094E00E94E90AF5CF82E090E00E94FB05E3
:100CD0009091700380917103981759F089E994E01D
:100CE0000E94E90A182F89E994E00E94E90A082F76
:100CF000EFCF0E94B402B801110F880B990B0E942C
:100D000080256B017C012297CF30D10558F4CC0FA0
:100D1000DD1FCC0FDD1FCC5ADE4F688179818A81BF
:100D20009B8104C06FE672E183E099E320E030E04C
:100D300040E85EE30E94DF259B01AC01C701B601DC
:100D40000E94DF25DF91CF911F910F91FF90EF90CF
:100D5000DF90CF9008952F923F924F925F926F92C3
:100D60007F928F929F92AF92BF92CF92DF92EF923B
:100D7000FF920F931F93CF93DF93CDB7DEB76097AA
:100D80000FB6F894DEBF0FBECDBF1C017B01BC01C6
:100D9000990F880B990B0E9480259B01AC0160E0A4
:100DA00070E080E89FE30E9474276F8378878987CB
:100DB0009A87812C912C540100E010E097012D506E
:100DC00031093E832D83C901880F991F880F991F10
:100DD000DC01A45CBE4FBC87AB87FC01EC5DFE4F21
:100DE000FE87ED87021513050CF06EC02D813E8144
:100DF0002630310590F4AB85BC854D905D906D90AB
:100E00007C90AD85BE858D919D910D90BC91A02D5E
:100E100089839A83AB83BC830AC080E090E0A0E81A
:100E2000BFE389839A83AB83BC832C013D01C12C32
:100E3000D12C7601188A1F86EF85F889BF01FF0F34
:100E4000880B990B0E948025A30192010E947925AD
:100E500087FF1BC0609116017091170180911801E6
:100E6000909119010E94E627CB010E9444069B0144
:100E7000AC01C701B6010E9408276B017C01AF8558
:100E8000B8891196B88BAF87D7CF20E030E040E823
:100E90005FE3C301B2010E941C28181654F4298193
:100EA0003A814B815C81C701B6010E94DF256B014D
:100EB0007C01A7019601C501B4010E9408274B01DE
:100EC0005C010F5F1F4F8ECF2F81388549855A8572
:100ED000C501B4010E94DF2560960FB6F894DEBF0D
:100EE0000FBECDBFDF91CF911F910F91FF90EF907B
:100EF000DF90CF90BF90AF909F908F907F906F903A
:100F00005F904F903F902F9008954F925F926F9215
:100F10007F928F929F92AF92BF92CF92DF92EF9289
:100F2000FF92CF93DF9300D000D0CDB7DEB72DA5D1
:100F30003EA54FA558A929833A834B835C830E9421
:100F4000AB06E0911401F091150129813A814B81A2
:100F50005C81319709F081C00E9407276B017C01F9
:100F6000298D3A8D4B8D5C8D0E94DF252D893E8920
:100F70004F89588D0E9408272B013C01A70196013B
:100F8000C701B6010E94DF254B015C012D8D3E8D0E
:100F90004F8D58A10E94DF259B01AC01C301B20116
:100FA0000E9408272B013C01A7019601C501B4014D
:100FB0000E94DF254B015C0129A13AA14BA15CA154
:100FC0000E94DF259B01AC01C301B2010E940827EA
:100FD0002B013C01A7019601C501B4010E94DF2548
:100FE0004B015C012DA13EA14FA158A50E94DF2518
:100FF0009B01AC01C301B2010E9408272B013C01F7
:10100000A7019601C501B4010E94DF2529A53AA5D3
:101010004BA55CA50E94DF259B01AC01C301B20179
:101020000E9408276B017C0120E030E040EA5FE38A
:101030000E941C281816B4F020E030E040EA5FEB74
:10104000C701B6010E94792587FF12C0C12CD12C9F
:1010500090EAE92E9FEBF92E0BC00E9407276B0147
:101060007C0106C0C12CD12C80EAE82E8FE3F82E3B
:1010700029A93AA94BA95CA9C701B6010E94DF259D
:1010800020916C0330916D0340916E0350916F037A
:101090000E9407270F900F900F900F90DF91CF9134
:1010A000FF90EF90DF90CF90BF90AF909F908F9088
:1010B0007F906F905F904F9008952F923F924F9244
:1010C0005F926F927F928F929F92AF92BF92CF92D8
:1010D000DF92EF92FF920F931F93CF93DF93CDB7E1
:1010E000DEB766970FB6F894DEBF0FBECDBF0E9485
:1010F000E60B6F87788B898B9A8B00E010E0C12C10
:10110000D12C760160911601709117018091180120
:10111000909119010E94E6277C8B6B8BCB010E947A
:10112000440620E034E244E759E40E94DF259B01B5
:10113000AC01C701B6010E9408276B017C010F5F5B
:101140001F4F0D371105F1F620E030E04AEF52E471
:101150000E9474274B015C01412C512C3201C12C9F
:10116000D12C7601312C212C1D8A1E8A0E94E60B7F
:10117000DC01CB012F85388949895A89821B930B61
:10118000A40BB50B803F9944A240B10508F0ABC059
:1011900048E8441643E154066104710409F4A3C00D
:1011A000A30192012F5F3F4F4F4F5F4F2D833E832F
:1011B0004F835887C301B2010E94802569877A87CF
:1011C0008B879C878B899C890E9444062B013C015C
:1011D0002DEC3CEC4CEC5DE3C501B4010E94DF2535
:1011E0004B015C0126E636E646E65FE3C301B20149
:1011F0000E94DF2520E034E244E759E40E94DF2525
:10120000A50194010E9408274B015C016D817E813C
:101210008F8198850E94802569837A838B839C8344
:1012200029853A854B855C85632D722D8D899E8934
:101230000E94DF2529813A814B815C810E947427BD
:101240002B013C0129813A814B815C81C501B401AC
:101250000E9474279B01AC01C301B2010E940827C0
:101260008B018D879E87A7019601C701B6010E9459
:10127000DF2529853A854B855C850E94DF256B013A
:101280007C0198014D855E85C501B4010E94072748
:101290002B013C01232D322D4D895E89C501B401FE
:1012A0000E9407279B01AC01C301B2010E94DF2508
:1012B0009B01AC01C701B6010E94082729813A8130
:1012C0004B815C810E9474270E9427286B017C015E
:1012D0004D805E806F807884302E212E3D853D8B41
:1012E0004E854E8B43CF20E030E0A901C701B60107
:1012F0000E94792587FD09C020E034E244E759E4E3
:10130000C701B6010E94742703C060E070E0CB0102
:1013100066960FB6F894DEBF0FBECDBFDF91CF91BA
:101320001F910F91FF90EF90DF90CF90BF90AF9003
:101330009F908F907F906F905F904F903F902F90F5
:101340000895CF92DF92EF92FF920F931F93CF9366
:10135000DF936C017A018B01C0E0D0E0CE15DF0590
:1013600089F0D8016D918D01D601ED91FC9101902C
:10137000F081E02DC6010995892B11F47E0102C090
:101380002196ECCFC701DF91CF911F910F91FF9074
:10139000EF90DF90CF900895FC01538D448D252F61
:1013A00030E0842F90E0821B930B541710F0CF96FF
:1013B000089501970895FC01918D828D981761F031
:1013C000828DDF01A80FB11D5D968C91928D9F5F7C
:1013D0009F73928F90E008958FEF9FEF0895FC0127
:1013E000918D828D981731F0828DE80FF11D858DDA
:1013F00090E008958FEF9FEF0895FC01918D228D6D
:10140000892F90E0805C9F4F821B91098F739927F1
:1014100008958CEF93E00E94FD0921E0892B09F4E7
:1014200020E0822F0895FC01848DDF01A80FB11DFB
:10143000A35ABF4F2C91848D90E001968F7399270A
:10144000848FA689B7892C93A089B1898C918064F7
:101450008C93938D848D981306C00288F389E02DB8
:1014600080818F7D80830895EF92FF920F931F9369
:10147000CF93DF93EC0181E0888F9B8D8C8D981347
:1014800005C0E889F989808185FD24C0F62E0B8D81
:1014900010E00F5F1F4F0F731127E02E8C8DE812A5
:1014A0000CC00FB607FCFACFE889F989808185FF67
:1014B000F5CFCE010E94130AF1CF8B8DFE01E80F0C
:1014C000F11DE35AFF4FF0820B8FEA89FB8980817F
:1014D000806207C0EE89FF896083E889F98980818D
:1014E0008064808381E090E0DF91CF911F910F9124
:1014F000FF90EF900895CF93DF93EC01888D8823C0
:10150000C9F0EA89FB89808185FD05C0A889B98970
:101510008C9186FD0FC00FB607FCF5CF808185FF4B
:10152000F2CFA889B9898C9185FFEDCFCE010E94B9
:10153000130AE7CFDF91CF91089580E090E0892BE7
:1015400029F00E94090A81110C940000089585ED8C
:101550008093BC008091BC0084FDFCCF1092B80346
:1015600008954091C804262F30E0240F311D213208
:101570003105DCF42091B8032430C9F4FC0180E08B
:1015800090E0861758F43091C8042191DC01AA55E7
:10159000BB4FA30FB11D2C930196F3CF8091C804CC
:1015A000680F6093C80480E0089581E0089582E0A8
:1015B00008950895E091710380917003E81730F465
:1015C000F0E0EE58FC4F808190E008958FEF9FEFA0
:1015D00008959091710380917003981750F4E92F4A
:1015E000F0E0EE58FC4F208130E09F5F9093710354
:1015F00002C02FEF3FEFC90108958091700390E082
:1016000020917103821B91090895CF92DF92EF928E
:10161000FF920F931F93CF93DF937C01262F972F79
:101620008A018091B903882391F0C62FD72F6E01CC
:10163000C40ED51ECC15DD0571F06991D701ED9171
:10164000FC910190F081E02DC7010995F3CF642F43
:10165000822F0E94B10AC801DF91CF911F910F9193
:10166000FF90EF90DF90CF900895CF93DF931F927C
:10167000CDB7DEB769832091B9032223D1F0209141
:10168000DB03203240F021E030E0FC013383228391
:1016900080E090E015C08091BA03E82FF0E0E554B7
:1016A000FC4F998190838F5F8093BA038093DB0313
:1016B00005C061E0CE0101960E94B10A81E090E090
:1016C0000F90DF91CF910895089580E090E0089504
:1016D000CF93DF9300D000D0CDB7DEB769837A8394
:1016E0008B839C83FE013196CE0104962BE03191D1
:1016F0003D3021F430813A3009F42083E817F907AE
:10170000B1F769817A818B819C810F900F900F9046
:101710000F90DF91CF9108950E94A9281F920F92F8
:101720000FB60F9211242F933F934F935F936F93B4
:101730007F938F939F93AF93BF93EF93FF938CEF20
:1017400093E00E94130AFF91EF91BF91AF919F9197
:101750008F917F916F915F914F913F912F910F905A
:101760000FBE0F901F9018951F920F920FB60F92F9
:1017700011242F938F939F93EF93FF93E0910C0489
:10178000F0910D048081E0911204F091130482FD28
:1017900012C09081809115048F5F8F732091160481
:1017A000821751F0E0911504F0E0E450FC4F958F62
:1017B0008093150401C08081FF91EF919F918F91DB
:1017C0002F910F900FBE0F901F9018953FB7F89470
:1017D0008091F2049091F304A091F404B091F50487
:1017E00026B5A89B05C02F3F19F00196A11DB11D7C
:1017F0003FBFBA2FA92F982F8827820F911DA11DB7
:10180000B11DBC01CD0142E0660F771F881F991FF3
:101810004A95D1F708958F929F92AF92BF92CF923F
:10182000DF92EF92FF926B017C010E94E60B4B016D
:101830005C01C114D104E104F104F1F00E94E60B53
:10184000DC01CB0188199909AA09BB09883E93409C
:10185000A105B10570F321E0C21AD108E108F10831
:1018600088EE880E83E0981EA11CB11CC114D1041F
:10187000E104F10419F7DDCFFF90EF90DF90CF90F6
:10188000BF90AF909F908F9008954F925F926F920C
:101890007F928F929F92AF92BF92CF92DF92EF9200
:1018A000FF920E94E60B0E947E254B015C01409056
:1018B000EE025090EF026090F0027090F10220E092
:1018C00030E040E85FE4C301B2010E94DF259B01E4
:1018D000AC01C501B4010E9408276B017C01209175
:1018E000EA023091EB024091EC025091ED020E942D
:1018F000792587FF1EC020E030E040E85FE3C301A8
:10190000B2010E9408276093EE027093EF02809369
:10191000F0029093F10220E030E040E85FE40E94A2
:10192000DF259B01AC01C501B4010E9408276B01B2
:101930007C01C092EA02D092EB02E092EC02F092BB
:10194000ED022091F2023091F3024091F4025091A5
:10195000F502C701B6010E9407272DEB37E346E8E1
:1019600055E30E94DF25FF90EF90DF90CF90BF906E
:10197000AF909F908F907F906F905F904F90089561
:101980001F920F920FB60F9211242F933F938F93B4
:101990009F93AF93BF938091EE049091EF04A09139
:1019A000F004B091F1043091ED0423E0230F2D37C2
:1019B00020F40196A11DB11D05C026E8230F029653
:1019C000A11DB11D2093ED048093EE049093EF04CC
:1019D000A093F004B093F1048091F2049091F30489
:1019E000A091F404B091F5040196A11DB11D80935E
:1019F000F2049093F304A093F404B093F504BF9120
:101A0000AF919F918F913F912F910F900FBE0F90AB
:101A10001F9018951F920F920FB60F9211242F93BB
:101A20003F934F935F936F937F938F939F93AF9366
:101A3000BF93EF93FF938091B900887F803609F4BC
:101A40009CC068F5883209F45BC090F4803109F4D9
:101A500054C038F4882309F4F6C0883009F44DC026
:101A6000F6C0883109F44CC0803209F45DC0EFC083
:101A7000803409F468C048F4803309F455C08833D1
:101A800009F0E5C08093B603D8C0803509F44FC093
:101A9000883509F45DC0883409F0D9C0D6C08839CA
:101AA00009F4C7C0A8F4883709F467C038F4883649
:101AB00009F463C0803709F460C0C9C0883809F4EC
:101AC000B8C0803909F45FC0803809F0C0C05BC07D
:101AD000803B09F486C038F4803A09F466C0883A3D
:101AE00009F47FC0B4C0803C09F4A7C0883C09F465
:101AF000A4C0883B09F48AC0AAC08091930310C097
:101B00009091B5038091B403981770F5E091B503F7
:101B100081E08E0F8093B503F0E0EC56FC4F80819E
:101B20008093BB0085EC86C08093B6038EC0E091A5
:101B3000B50381E08E0F8093B5038091BB00F0E088
:101B4000EC56FC4F80839091B5038091B4036EC036
:101B5000E091B50381E08E0F8093B5038091BB00C7
:101B6000F0E0EC56FC4F80838091B70381116DC08B
:101B700081E08093920384EA61C083E08093B8039C
:101B80001092EC04CFCF8091EC04803208F051C069
:101B9000E091EC0481E08E0F8093EC048091BB0017
:101BA000F0E0E453FB4F8083BDCF85EC8093BC0015
:101BB0001092B8038091EC04803230F4E091EC0490
:101BC000F0E0E453FB4F10826091EC0470E0E09190
:101BD000CA04F091CB048CEC94E009951092EC04CB
:101BE00036C084E08093B8031092C9041092C804F0
:101BF000E091C604F091C70409958091C804811151
:101C000005C081E08093C8041092A604E091C90445
:101C100081E08E0F8093C904F0E0EA55FB4F80818C
:101C20008093BB009091C9048091C804981708F470
:101C300079CF85E88093BC000AC085EC8093BC0016
:101C40001092B80304C01092B6030E94A70AFF9135
:101C5000EF91BF91AF919F918F917F916F915F9124
:101C60004F913F912F910F900FBE0F901F9018959D
:101C7000AF92BF92CF92DF92EF92FF920F931F939A
:101C8000CF93DF931F92CDB7DEB75C017B018B0151
:101C90006C0184E0C80ED11CF80161918F01C5016F
:101CA00069830E94A0266981681719F0C5010E9406
:101CB000A826FFEFAF1ABF0AAC14BD0469F7C7012D
:101CC0000F90DF91CF911F910F91FF90EF90DF90D8
:101CD000CF90BF90AF900895AF92BF92CF92DF9216
:101CE000EF92FF920F931F93CF93DF931F92CDB785
:101CF000DEB75C017B018B016C0184E0C80ED11C56
:101D0000F80161918F01C50169830E94A026698154
:101D1000681719F0C5010E94A826FFEFAF1ABF0A85
:101D2000AC14BD0469F7C7010F90DF91CF911F91EB
:101D30000F91FF90EF90DF90CF90BF90AF900895FC
:101D4000CF92DF92EF92FF920F931F93CF93DF9387
:101D5000EB017B0124E0E20EF11C8B016C01C61A41
:101D6000D70AC601800F911F0E94A026F801819317
:101D70008F01EE15FF05A9F7CE01DF91CF911F91DD
:101D80000F91FF90EF90DF90CF9008954F925F9268
:101D90006F927F92AF92BF92CF92DF92EF92FF92BB
:101DA0000F931F93CF93DF93CDB7DEB728970FB66E
:101DB000F894DEBF0FBECDBF8C014D835E836F8371
:101DC00078874D805E806F8078840E945D08A301D3
:101DD00092010E94DF2520E030E0A9010E941C282A
:101DE000181664F40E945D08A30192010E94DF2589
:101DF0006B017C01AA24A394B12C2BC00E945D0826
:101E0000A30192010E94DF256B017C01F7FAF09497
:101E1000F7F8F094EFCF0E945D08A30192010E94B1
:101E2000DF2520E030E0A9010E941C281816ACF440
:101E30000E945D08A30192010E94DF259B01AC0175
:101E4000C701B6010E9408276B017C018FEFA81A19
:101E5000B80AA016B106FCF208C00E945D08A301F2
:101E600092010E94DF259058E9CF5C2D4D2D3E2D2B
:101E70002F2DB8011016110614F061E070E06130EA
:101E8000710581F0072E000C880B990B0E948025AC
:101E90009B01AC01C701B6010E947427562F472F42
:101EA000382F292F652F742F832F922F28960FB646
:101EB000F894DEBF0FBECDBFDF91CF911F910F9180
:101EC000FF90EF90DF90CF90BF90AF907F906F909A
:101ED0005F904F900895E8EFF2E080E2819393E005
:101EE000EA32F907D9F7ECEDF3E080E2819393E071
:101EF000EC3FF907D9F70895CF93DF9384E095E09D
:101F00000E94ED04C8E2D0E0CE010E94A0268F77A7
:101F1000219690EE980F9F3510F40E94BF03C834AD
:101F2000D10591F782E095E00E940E05DF91CF91F7
:101F30000C946B0F2F923F924F925F926F927F9211
:101F40008F929F92AF92BF92CF92DF92EF92FF92C9
:101F50000F931F93CF93DF93CDB7DEB7AD970FB637
:101F6000F894DEBF0FBECDBF4B015C011982CE01DC
:101F700001967C014130510509F041C02130310505
:101F800059F40E94450C0E94680B69837A838B8305
:101F90009C8304E010E002C000E010E0C501B40141
:101FA0000E94680BF701E00FF11F6083FE01E00F54
:101FB000F11F7283FE01E00FF11F8383FE01E00F2A
:101FC000F11F9483680195E0C90ED11CFE01E00F5A
:101FD000F11F8DE08583F701EC0DFD1D8AE0808304
:101FE0008701F80161918F018CEF93E00E94340A20
:101FF000C8018E199F09C816D9069CF790C02130D8
:10200000310561F40E94450C870123E040E00E9405
:10201000712168EE72E0C7010E94B6288091F60235
:102020009091F702F70101900020E9F78F0101502C
:102030001109892B09F06AC020E030E0A901C5012F
:10204000B4010E941C2824013501181624F077FAE7
:10205000709477F8709420E030E040E85FE3C301CB
:10206000B2010E94792587FD2DC020E030E040E2DA
:1020700051E4C301B2010E94792587FD27C020E009
:1020800030E048EC52E4C301B2010E94792587FD9B
:1020900021C020E030E04AE754E4C301B2010E94CD
:1020A000792587FD1BC022242394312C20E030E4C5
:1020B0004CE156E4C301B2010E94792587FF212C2F
:1020C00061010FC035E0C32ED12C0BC024E0C22E1D
:1020D000D12C07C093E0C92ED12C03C082E0C82EBA
:1020E000D12C80911001909111010E976CF420E099
:1020F00030E048EC52E4C301B2010E94792587FF29
:1021000003C0F2E0CF1AD1082C2D01C025E040E039
:10211000C501B4010E947121C7010E9471058CEFB5
:1021200093E00E947B0AAD960FB6F894DEBF0FBE17
:10213000CDBFDF91CF911F910F91FF90EF90DF9076
:10214000CF90BF90AF909F908F907F906F905F9057
:102150004F903F902F900895CF93DF93CDB7DEB788
:102160006E970FB6F894DEBF0FBECDBF789484B5DE
:10217000826084BD84B5816084BD85B5826085BD83
:1021800085B5816085BD80916E00816080936E0011
:102190001092810080918100826080938100809103
:1021A00081008160809381008091800081608093B4
:1021B00080008091B10084608093B1008091B00074
:1021C00081608093B00080917A00846080937A006F
:1021D00080917A00826080937A0080917A00816099
:1021E00080937A0080917A00806880937A001092C0
:1021F000C10060E072EC81E090E00E94110364E1B4
:1022000070E080E090E00E940B0C83EC91E00E9473
:10221000710510923A0310923B0310923C03109206
:102220003D0380E090E0A8ECB2E480933E039093FD
:102230003F03A0934003B09341038DED91E00E94D2
:10224000AD0343E060E070E080E890E40E940B049E
:1022500084EE91E00E9471059E012F5F3F4F59016E
:10226000B90180E090E00E94A00E20E030E040E85C
:102270005FE369817A818B819C810E94792581113C
:102280000FC06AE373E084E090E00E94A00E6EE36A
:1022900073E088E090E00E94A00E87EE91E002C01B
:1022A00083EF91E00E947105109242031092430364
:1022B000109244031092450380E090E0A0E8BFE351
:1022C0008093460390934703A0934803B093490338
:1022D00010924A0310924B0310924C0310924D033C
:1022E00010924E0310924F0310925003109251031C
:1022F00010925203109253031092540310925503FC
:1023000010925603109257031092580310925903DB
:10231000B5018CE090E00E94A00E20E030E040E8A3
:102320005FE369817A818B819C810E94792581118B
:1023300027C062E473E080E190E00E94A00E66E4B2
:1023400073E084E190E00E94A00E6AE473E088E10B
:1023500090E00E94A00E6EE473E08CE190E00E9499
:10236000A00E62E573E080E290E00E94A00E66E5B8
:1023700073E084E290E00E94A00E80E092E002C050
:102380008CE092E00E94710510927103109270032C
:102390001092BA031092DB031092B80381E080938D
:1023A000B7031092920382E10E94B50583E10E9477
:1023B000B5058091B9008E7F8093B9008091B900F6
:1023C0008D7F8093B90088E48093B80085E4809382
:1023D000BC006AE070E080E090E00E940B0C8CE0B2
:1023E0008093B8006AE070E080E090E00E940B0CFF
:1023F0006091160170911701809118019091190157
:102400000E94E627CB010E947F0568EFE62E62E07E
:10241000F62E7CEDC72E73E0D72E1E0139E1230E78
:10242000311C4E0185E1880E911C8CEF93E00E94D7
:10243000FD0990936B0380936A031816190614F034
:102440000C940D1F64E670E080E090E00E940B0C9D
:102450008CEF93E00E94FD093C0190936B03809305
:102460006A0308EF12E0C801885F9240861597055D
:1024700054F48CEF93E00E94DB090E94AE28D8014F
:102480008D938D01F0CF8091F8028F3409F040C018
:102490008091F9028134E1F5609110017091110190
:1024A00084E690E00E94AB0620E030E543EC57E480
:1024B0000E94DF250E94E627072E000C880B990B4F
:1024C0000E9480252CEA35EC47E257E30E94DF2585
:1024D00060933A0370933B0380933C0390933D03D6
:1024E00089EA91E00E94ED0460913A0370913B0308
:1024F00080913C0390913D0346E050E00E94DF0450
:1025000060ED77E080E090E00E940B0C0E946B0F82
:102510008091F8028F3409F077C08091F9028D34F0
:1025200009F072C0BF92AF9209E112E01F930F93BE
:10253000FF92EF920E94C128898188550F900F90D9
:102540000F900F900F900F90833080F5DF92CF9215
:10255000BF92AF928FE192E09F938F93FF92EF92A1
:102560000E94C1280E9483038CED93E00E94912178
:1025700060933A0370933B0380933C0390933D0335
:102580008DEB91E00E94ED0460913A0370913B0362
:1025900080913C0390913D0346E050E00E94DF04AF
:1025A0000FB6F894DEBF0FBECDBF2CC0DF92CF9226
:1025B0001F930F93FF92EF920E94C1280E94830302
:1025C0008CED93E00E94912160933A0370933B035A
:1025D00080933C0390933D0384EB91E00E94ED04D3
:1025E00060913A0370913B0380913C0390913D03CD
:1025F00046E050E00E94DF040F900F900F900F9084
:102600000F900F900E946B0F8091F8028F3409F0A9
:1026100071C08091F902873509F06CC0BF92AF920A
:1026200008E212E01F930F93FF92EF920E94C128DD
:10263000898188550F900F900F900F900F900F90F9
:10264000833068F5DF92CF92BF92AF928EE292E034
:102650009F938F93FF92EF920E94C1280E94830361
:102660008CED93E00E9491216D8B7E8B8F8B988FE8
:10267000B40184E090E00E946C0E85ED91E00E9430
:10268000ED048CED93E00E94912146E050E00E9421
:10269000DF040FB6F894DEBF0FBECDBF29C0DF92B6
:1026A000CF921F930F93FF92EF920E94C1280E9436
:1026B00083038CED93E00E9491216D8B7E8B8F8B39
:1026C000988FB40184E090E00E946C0E86EC91E05B
:1026D0000E94ED048CED93E00E94912146E050E0D1
:1026E0000E94DF040F900F900F900F900F900F90AB
:1026F0000E946B0F8091F8028F3479F58091F90276
:10270000823559F59F928F9287E392E09F938F9342
:10271000FF92EF920E94C1288AEE91E00E94ED04A0
:1027200088EE91E00E94ED04B50184E090E00E9403
:10273000A00E85EE91E00E94ED0469817A818B8183
:102740009C8146E050E00E94DF040E946B0F0F90D6
:102750000F900F900F900F900F908091F80283359B
:1027600009F0AAC08091F9028D3409F0A5C0BF928A
:10277000AF920DE312E01F930F93FF92EF920E942E
:10278000C128898188550F900F900F900F900F905E
:102790000F90833008F04EC0DF92CF92BF92AF927D
:1027A00083E492E09F938F93FF92EF920E94C1285F
:1027B0000E9483038CED93E00E9491219B01AC0168
:1027C00060E070E08AE794E40E94742760933E031F
:1027D00070933F03809340039093410382E192E022
:1027E0000E94ED0420913E0330913F03409140034D
:1027F0005091410360E070E08AE794E40E947427FE
:1028000046E050E00E94DF048AE092E00E94ED047E
:1028100060913E0370913F0380914003909141038A
:1028200046E050E00E94DF040FB6F894DEBF0FBE12
:10283000CDBF40C0DF92CF921F930F93FF92EF92D4
:102840000E94C1280E9483038CED93E00E94912195
:102850002B013C0180E092E00E94ED0446E050E054
:10286000C301B2010E94DF04A301920160E070E0A5
:102870008AE794E40E94742760933E0370933F03B9
:10288000809340039093410384EF91E00E94ED0414
:1028900060913E0370913F0380914003909141030A
:1028A00046E050E00E94DF040F900F900F900F90D1
:1028B0000F900F900E946B0F8091F802833531F5D5
:1028C0008091F902833511F508E210E0D801AD528C
:1028D000BD4FF4018D918193E215F305D9F75D8920
:1028E0004E893F89288D852F942FA32FB22F89835E
:1028F0009A83AB83BC83B501C8010E94380E0C5F7C
:102900001F4F0834110511F70E946B0F8091F802D8
:10291000833509F058C08091F902873509F053C01A
:10292000BF92AF920CE412E01F930F93FF92EF92CD
:102930000E94C128898188550F900F900F900F90A9
:102940000F900F908330C0F4DF92CF92BF92AF927E
:1029500082E592E09F938F93FF92EF920E94C128AD
:102960000E9483038CED93E00E9491210FB6F894AE
:10297000DEBF0FBECDBF14C0DF92CF921F930F9367
:10298000FF92EF920E94C1280E9483038CED93E096
:102990000E9491210F900F900F900F900F900F9029
:1029A0009B01AC0160E070E08AE794E40E94742728
:1029B0006D8B7E8B8F8B988FB40188E090E00E94A6
:1029C0006C0E0E946B0F8091F802833509F580919F
:1029D000F9028235E9F48FE192E00E940E05B5011B
:1029E00088E090E00E94A00E89E192E00E94ED0450
:1029F00029813A814B815C8160E070E08AE794E450
:102A00000E94742742E050E00E94DF040E946B0F96
:102A10008091F802823571F58091F902833551F584
:102A200020915E0330915F034091600350916103F8
:102A300060916C0370916D0380916E0390916F03B0
:102A40000E94082760936C0370936D0380936E035C
:102A500090936F038EE292E00E94ED0460916C030C
:102A600070916D0380916E0390916F0346E050E08A
:102A70000E94DF048091F802823581F48091F9028E
:102A80008F3461F410926C0310926D0310926E03F8
:102A900010926F0386E492E00E940E058091F80286
:102AA000823509F084C08091F9028D3409F07FC02D
:102AB0008091680390916903892B21F486E692E066
:102AC0000E940E0581E090E0909369038093680373
:102AD00010921301109212012091F6023091F70228
:102AE00080910E0190910F012130310599F1609193
:102AF000100170911101EDB7FEB738970FB6F89439
:102B0000FEBF0FBEEDBFADB7BEB7119628E0EAE33A
:102B1000F3E001900D922A95E1F72DB73EB72851C9
:102B200031090FB6F8943EBF0FBE2DBFADB7BEB78B
:102B3000119628E1E2E4F3E001900D922A95E1F785
:102B40000E9485072B013C010FB6F894DEBF0FBE33
:102B5000CDBF14C000913A0310913B0320913C0378
:102B600030913D0340913E0350913F0360914003FB
:102B7000709141030E94C60E2B013C0180913203EB
:102B800090913303019719F482E692E002C08EE53A
:102B900092E00E94ED04409132035091330320E013
:102BA00030E0C301B2010E949A0F0E946B0F809126
:102BB000F8028235C1F58091F9028334A1F5809144
:102BC000680390916903019721F482E792E00E94E3
:102BD0000E05109263031092620310926903109223
:102BE000680310921301109212010E946B0F0E9451
:102BF000E60B0E947E256093F2027093F3028093AD
:102C0000F4029093F5021092EE021092EF021092ED
:102C1000F0021092F1021092EA021092EB0210926E
:102C2000EC021092ED028091F802823509F044C066
:102C30008091F902853429F4109213011092120147
:102C40003BC08634C9F519821A821B821C829F926E
:102C50008F928BE592E09F938F93FF92EF920E9469
:102C6000C1288D899E89B501880F991F880F991FEA
:102C70000E94A00E87E892E00E94ED046D897E8993
:102C8000072E000C880B990B4AE050E00E941C05AF
:102C900082E892E00E94ED0469817A818B819C81B7
:102CA00046E050E00E94DF040E946B0F0F900F90EF
:102CB0000F900F900F900F908091F8028235B1F431
:102CC0008091F902843591F48BE892E00E94ED0442
:102CD00060910601709107018091080190910901AE
:102CE00046E050E00E94DF040E946B0F8091F802E2
:102CF000803509F031C18091F902833409F02CC18B
:102D000085E893E00E940E058DE793E00E94ED04B4
:102D100060913A0370913B0380913C0390913D0395
:102D200046E050E00E94DF0480E793E00E94ED045B
:102D300060913E0370913F03809140039091410365
:102D400046E050E00E94DF0482E693E00E94ED043A
:102D500020913E0330913F03409140035091410345
:102D600060E070E08AE794E40E94742746E050E057
:102D70000E94DF048AE593E00E94ED0460916C03F9
:102D800070916D0380916E0390916F0346E050E067
:102D90000E94DF048EE493E00E94ED0446E050E0E0
:102DA00060E070E080E890E40E94DF0482E493E059
:102DB0000E94ED046AE070E0809110019091110191
:102DC0000E945E0583E393E00E94ED046AE070E0F8
:102DD00080910E0190910F010E945E0586E293E0C2
:102DE0000E94ED046AE070E0809100019091010181
:102DF0000E945E0588E193E00E940E0582E193E067
:102E00000E94ED046091420370914303809144035A
:102E10009091450346E050E00E94DF048CE093E08F
:102E20000E94ED046091460370914703809148032E
:102E30009091490346E050E00E94DF0486E093E071
:102E40000E94ED0460914A0370914B0380914C0302
:102E500090914D0346E050E00E94DF0480E093E053
:102E60000E94ED0460914E0370914F0380915003D6
:102E70009091510346E050E00E94DF048AEF92E017
:102E80000E94ED04609152037091530380915403AA
:102E90009091550346E050E00E94DF0484EF92E0F9
:102EA0000E94ED046091560370915703809158037E
:102EB0009091590346E050E00E94DF0488EE92E0D2
:102EC0000E94ED04B50180E090E00E94A00E20E099
:102ED00030E040E85FE369817A818B819C810E94C8
:102EE0007925811103C082EE92E002C088ED92E064
:102EF0000E940E058CEC92E00E94ED04B5018CE07E
:102F000090E00E94A00E20E030E040E85FE369819D
:102F10007A818B819C810E947925811103C086EC86
:102F200092E002C08CEB92E00E940E050E947C0FA2
:102F300088EA92E00E94ED0483EC91E00E94710522
:102F40008FE892E00E940E050E946B0F68EE73E01E
:102F500080E090E00E940B0C8091F802803509F02F
:102F60009CC08091F902833509F097C083E090E01E
:102F70000E94FB059091700380917103981711F1E5
:102F800089E994E00E94E90A89E994E00E94E90A4B
:102F90008EEC93E00E94ED0489E994E00E94E90A36
:102FA000BC01990F880B990B42E00E94CA0380EC88
:102FB00093E00E94ED0462E070E089E490E00E94FA
:102FC0005E05D8CF8AEB93E00E94ED0460910C017E
:102FD00070910D01072E000C880B990B4AE050E010
:102FE0000E941C0588EB93E00E94ED0460910601AD
:102FF00070910701809108019091090142E00E94BF
:103000000B0486EB93E00E94ED0460910201709145
:103010000301809104019091050142E050E00E947B
:10302000DF0480EB93E00E94ED046AE070E08091A1
:103030003403909135030E945E058AEA93E00E9472
:10304000ED046AE070E080911401909115010E94F6
:103050005E0584EA93E00E94ED0460911601709190
:103060001701809118019091190142E050E00E94EF
:10307000DF048EE993E00E94ED0460916403709197
:10308000650380916603909167034AE050E00E94D7
:103090001C0581E692E00E94AD038091F802803524
:1030A00009F047C08091F902853439F481E090E05D
:1030B00090931301809312013CC08734D1F5BF92E5
:1030C000AF9284E692E09F938F93FF92EF920E94DB
:1030D000C1280F900F900F900F900F900F90898143
:1030E0009A818430910511F40C942C2114F00C94E5
:1030F00024218130910511F00C941C2180E090E096
:10310000A0E8BFE38093160190931701A0931801E4
:10311000B09319010E946B0F609116017091170115
:1031200080911801909119010E94E627CB010E941D
:103130007F058091F8028434C1F58091F9028234D0
:10314000A1F580E191E09F938F93DF92CF928AE681
:1031500092E09F938F93FF92EF920E94C12882ED9D
:1031600093E00E94ED046AE070E08091100190917C
:1031700011010E945E0580911001909111010FB61E
:10318000F894DEBF0FBECDBF8C30910534F0833193
:1031900091052CF082E190E002C08CE090E09093E9
:1031A0001101809310010E946B0F8091F80284340A
:1031B00021F58091F902833501F580E091E09F933C
:1031C0008F9380E792E09F938F93FF92EF920E94FC
:1031D000C1288EED93E00E94ED046AE070E08091DA
:1031E0000001909101010E945E050E946B0F0F90FB
:1031F0000F900F900F900F900F908091F8028635EE
:1032000009F062C08091F9028D3409F05DC08091AF
:10321000680390916903892B21F483EF93E00E9466
:103220000E0581E090E0909369038093680310920B
:103230001301109212012091F6023091F702809151
:103240000E0190910F012130310539F0609110018C
:10325000709111010E94AB061CC000913A031091BD
:103260003B0320913C0330913D0340913E0350913C
:103270003F0360914003709141030E94C60E20916C
:103280003E0330913F0340914003509141030E941F
:1032900074272B013C0180913203909133030197F5
:1032A00019F48FEE93E002C08BEE93E00E94ED04E0
:1032B000409132035091330320E030E0C301B2016A
:1032C0000E949A0F0E946B0F8091F8028635D1F50B
:1032D0008091F9028334B1F580916803909169037C
:1032E000019721F48FEF93E00E940E05109269037D
:1032F00010926803109213011092120181E090E085
:1033000090936303809362030E946B0F0E94E60B0D
:103310000E947E256093F2027093F3028093F40280
:103320009093F5021092EE021092EF021092F002CA
:103330001092F1021092EA021092EB021092EC024B
:103340001092ED028091F8028E3489F58091F90295
:10335000833569F58EE091E09F938F9386E792E045
:103360009F938F93FF92EF920E94C1280F900F902E
:103370000F900F900F900F9080910E0190910F0180
:103380001816190634F081E090E090930F018093B5
:103390000E0187E194E00E94ED046AE070E0809104
:1033A0000E0190910F010E945E050E946B0F8091AB
:1033B000F802873431F48091F902833511F40E94C8
:1033C0007C0F8091F8028C3471F48091F90283357E
:1033D00051F485E294E00E940E0581E090E0909324
:1033E0001501809314018091F8028C3461F480916E
:1033F000F9028F3441F487E394E00E940E051092A5
:103400001501109214018091F8028C34B1F580916D
:10341000F902863591F5DF92CF928CE792E09F9387
:103420008F93FF92EF920E94C1288CED93E00E944F
:1034300091210F900F900F900F900F900F9020E020
:1034400030E040E85FE30E947925811109C080E007
:1034500090E0A0E8BFE389839A83AB83BC8304C078
:1034600019821A821B821C82BE016F5F7F4F8CE023
:1034700090E00E94380E0E946B0F8091F8028C340D
:1034800009F06AC08091F902803509F065C0DF92C9
:10349000CF9282E892E09F938F93FF92EF920E94E7
:1034A000C1288CED93E00E9491210F900F900F9016
:1034B0000F900F900F9020E030E040E85FE30E9413
:1034C0007925882329F010920D0110920C0142C039
:1034D00081E090E090930D0180930C0160911001C8
:1034E0007091110120910E0130910F01EDB7FEB7DF
:1034F00038970FB6F894FEBF0FBEEDBFADB7BEB79D
:10350000119698E0EAE3F3E001900D929A95E1F7C5
:103510008DB79EB748970FB6F8949EBF0FBE8DBF6C
:10352000ADB7BEB7119698E1E2E4F3E001900D92D9
:103530009A95E1F7C9010E94850760932A03709369
:103540002B0380932C0390932D030FB6F894DEBFCA
:103550000FBECDBF0E946B0F8091F802883441F4FA
:103560008091F902893421F48CE494E00E940E05E4
:103570008091F802813409F0AFC08091F902823560
:1035800009F0AAC062E473E080E190E00E94A00E1E
:103590006AE070E080E090E00E940B0C66E473E06B
:1035A00084E190E00E94A00E6AE070E080E090E08C
:1035B0000E940B0C6AE473E088E190E00E94A00E88
:1035C0006AE070E080E090E00E940B0C6EE473E033
:1035D0008CE190E00E94A00E6AE070E080E090E054
:1035E0000E940B0C62E573E080E290E00E94A00E66
:1035F0006AE070E080E090E00E940B0C66E573E00A
:1036000084E290E00E94A00E6AE070E080E090E02A
:103610000E940B0C80E794E00E94ED04609142034D
:1036200070914303809144039091450346E050E03C
:103630000E94DF048AE694E00E94ED046091460354
:1036400070914703809148039091490346E050E010
:103650000E94DF0484E694E00E94ED0460914A0336
:1036600070914B0380914C0390914D0346E050E0E4
:103670000E94DF048EE594E00E94ED0460914E0309
:1036800070914F03809150039091510346E050E0B8
:103690000E94DF0488E594E00E94ED0460915203EB
:1036A00070915303809154039091550346E050E08C
:1036B0000E94DF0482E594E00E94ED0460915603CD
:1036C00070915703809158039091590346E050E060
:1036D0000E94DF040E946B0F8091F802813409F090
:1036E00068C08091F9028D3409F063C0DF92CF92F7
:1036F000E1E0F0E0EC0FFD1FFF93EF9388E892E02C
:103700009F938F93FF92EF920E94C1280E948303A0
:103710008CED93E00E9491210FB6F894DEBF0FBEAE
:10372000CDBF29813A812230310549F17CF4211540
:103730003105E1F021303105E1F5609346037093E6
:103740004703809348039093490333C024303105E5
:1037500041F1F4F02530310561F560935603709323
:103760005703809358039093590323C060934203F7
:103770007093430380934403909345031AC060936E
:103780004A0370934B0380934C0390934D0311C0F5
:1037900060934E0370934F038093500390935103B3
:1037A00008C0609352037093530380935403909323
:1037B00055038091F802813469F58091F9028234D1
:1037C00049F5DF92CF9281E992E09F938F93FF9228
:1037D000EF920E94C1288CED93E00E9491210F90FE
:1037E0000F900F900F900F900F9020E030E040E886
:1037F0005FE30E947925882329F010923303109209
:10380000320306C081E090E090933303809332034B
:103810000E946B0F8091F8028134A1F58091F9022A
:10382000833481F581E090E08C0F9D1F9F938F93EF
:1038300087E992E09F938F93FF92EF920E94C128B5
:103840000F900F900F900F900F900F9089819A8199
:103850008130910539F49093F7028093F60281E864
:1038600094E006C01092F7021092F60286E794E008
:103870000E940E0560ED77E080E090E00E940B0C66
:103880000E946B0F8091F8028334B1F58091F902A8
:10389000863591F5DF92CF928DE992E09F938F93D9
:1038A000FF92EF920E94C1288CED93E00E9491213B
:1038B0000F900F900F900F900F900F9020E030E03E
:1038C00040E85FE30E947925811109C080E090E023
:1038D000A0E8BFE389839A83AB83BC8304C01982C9
:1038E0001A821B821C82BE016F5F7F4F80E090E0D6
:1038F0000E94380E0E946B0F8091F802833409F009
:1039000064C08091F902833509F05FC0A1E0B0E0A6
:10391000AC0FBD1FBF93AF9383EA92E09F938F9349
:10392000FF92EF920E94C12869817A81072E000CD4
:10393000880B990B0E9480250F900F900F900F908D
:103940000F900F9020E030E0A9010E94792587FFB9
:1039500002C01A8219828DE894E00E94ED046AE0A8
:1039600070E089819A810E945E050E94900364E65E
:1039700070E080E090E00E940B0C69807A800E94E9
:10398000900364E670E080E090E00E940B0CB5E0EC
:103990006B16710440F4F301EE0FFF1FE65EFE4F5D
:1039A0006081718102C060E072EC072E000C880B10
:1039B000990B0E9411038CEF93E00E947B0A89EA25
:1039C00092E00E9471050E946B0F8091F80283348F
:1039D00009F06AC08091F902813409F065C0DF9274
:1039E000CF928FEA92E09F938F93FF92EF920E9483
:1039F000C1288CED93E00E9491210F900F900F90C1
:103A00000F900F900F9020E030E040E85FE30E94BD
:103A10007925882329F0109235031092340342C08F
:103A200081E090E09093350380933403609110011E
:103A30007091110120910E0130910F01EDB7FEB789
:103A400038970FB6F894FEBF0FBEEDBFADB7BEB747
:103A5000119698E0EAE3F3E001900D929A95E1F770
:103A60008DB79EB748970FB6F8949EBF0FBE8DBF17
:103A7000ADB7BEB7119698E1E2E4F3E001900D9284
:103A80009A95E1F7C9010E94850760935A037093E4
:103A90005B0380935C0390935D030FB6F894DEBFE5
:103AA0000FBECDBF0E946B0F8091F802853451F498
:103AB0008091F902833531F46EE373E088E090E0A1
:103AC0000E94380E8091F802853451F48091F902F9
:103AD0008F3431F46AE373E084E090E00E94380EA2
:103AE0008091F802853409F04FC08091F902813449
:103AF00009F04AC062E473E080E190E00E94380E71
:103B00006AE070E080E090E00E940B0C66E473E0F5
:103B100084E190E00E94380E6AE070E080E090E07E
:103B20000E940B0C6AE473E088E190E00E94380E7A
:103B30006AE070E080E090E00E940B0C6EE473E0BD
:103B40008CE190E00E94380E6AE070E080E090E046
:103B50000E940B0C62E573E080E290E00E94380E58
:103B60006AE070E080E090E00E940B0C66E573E094
:103B700084E290E00E94380E6AE070E080E090E01D
:103B80000E940B0C0E946B0F8091F802843509F0A3
:103B900047C08091F902833509F042C0E1E0F0E0CE
:103BA000EC0FFD1FFF93EF9385EB92E09F938F93B4
:103BB000FF92EF920E94C1280F900F900F900F90EC
:103BC0000F900F9089819A81009721F181309105A2
:103BD00009F590930B0180930A010E94E60B0E9465
:103BE0007E256093F2027093F3028093F402909327
:103BF000F5021092EE021092EF021092F002109273
:103C0000F1021092EA021092EB021092EC02109272
:103C1000ED0204C010920B0110920A010E946B0F7A
:103C20008091F802843509F04BC08091F902843408
:103C300009F046C0DF92CF928BEB92E09F938F9377
:103C4000FF92EF920E94C1288CED93E00E94912197
:103C50000E94E6270F900F900F900F900F900F90FB
:103C600062307105810591054CF060936403709397
:103C70006503809366039093670308C01092640302
:103C80001092650310926603109267038AEA94E02B
:103C90000E94ED0460916403709165038091660356
:103CA000909167034AE050E00E941C0581E692E093
:103CB0000E94AD0360ED77E080E090E00E940B0C85
:103CC0008091F802813539F48091F902813519F437
:103CD000E0E0F0E009958091F802873509F04AC0EC
:103CE0008091F902863409F045C01D8A1E8A1F8A18
:103CF000188E19821A821B821C82DF92CF923F9209
:103D00002F92A1ECB2E0BF93AF93FF92EF920E948B
:103D1000C1280E9483038CED93E00E9491216D8B5A
:103D20007E8B8F8B988F898D9A8DBE016F5F7F4FB1
:103D3000880F991F880F991F0E94A00E0FB6F89444
:103D4000DEBF0FBECDBF2D893E894F89588D698159
:103D50007A818B819C810E947925882349F0898D05
:103D60009A8DB401880F991F880F991F0E94380EF1
:103D70000E946B0F8091F802873509F04EC0809148
:103D8000F902843509F049C0DF92CF92AAECB2E083
:103D9000BF93AF93FF92EF920E94C1280E948303CA
:103DA0008CED93E00E9491212B013C010F900F902C
:103DB0000F900F900F900F9020E030E0A9010E942B
:103DC000792587FD0AC020E030E040E85FE3C301C9
:103DD000B2010E941C28181634F486E6482E542C92
:103DE000642C8FE3782E4092060150920701609276
:103DF000080170920901A301920160E070E080E87F
:103E00009FE30E9407276093020170930301809350
:103E10000401909305010E946B0F809168039091BB
:103E20006903892B09F004C280911201909113015A
:103E3000892B09F0FDC18091640390916503A091E5
:103E40006603B091670383309105A105B10544F085
:103E5000BC01CD0162507109810991090E940B0CCE
:103E600020916203309163036090F6027090F70234
:103E700080910E0190910F012130310509F406C1A6
:103E800040915E0350915F03609160037091610304
:103E900040935A0350935B0360935C0370935D03FC
:103EA000F1E06F167104B9F1609110017091110188
:103EB0002DB73EB7285031090FB6F8943EBF0FBE5C
:103EC0002DBFADB7BEB7119628E0EAE3F3E001904D
:103ED0000D922A95E1F7ADB7BEB758970FB6F89493
:103EE000BEBF0FBEADBF119628E1E2E4F3E0019042
:103EF0000D922A95E1F70E9485076093360370932F
:103F0000370380933803909339030FB6F894DEBFDC
:103F10000FBECDBF1AC000913A0310913B03209110
:103F20003C0330913D0340913E0350913F0360912B
:103F30004003709141030E94C60E60933603709354
:103F4000370380933803909339036091360370915F
:103F50003703809138039091390360935E03709327
:103F60005F038093600390936103672809F077C033
:103F700020910C0130910D0121303105C1F52091C6
:103F800006013091070140910801509109010E94FA
:103F9000DF256B8F7C8F8D8F9E8F20912A03309130
:103FA0002B0340912C0350912D03609102017091DD
:103FB000030180910401909105010E94DF259B017E
:103FC000AC016B8D7C8D8D8D9E8D0E94082760933A
:103FD0002A0370932B0380932C0390932D036093FB
:103FE000360370933703809338039093390380919D
:103FF000340390913503019791F520913603309168
:104000003703409138035091390360912E0370912A
:104010002F0380913003909131030E940827209153
:104020005A0330915B0340915C0350915D030E9401
:10403000072726E636E646E65FE30E94DF25609323
:104040002E0370932F03809330039093310360937A
:10405000360370933703809338039093390380912C
:10406000320390913303892B19F488EB94E00BC051
:1040700080910A0190910B01892B19F084EB94E057
:1040800002C080EB94E00E94ED04C0C0F1E06F1626
:10409000710499F060911001709111010E94AB06BA
:1040A0009B01AC0160933603709337038093380310
:1040B000909339036728F1F093C000913A0310916F
:1040C0003B0320913C0330913D0340913E035091CE
:1040D0003F0360914003709141030E94C60E2091FE
:1040E0003E0330913F0340914003509141030E94B1
:1040F00074276EC080910C0190910D010197C1F55C
:104100006091060170910701809108019091090169
:104110000E94DF256B8F7C8F8D8F9E8F20912A03CD
:1041200030912B0340912C0350912D03609102019B
:104130007091030180910401909105010E94DF2597
:104140009B01AC016B8D7C8D8D8D9E8D0E9408270F
:1041500060932A0370932B0380932C0390932D0379
:104160006093360370933703809338039093390339
:104170008091340390913503019791F52091360396
:1041800030913703409138035091390360912E03E9
:1041900070912F0380913003909131030E94082782
:1041A00020915A0330915B0340915C0350915D0371
:1041B0000E94072726E636E646E65FE30E94DF25F3
:1041C00060932E0370932F038093300390933103F9
:1041D00060933603709337038093380390933903C9
:1041E0008091320390913303019761F480910A0129
:1041F00090910B01892B19F080ED92E005C084EDC0
:1042000092E002C088ED92E00E94AD0320910A0185
:1042100030910B014091320350913303609136038A
:104220007091370380913803909139030E949A0F5F
:104230000E949D0A0C9415120297A1F480E090E070
:10424000A0E0B0E40C948218089761F480E090E05C
:10425000A0E0B1E40C94821880E090E0A0E8B0E423
:104260000C94821880E090E0A0E8B1E40C948218ED
:10427000ECEFF3E01382128288EE93E0A0E0B0E06E
:1042800084839583A683B78323EA31E03183208337
:1042900025EC30E03587248724EC30E0378726870B
:1042A00020EC30E0318B208B21EC30E0338B228B03
:1042B00022EC30E0358B248B26EC30E0378B268BDC
:1042C000118E128E138E148EE9E9F4E0138212829D
:1042D00084839583A683B78385EB91E09183808364
:1042E0000895EF920F931F93CF93DF93E80147FD5B
:1042F00002C034E001C034E1E42F440FFF0BF7FFAC
:1043000003C0F195E195F109E32E022F2E2FAE01A6
:104310000E949521CE01DF91CF911F910F91EF90D7
:104320000895662777270C9423234F925F926F920C
:104330007F929F92AF92BF92CF92DF92EF92FF92C5
:104340000F931F93CF93DF93CDB7DEB729970FB6A7
:10435000F894DEBF0FBECDBF6A01122FB02E2BE343
:10436000201720F0FF24F394F00E02C0BCE3FB2ED4
:104370000F2D27E0AE014F5F5F4F0E948024AC01FC
:104380008981982F9970913031F0E1FC06C0E0FEF0
:1043900006C090E205C09DE203C09BE201C090E030
:1043A000EE2DE07183FF3CC0911102C083E001C09B
:1043B00084E0811718F4212F281B01C020E0E111AF
:1043C0000BC0F601822F30E2882319F0319381501F
:1043D000FBCFC20ED11C20E0992329F0D6019C937B
:1043E000F60131966F01C6010396E2FE0AC03EE473
:1043F000D6013C9341E411964C93119712963C934D
:1044000006C03EE6F601308341E641833283FC017B
:10441000322F40E2332309F442C041933150FACFA6
:1044200082FF44C0911102C083E001C084E0811783
:1044300018F4212F281B01C020E0E1110BC0F60168
:10444000822F30E2882319F031938150FBCFC20EC6
:10445000D11C20E0992329F0D6019C93F6013196D6
:104460006F01C6010396E2FE0BC039E4D6013C930E
:104470003EE411963C93119736E412963C9307C0A4
:1044800039E6F60130833EE6318336E63283FC01BD
:10449000322F40E2332319F041933150FBCFFC011E
:1044A000E20FF11D10828EEF9FEFB7C0F1E0911186
:1044B00001C0F0E06F2F70E01416150624F49A0185
:1044C0002F5F3F4F02C021E030E0260F371FBB2097
:1044D00029F06B2D70E06F5F7F4F02C060E070E0ED
:1044E000260F371F612F70E0261737071CF4121BA9
:1044F000212F01C020E03E2D387159F4D601322F12
:1045000060E2332319F06D933150FBCFC20ED11C02
:1045100020E0FF2331F0D6019C93B6016F5F7F4FFF
:104520006B01E1110BC0F601922F30E3992319F0D2
:1045300031939150FBCFC20ED11C20E09F2D940FE0
:104540003A81782F7071A72E84FF03C0313309F4AC
:104550009150191624F4993018F098E001C091E0B8
:10456000E42F852F57FF02C0E0E080E06E2F782F08
:10457000E0E0F0E0AEE29A2E3A01691A71082A01F1
:10458000461A570A0B2D10E01195019511096F3F3E
:104590008FEF780729F4D6019C92C60101966C0131
:1045A0004617570784F0661677066CF47F01E40C13
:1045B000F51CA1E0B0E0AC0FBD1FEA0EFB1ED70159
:1045C0001196BC9002C090E3B92E615071093196EA
:1045D000C60101967C016017710724F0D601BC92D8
:1045E0006C01D5CF6417750741F4363320F43533A9
:1045F00021F4A11002C081E3B82EF601B082F701C8
:10460000822F90E2882319F091938150FBCFF7011C
:10461000E20FF11D108280E090E029960FB6F89429
:10462000DEBF0FBECDBFDF91CF911F910F91FF90E5
:10463000EF90DF90CF90BF90AF909F907F906F9062
:104640005F904F900895A0E0B0E0E9E2F3E20C94AF
:10465000C526EC017B016115710519F0DB018D9315
:104660009C938E010F5F1F4F7880872D90E00E94F2
:104670005825892B11F0E801F4CFBDE27B1205C06B
:104680000F5F1F4F7980C1E008C0EBE27E1204C0CB
:104690008E010E5F1F4F7980C0E06801F1E0CF1AF4
:1046A000D10843E050E060E770E0C6010E94612558
:1046B000892BF1F4680122E0C20ED11C45E050E0E4
:1046C0006BE670E0C6010E946125892B21F4680128
:1046D00087E0C80ED11CE114F10419F0D701CD9286
:1046E000DC92C111FFC060E070E080E89FE703C189
:1046F00043E050E068E670E0C6010E946125892B26
:1047000051F4E114F10409F4F2C00E5F1F4FF701F8
:1047100011830083ECC0680160E070E0CB0100E031
:1047200010E0F601D0EDD70DDA3058F52C2F2260CD
:10473000622E2C2F2870C2FF05C0211128C00F5FE8
:104740001F4F25C0222311F001501109A5E0B0E050
:104750009B01AC010E94B6264B015C01880C991CA0
:10476000AA1CBB1CC501B4016D0F711D811D911DDB
:104770006839A9E97A078A07A9E19A0740F0C66073
:1047800005C0DE3F51F4C3FD44C0C8606C2EBFEFCE
:10479000CB1ADB0A7080C62DC4CF2D2F2F7D25317B
:1047A000C1F540814D3211F4C06106C04B3221F099
:1047B000319621E030E006C03296D60111964C9138
:1047C00022E030E0A0EDA40FAA3018F0E21BF30BBA
:1047D00020C040E050E04038BCE05B075CF49A0148
:1047E000220F331F220F331F420F531F440F551F39
:1047F0004A0F511D3196DF0111972C91A0EDA20FA8
:10480000AA3048F3C4FF03C0519541955109040FE4
:10481000151FC1FF07C0E114F10421F03197D70142
:10482000ED93FC930E947E25C370C33019F06B0199
:104830007C0106C06B017C01F7FAF094F7F8F09464
:1048400020E030E0A901C701B6010E947925882344
:1048500009F445C017FF06C0119501951109C7E875
:10486000D0E002C0CFE9D0E05E01B8E1AB1AB108F8
:104870004601BE2DAF2D90E2E92EF12C0E151F053D
:1048800084F0FE012591359145915491B4018B2F0F
:104890009A2F0E94DF254B01B82FA92F0E191F094F
:1048A000EDCF2497F594E794CA15DB0539F7640139
:1048B000EB2EFA2E8E2D880F8F2D881F8F3F49F0FB
:1048C00020E030E0A901C701B6010E9479258111DD
:1048D00006C082E290E09093F7048093F604C7014B
:1048E000B60109C060E070E080E89FEF04C060E0BE
:1048F00070E080EC9FE7CDB7DEB7EEE00C94E126E8
:10490000283008F027E03327DA01990F311D87FDA1
:10491000916000966105710539F432602E5F3D9318
:1049200030E32A95E1F708959F3F30F08038710514
:10493000610509F03C5F3C5F3D93913008F0806871
:10494000911DDF93CF931F930F93FF92EF92192F37
:10495000987F9695E92F96959695E90FFF27E35056
:10496000FF4F99273327EE24FF24A701E701059085
:104970000894079428F4360FE71EF81E491F511DAE
:10498000660F771F881F991F0694A1F7059007945B
:1049900028F4E70EF81E491F561FC11D770F881F08
:1049A000991F661F0694A1F70590079428F4F80E46
:1049B000491F561FC71FD11D880F991F661F771FDC
:1049C0000694A1F70590079420F4490F561FC71FBE
:1049D000D81F990F661F771F881F0694A9F7849127
:1049E0001095177041F0D695C79557954795F79450
:1049F000E7941A95C1F7E3EAF0E0689415901591F1
:104A000035916591959105907FE27395E118F10AD2
:104A1000430B560BC90BD009C0F7E10CF11E431F25
:104A2000561FC91FD01D7EF4703311F48A95E6CF4E
:104A3000E894015030F0080F0AF40027021708F438
:104A4000202F2395022F7A3328F079E37D932A953E
:104A5000E9F710C07D932A9589F606949795679596
:104A6000379517951794E118F10A430B560BC90BAC
:104A7000D00998F023957E9173957A3308F070E30E
:104A80007C932013B8F77E9170617D9330F083950D
:104A900071E37D9370E32A95E1F71124EF90FF9085
:104AA0000F911F91CF91DF91992787FD90950895E0
:104AB00091110C944C26803219F089508550C8F71A
:104AC0000895FB01DC014150504088F08D91813404
:104AD0001CF08B350CF4805E659161341CF06B35F5
:104AE0000CF4605E861B611171F3990B0895881BAD
:104AF000FCCF0E94BB2508F481E00895E89409C02A
:104B000097FB3EF490958095709561957F4F8F4F00
:104B10009F4F9923A9F0F92F96E9BB279395F69516
:104B2000879577956795B795F111F8CFFAF4BB0F94
:104B300011F460FF1BC06F5F7F4F8F4F9F4F16C0F8
:104B4000882311F096E911C0772321F09EE8872F82
:104B5000762F05C0662371F096E8862F70E060E03E
:104B60002AF09A95660F771F881FDAF7880F9695B7
:104B7000879597F90895990F0008550FAA0BE0E85B
:104B8000FEEF16161706E807F907C0F0121613060F
:104B9000E407F50798F0621B730B840B950B39F44F
:104BA0000A2661F0232B242B252B21F408950A26B5
:104BB00009F4A140A6958FEF811D811D08950E94E3
:104BC000F2250C9466260E94582638F00E945F2633
:104BD00020F0952311F00C944F260C9455261124A7
:104BE0000C949A260E94772670F3959FC1F3950F37
:104BF00050E0551F629FF001729FBB27F00DB11D61
:104C0000639FAA27F00DB11DAA1F649F6627B00DF0
:104C1000A11D661F829F2227B00DA11D621F739FD9
:104C2000B00DA11D621F839FA00D611D221F749FE7
:104C30003327A00D611D231F849F600D211D822F2E
:104C4000762F6A2F11249F5750409AF0F1F0882355
:104C50004AF0EE0FFF1FBB1F661F771F881F915082
:104C60005040A9F79E3F510580F00C944F260C94BC
:104C70009A265F3FE4F3983ED4F38695779567953F
:104C8000B795F795E7959F5FC1F7FE2B880F911DAC
:104C90009695879597F9089599278827089597F904
:104CA0009F6780E870E060E008959FEF80EC0895D2
:104CB00000240A94161617061806090608950024FB
:104CC0000A9412161306140605060895092E039475
:104CD000000C11F4882352F0BB0F40F4BF2B11F4E9
:104CE00060FF04C06F5F7F4F8F4F9F4F089557FD48
:104CF0009058440F551F59F05F3F71F04795880F4A
:104D000097FB991F61F09F3F79F0879508951216E0
:104D100013061406551FF2CF4695F1DF08C016168C
:104D200017061806991FF1CF86957105610508943D
:104D30000895E894BB2766277727CB0197F9089554
:104D4000F999FECF92BD81BDF89A992780B5089553
:104D5000262FF999FECF1FBA92BD81BD20BD0FB697
:104D6000F894FA9AF99A0FBE019608950E94F826CF
:104D7000A59F900DB49F900DA49F800D911D1124AF
:104D800008952F923F924F925F926F927F928F92EF
:104D90009F92AF92BF92CF92DF92EF92FF920F93CA
:104DA0001F93CF93DF93CDB7DEB7CA1BDB0B0FB6D4
:104DB000F894DEBF0FBECDBF09942A883988488891
:104DC0005F846E847D848C849B84AA84B984C88427
:104DD000DF80EE80FD800C811B81AA81B981CE0F1E
:104DE000D11D0FB6F894DEBF0FBECDBFED01089503
:104DF000A29FB001B39FC001A39F700D811D11241C
:104E0000911DB29F700D811D1124911D0895505860
:104E1000BB27AA270E941F270C9466260E945826AB
:104E200038F00E945F2620F039F49F3F19F426F4F1
:104E30000C9455260EF4E095E7FB0C944F26E92FD1
:104E40000E94772658F3BA176207730784079507FD
:104E500020F079F4A6F50C9499260EF4E0950B2E2B
:104E6000BA2FA02D0B01B90190010C01CA01A001BC
:104E70001124FF27591B99F0593F50F4503E68F117
:104E80001A16F040A22F232F342F4427585FF3CF58
:104E9000469537952795A795F0405395C9F77EF429
:104EA0001F16BA0B620B730B840BBAF09150A1F072
:104EB000FF0FBB1F661F771F881FC2F70EC0BA0FF8
:104EC000621F731F841F48F4879577956795B79580
:104ED000F7959E3F08F0B0CF9395880F08F099277B
:104EE000EE0F9795879508950E9488270C94662663
:104EF0000E945F2658F00E94582640F029F45F3F38
:104F000029F00C944F2651110C949A260C94552696
:104F10000E94772668F39923B1F3552391F3951BEB
:104F2000550BBB27AA2762177307840738F09F5FCA
:104F30005F4F220F331F441FAA1FA9F335D00E2E37
:104F40003AF0E0E832D091505040E695001CCAF7A4
:104F50002BD0FE2F29D0660F771F881FBB1F261767
:104F600037074807AB07B0E809F0BB0B802DBF013E
:104F7000FF2793585F4F3AF09E3F510578F00C940D
:104F80004F260C949A265F3FE4F3983ED4F386951F
:104F900077956795B795F7959F5FC9F7880F911D2E
:104FA0009695879597F90895E1E0660F771F881F1A
:104FB000BB1F621773078407BA0720F0621B730BCD
:104FC000840BBA0BEE1F88F7E09508950E94ED2739
:104FD0006894B1110C949A2608950E947F2688F057
:104FE0009F5798F0B92F9927B751B0F0E1F0660FAD
:104FF000771F881F991F1AF0BA95C9F714C0B130EE
:1050000091F00E949926B1E008950C949926672F9B
:10501000782F8827B85F39F0B93FCCF3869577951C
:105020006795B395D9F73EF4909580957095619505
:105030007F4F8F4F9F4F08950E94BB2508F48FEF3D
:10504000089519F416F40C9455260C946C280E94BB
:105050007F26B8F39923C9F3B6F39F57550B87FF03
:105060000E947A280024A0E640EA900180585695D4
:10507000979528F4805C660F771F881F20F026170D
:105080003707480730F4621B730B840B2029312942
:105090004A2BA69517940794202531254A2758F7BF
:1050A000660F771F881F20F026173707480730F450
:1050B000620B730B840B200D311D411DA09581F7F0
:1050C000B901842F9158880F9695879508950E946D
:1050D000BB25880B990B08959F3F31F0915020F428
:1050E000879577956795B795880F911D96958795C4
:1050F00097F9089591505040660F771F881FD2F797
:105100000895A1E21A2EAA1BBB1BFD010DC0AA1F08
:10511000BB1FEE1FFF1FA217B307E407F50720F020
:10512000A21BB30BE40BF50B661F771F881F991F9B
:105130001A9469F760957095809590959B01AC01E4
:10514000BD01CF010895EE0FFF1F0590F491E02DF2
:10515000099481E090E0F8940C94EA2B9111089561
:1051600081568A5108F4805285580895FB01DC016C
:105170000D900020E9F7119701900D920020E1F7C2
:105180000895AEE0B0E0E7ECF8E20C94D12685E0BB
:105190008C838B899C899A838983AE01495E5F4F9A
:1051A0006D897E89CE0101960E945A2A2E96E2E0F0
:1051B0000C94ED2620FD09C0FC0123FD05C022FF53
:1051C00002C07383628351834083089544FD10C0FD
:1051D00046FD10C0DB01FC01AA0FBB1FEE1FFF1F25
:1051E0001094D1F76A0F7B1F8E1F9F1F31E003C001
:1051F00033E001C034E0660F771F881F991F3150DC
:10520000D1F7620F711D811D911D08950F931F939A
:10521000CF93DF938C01C8010E94932BEC0197FD83
:1052200008C00E945825892BB1F7B801CE010E9411
:10523000D12BCE01DF91CF911F910F910895A1E065
:10524000B0E0E5E2F9E20C94C7268C01C62E7A01A3
:1052500029830E94932BAC01552729814B3251059C
:1052600021F04D32510569F42068CA94C11002C082
:1052700080E076C0C80129830E94932B298197FD85
:10528000F7CF322F3D7FD32E322F307349F5803345
:1052900039F5BB24BA94BC0C09F44EC0C80129836B
:1052A0000E94932B298197FD47C0382F3F7D3835C9
:1052B00069F48D2D8264D82ECA94CA94CC20E1F171
:1052C000C8010E94932B97FF0BC036C026FF04C075
:1052D0002D2D2260D22E03C03D2D3261D32ECB2C3A
:1052E000812C912C540120ED280F283080F0D4FE21
:1052F00004C0B8010E94D12B1CC02A3040F0D6FE59
:10530000F8CF2F7D3FEE320F363098F727504D2DD6
:10531000C501B4010E94E6284B015C018D2D82601D
:10532000D82ECA94CC2059F0C8010E94932B97FF25
:10533000DACFD1FC04C09CCF812C912C5401D7FE34
:1053400008C0B094A09490948094811C911CA11CDE
:10535000B11C2D2DB501A401C7010E94DA2881E0FE
:105360002196ECE00C94E326A1E2B0E0EAEBF9E24E
:105370000C94C5265C017A01CE0101966C0180E295
:10538000F60111928A95E9F7F501838040E050E03B
:10539000912C712C70E0A1E0B0E0F90183FC8591C3
:1053A00083FE81918F01982F9F01811103C080E0BE
:1053B00090E07CC08E3519F44115510549F1E72F75
:1053C000F0E0E417F5073CF48D3559F18D3219F40E
:1053D000772001F103C0711001C0982E892F8695A6
:1053E000869586958601080F111D892F87703D01CE
:1053F00001C0660C8A95EAF7F801808186298083CE
:10540000991559F0991510F49F5FE8CF9150E6CFA8
:1054100071E004C07724739401C0712C4F5F5F4F1B
:10542000BCCF772019F08E8180628E83711103C00A
:105430009924939416C0F6019E012F5D3F4F808101
:1054400080958193E217F307D1F7F2CFE114F104CD
:1054500029F0F7018083C70101967C016150912CEE
:10546000F9F0C50169A30E94932B69A197FD16C0AD
:10547000282F269526952695F601E20FF11D20810D
:1054800030E0AC014770552702C0359527954A9505
:10549000E2F720FDDBCFB5010E94D12B911087CF21
:1054A000E114F10411F0F7011082C801A196EEE0B9
:1054B0000C94E1264F925F927F928F929F92AF92CF
:1054C000BF92CF92DF92EF92FF920F931F93CF93F1
:1054D000DF931F92CDB7DEB76C012B015A01FC019F
:1054E00017821682712CF601F380F201F3FC85918C
:1054F000F3FE8191382F2F01882309F4F3C090E047
:1055000039830E9458253981892B21F0C6010E94D8
:105510000629E9CF353241F4F201F3FC3591F3FE6F
:1055200031912F01353269F4C60139830E94932BE2
:10553000398197FDD5C03817B1F2B6010E94D12B41
:10554000D1C03A3239F4F3FC3591F3FE31912F0199
:1055500051E001C050E0420110E020ED230F2A305D
:1055600090F45260612F70E080E090E040E2598357
:105570000E94E628162FF401F3FC3591F3FE3191D9
:105580004F015981EACF052F232F240151FF03C07A
:10559000111102C0A7C01FEF383619F03C3659F080
:1055A00011C0F401F3FC2591F3FE21912F0128365F
:1055B00049F4052F08600460F201F3FC2591F3FE25
:1055C00021912F01222309F48DC0622F70E08DE913
:1055D00091E029830E94882B2981892B09F482C0BC
:1055E00000FD07C0F501E080F180C50102965C0175
:1055F00002C0E12CF12C2E3651F4F6014681578180
:1056000060E070E0202FC7010E94DA286CCF2336BB
:1056100091F401FF11E0C6010E94932B97FD60C039
:10562000E114F10429F0F7018083C70101967C01A0
:10563000115089F751C02B3559F49201A701612F00
:10564000C6010E94B4292C01892B09F045C03FC036
:10565000C60129830E940629298197FD41C02F3662
:1056600059F128F4243631F1293649F127C023377E
:1056700069F02537F9F022C0E114F10429F0F701AF
:105680008082C70101967C01115071F0C6010E9411
:10569000932B4C0197FD08C00E945825892B61F37C
:1056A000B601C4010E94D12BE114F104A9F0F70165
:1056B000108212C0006203C0006101C00064202F8C
:1056C000A701612FC6010E941F29811105C0F601A3
:1056D0008381807329F406C000FD05CF739403CF46
:1056E000772019F0872D90E002C08FEF9FEF0F9089
:1056F000DF91CF911F910F91FF90EF90DF90CF90AE
:10570000BF90AF909F908F907F905F904F90089543
:10571000FC010590061621F00020D9F7C00108957C
:105720003197CF010895CF93DF93EC012B8120FFB8
:1057300033C026FF0AC02F7B2B838E819F81019669
:105740009F838E838A8190E029C022FF0FC0E88169
:10575000F9818081082E000C990B009719F42062C2
:105760002B831AC03196F983E8830EC0EA85FB8546
:10577000099597FF09C02B81019611F080E201C0C5
:1057800080E1822B8B8308C02E813F812F5F3F4FAA
:105790003F832E83992702C08FEF9FEFDF91CF9138
:1057A0000895FB01238120FF12C026FD10C08F3F0A
:1057B0003FEF930761F082832F7D2064238326814E
:1057C00037812150310937832683992708958FEF38
:0857D0009FEF0895F894FFCF4C
:1057D8000400CDCCCC3D6666663F010001000100A7
:1057E800100001000100000000418025403800E160
:1057F80000C200840000003F0000803E0000003E20
:105808000000803D0000003D0000803C000000409A
:10581800000080400000004100008041000000427C
:10582800000080426F1283386F1203396F120338F9
:105838006F1203396F1203396F1203396F128337EE
:105848006F1203396F1203396F1203396F1203395C
:105858006F1203396F1203396F1203396F1203374E
:1058680004020602020208020202020202020A00FE
:10587800000000340AA109CC097B0AFD09DB09EF05
:105888000900000000350B050B650BD90AFD0AE974
:105898000ADA0A4D44545553424D414731442E319A
:1058A8003131342E32303230303132310056636388
:1058B8003A20200020560043616C20456E61626CDE
:1058C800656400556E63616C696272617465640039
:1058D8004C696E20456E61626C6564004C696E208F
:1058E80044697361626C6564004F4D202573004FF5
:1058F8004D202573202573004F57202573004F57DF
:10590800202573202573004F5220257300534D2006
:10591800257300534D2025732025730053572025E8
:1059280073005357202573202573005246202564A1
:10593800000D0A00504720256400257320256400C7
:105948004453202564004E53202564004C562025DE
:1059580073004C5020257300414D20256420257389
:10596800004142202573004143202564004356200E
:10597800257300435320256400646F6E652100433E
:105988004120257300545320256400544420257376
:10599800005746202564202573005754202573009E
:1059A8004256320042563100525620006E616E0057
:0A59B800696E66006F7666002C0031
:107E0000112484B714BE81FFF0D085E080938100F7
:107E100082E08093C00088E18093C10086E0809377
:107E2000C20080E18093C4008EE0C9D0259A86E02C
:107E300020E33CEF91E0309385002093840096BBD3
:107E4000B09BFECF1D9AA8958150A9F7CC24DD24C4
:107E500088248394B5E0AB2EA1E19A2EF3E0BF2EE7
:107E6000A2D0813461F49FD0082FAFD0023811F036
:107E7000013811F484E001C083E08DD089C08234E0
:107E800011F484E103C0853419F485E0A6D080C0E4
:107E9000853579F488D0E82EFF2485D0082F10E0AE
:107EA000102F00270E291F29000F111F8ED06801E7
:107EB0006FC0863521F484E090D080E0DECF843638
:107EC00009F040C070D06FD0082F6DD080E0C81688
:107ED00080E7D80618F4F601B7BEE895C0E0D1E017
:107EE00062D089930C17E1F7F0E0CF16F0E7DF06D8
:107EF00018F0F601B7BEE89568D007B600FCFDCFD4
:107F0000A601A0E0B1E02C9130E011968C91119780
:107F100090E0982F8827822B932B1296FA010C0160
